:020000040800F2
:10000000880A0020C9000008EF0000086707000800
:1000100000000000000000000000000000000000E0
:10002000000000000000000000000000F3000008D5
:100030000000000000000000F5000008F1090008C1
:10004000F9000008F9000008F9000008F9000008AC
:10005000F9000008F9000008F9000008F90000089C
:1000600000000000F9000008F9000008F90000088D
:10007000F9000008F9000008F9000008F90000087C
:10008000F90000080000000000000000F90000086E
:1000900000000000F9000008F9000008F90000085D
:1000A00000000000F900000800000000650C0008D6
:1000B0000448854600F0BCF900F048F800480047C5
:1000C0004D2B0008880A00200C4880F308880C4853
:1000D0000168090E0B4A914205D10B480B4901609A
:1000E0000B480C4901600C4880470C480047FEE76C
:1000F000FEE7FEE7FEE7FEE7FEE70000880A0020D5
:10010000040000001F000000181002400100000061
:100110000000014000000000F5090008B1000008DF
:1001200030B50B46014600202022012409E00D468F
:10013000D5409D4205D31D469540491B2546954017
:1001400040191546521E002DF1DC30BD70B5054C2E
:10015000054D03E0206800198047241DAC42F9D109
:1001600070BD0000283C00082C3C0008F8B5024691
:100170004A40D40F42004B0052085B089A4202D218
:100180000246084611464A0023D0C30D4A00DDB29C
:10019000120EAD1A202D35DA49020126490AF6055C
:1001A0008A19002C00D0524220214F1B1146B94021
:1001B0002A411018C20D9A4221D0002C17D0012DCF
:1001C00008DCDA05801AD20F8019D207DBB200F002
:1001D000F5F8F8BDDA05801A012340001B06C018A7
:1001E00080185A428018CA0F1043490007E0490896
:1001F000C2071143DA05801A80194008801800F000
:10020000D5F8F8BD61000122511A001BF7E7012261
:10021000D2075140AAE70122D2075040A6E7024682
:1002200070B54A40D30FDB0740002DD04A002AD0DA
:10023000010E140E000212020919400A520A841813
:10024000E50104465443000A120A2E045043A4193F
:100250004219200CC543AA18120C0125AD03521CEB
:10026000521912047F39240400D0521C104301D4C7
:100270004000491EC2B20C06C0092018401C4008AC
:10028000802A02D003E0002070BD40084000002911
:1002900000DA0020184370BD70B502464A40D50F01
:1002A00040004A00ED0740085208002814D0002AF8
:1002B00012D0C40DD30D41020120C0055202490ADB
:1002C000520AE41A091812187D34914201D3641CB1
:1002D00000E04900002C01DA002070BD00239142AB
:1002E00001D3891A0343400849000028F7D10029A7
:1002F0000AD0914202D10121C90705E0914201D201
:10030000012101E00121C943E005C018401900F0B6
:100310004DF870BD420005D04200120E52428A4292
:1003200001DB00207047C90508187047C217C10FCC
:10033000504010B54018CA079623002100F03EF83F
:1003400010BD10B500229623114600F037F810BDFD
:10035000C20F410040020123400ADB05D207090E0B
:10036000C0187F2901DA00207047962903DC962304
:10037000591AC84001E096398840002AF4D040421A
:10038000704700000122D207002800DB101A002964
:1003900000DB511A814270470122D207002800DB9E
:1003A000101A002900DB511A88427047002904DA2C
:1003B000401C490001D140084000704770B400243F
:1003C000050C05D11024000402D1002921D01124EC
:1003D000050E01D100020834050F01D10001241DD2
:1003E000850F01D18000A41C002801DB4000641CA3
:1003F000002908D020252E1B0D46F540A14000D035
:1004000001212943084301061B1B000ADB1D02D5FD
:10041000002070BC7047DB05181880180029F8DA36
:10042000401C4900F5D170BC4008400070470000F6
:10043000064C0125064E05E0E36807CC2B430C3C37
:1004400098471034B442F7D3FFF736FE083C000853
:10045000283C000870B58C180578401C6B075B0FB2
:1004600001D10378401C2A1106D10278401C03E018
:1004700006780E70401C491C5B1EF9D12B0705D471
:100480000023521E0DD40B70491CFAE70378401C60
:10049000CB1A921C03E01D780D70491C5B1C521E88
:1004A000F9D5A142D8D3002070BD836A0B43836283
:1004B000426170470029816801D0012200E00222D8
:1004C0001143816070470029C16802D001221143A5
:1004D00001E049084900C1607047C26802239A439D
:1004E000C260C2680A43C26070478268002101236B
:1004F000DB071A4382600F231B038268491CD20F5B
:10050000D207994201D0002AF7D18168002901DB86
:10051000006C70470020704730B5C268084B8C688B
:100520001A400B680D792343CC686D032C43234399
:100530000C69496923430B431343C36030BD00007A
:1005400003D2FFFF816804221143816070470021BC
:10055000016001718160C16001614161704700000B
:100560000122054992050028886801D0104300E067
:10057000904388607047000000270140002901680F
:1005800002D00122114301E0014A1140016070478D
:10059000FEFF000030B503680C4A0C6A13408A68FD
:1005A0004D6922430C692C4322438C692243CC6958
:1005B00022434C6A22438C6A22431A430260CA686F
:1005C00042600A6882604968C16030BD0F80FFFFE9
:1005D000F0B50B2706463F04384600F067F80428BC
:1005E0000FD1084C206902252843206166612069EB
:1005F000402108432061384600F058F82169A9439A
:100600002161F0BD0020024008490420CA68D207D9
:1006100001D001207047CA68D20601D50220704778
:10062000C9684907FBD5032070470000002002403D
:100630000248016980221143016170470020024095
:10064000F8B5064600200B273F0400900D463846BB
:1006500000F02CF8042815D10B4C20690121084327
:1006600020613580384600F021F8042806D1B61CF8
:10067000290C00963180384600F018F821694908A5
:1006800049002161F8BD00000020024004480169D2
:10069000090603D5034941600349416070470000E2
:1006A0000020024023016745AB89EFCD00B503462A
:1006B000FFF7AAFF02E0FFF7A7FF5B1E012803D0A8
:1006C000002B00D1052000BD002BF4D1FAE7F0B5D6
:1006D0000022032501230C6893401C409C422AD130
:1006E0000C79012C01D0022C12D1876854002E46BF
:1006F000A640B74387604E79A6408468264386604B
:1007000084889C43848084888B7993401C438480B4
:10071000066853002C469C40A64306600E79076885
:100720009E403E430660C668A643C660CC799C40A6
:10073000C3681C43C460521C102ACBD3F0BD4B07C6
:10074000DB0E9A40C90810B589000818016A0F2409
:100750009C40A1430162016A1143016210BD018501
:10076000704781617047052001F0EAFB30B582785F
:1007700001240178002A15D08B080E4A9B009A1894
:1007800013688907C90EFF258D40AB434578AD0737
:100790002D0E8D401D4315600078C006C00E8440AC
:1007A000054804E0C806C00E844003488030046059
:1007B00030BD000000E400E000E100E070B5FF257E
:1007C00000210446AD05C943FFF7A4FD06460F49C5
:1007D00060100C1A21463046FFF721FD2146FFF735
:1007E0001EFD2946FFF717FD2146FFF718FD0446B9
:1007F00001463046FFF713FD2146FFF710FD29465D
:10080000FFF709FD2146FFF70AFD70BDDF59375F8D
:10081000044A0029516901D0014300E0814351613C
:100820007047000000100240044A0029D16901D03D
:10083000014300E08143D161704700000010024095
:10084000044A0029916901D0014300E0814391618C
:100850007047000000100240F8B5464E044671682B
:1008600000200C22444D114005D0042903D0082952
:1008700003D00C2918D0256018E071687068032235
:100880008902D2030F0F1040BF1C002809D0F06A64
:100890000107090F2846491CFFF742FC78432060F6
:1008A00004E036487843FAE7354921607168354FEE
:1008B0000906090F7B5C21680A46DA4062607368AA
:1008C0005B055B0FFB5CDA40A260336BDB0501D498
:1008D0002D4B05E073685B0401D4530800E09308D6
:1008E000E360336B5F06294B03D4284F123727612F
:1008F00000E02361376BFF0601D4656100E06161B0
:10090000376BBF070ED0376BBF07BF0F012F0BD060
:10091000376BBF07BF0F022F08D0376BFF43BF07EE
:1009200006D006E0A26104E0A16102E0A36100E05C
:10093000A561376BBF03BF0F0FD0326B9203920FCD
:10094000012A0CD0316B8903890F022909D0316B40
:100950008903890F032906D006E0E26104E0E16122
:1009600002E0E36100E0E561316B090600D4044870
:100970002062F8BD0010024000127A0000093D001C
:10098000006CDC0238020020809FD500008000004F
:100990000CB5002000900190134911200860134805
:1009A000416841604168416041687B22D2039143C4
:1009B000416041680522D20411434160016801226F
:1009C00012061143016001688901FCD5416889085C
:1009D0008900416041680222114341604168090772
:1009E000890F0229FAD10CBD0020024000100240FC
:1009F0007047000010B514480168012211430160DE
:100A00004168124A114041600168114A1140016079
:100A10000168012292049143016041683F2212045F
:100A200091434160C16A09090901C162016BFF225A
:100A3000543291430163416B4908490041630021ED
:100A40008160FFF7A5FF10BD001002400CB8FF0841
:100A5000FFFFF6FE0029018802D00122114301E0C8
:100A6000490849000180704740300029818803D03F
:100A70000122D203114301E04904490C81807047EF
:100A800070B5028C520852000284048C8288038B59
:100A90007025AB439B080D889B001D4302239C439C
:100AA0008E894B882643104C3343A04208D00F4C0C
:100AB000A04205D00E4CA04202D00E4CA0420DD157
:100AC0000824A343CC891C4304239C438B882343E1
:100AD000094C22400C8A14434A8A224382800583AF
:100AE00089684163038470BD002C014000400140CF
:100AF0000044014000480140FFFC000070B5028C3A
:100B000010239A430284048C8288038B1A4D2B4055
:100B10000D782D062D0C1D4320239C438B891B052E
:100B20001E0C4B8826431B051B0C144C3343A04260
:100B300002D0134EB04219D1124E32400E8AB60482
:100B4000360C3243A04211D18024A343CC89240522
:100B5000240C1C4340239C438B881B051B0C234304
:100B6000094C22404C8AA404240C22438280058331
:100B700089688163038470BDFF8C0000002C0140F4
:100B800000400140FFFB0000FFF7000030B5028C81
:100B9000124B1A400284058C8288838B104C2340B0
:100BA0000C782406240C1C430E4B1D400B7B1B07AA
:100BB0001B0C2B438D782D072D0C1D430A4B98429F
:100BC00005D10A4B13400A8A9205120C1A438280FF
:100BD000848389680164058430BD0000FFEF000054
:100BE000FF8C0000FFDF0000002C0140FFBF000071
:100BF00010B50288144B984206D00124A407A042E5
:100C000002D0124CA04203D17024A2434C8822434C
:100C10000F4CA04203D00F4C22400C89224302808B
:100C20004A68C2620A880285984208D00A4A9042FD
:100C300005D00A4A904202D0094A904201D1897AED
:100C400001860121818210BD002C0140000400407A
:100C500000100040FFFC0000004001400044014043
:100C60000048014070B5194E304600F0B5F8194DF6
:100C700017496A788854184843698169286B81420A
:100C800001D2401A01E05B1A1818114C01231B0411
:100C90004034984201D30020C0435200A05229633F
:100CA0000821304600F026F8002808D06978012095
:100CB000C043490060520821304600F00FF86878C0
:100CC000401C8006800E687070BD00000038014036
:100CD00070050020CC01002000E000E001627047B8
:100CE0000029016802D00122114301E049084900AE
:100CF000016070470246D26900200A4200D00120FC
:100D0000704710B50B041C0E01238B40022C02D03F
:100D1000032C02D002E0001D00E008300168002A28
:100D200001D0194300E09943016010BD30B504467D
:100D3000006889B00D4640084000206060680321CB
:100D400009038843A9680143616020681A49EA6879
:100D50000840696811432A69024311432160A06871
:100D600003210902884369690143A1606846FFF7CE
:100D700073FD1248844201D1069805E01048844270
:100D800001D1079800E0029821680904296800D57C
:100D90004000FFF7C5F92A6852088A4200D8401C73
:100DA0002168090404D50107064A490F1040084389
:100DB000A08109B030BD0000F3E9FFFF0038014019
:100DC00000440040F0FF0000002A426801D00A43BE
:100DD00000E08A4342607047808CC005C00D7047B8
:100DE0000146034888600348C86008467047000011
:100DF0000AD7A33C249A843D0146034888600348EF
:100E0000C8600846704700000AD7A33C249A843D76
:100E1000002101607047FFB581B01C4617460E00E7
:100E200007D0019D02E02846B047ED192046641E18
:100E3000F9D2019805B0F0BD02E008C8121F08C140
:100E4000002AFAD170477047002001E001C1121F4B
:100E5000002AFBD17047000010B5032310220B4974
:100E60000B48FFF7D8FF0A48032310220949303006
:100E7000FFF7D1FF0848002101600548032308223D
:100E800006496030FFF7C7FF10BD0000E10D000804
:100E900018030020F90D000898000020110E00082A
:100EA00070B5174D064668680024002801D102F08D
:100EB000D9FB2868002801D102F032FC0722012367
:100EC00002F0A8FB00F01EF8002803D0184690405E
:100ED0002043C4B202F0BAFB521EF1D5002E02D05C
:100EE00002F0C0FB01E002F0CFFB02F093FB02F046
:100EF000ADFB6868002801D002F0C6FB204670BD3B
:100F0000780000200920C006008A012189020840DB
:100F10007047000010B505484068002801D102F074
:100F2000A1FB02F077FB02F0AFFB10BD78000020C0
:100F300070B5104E0546B068012801D102F086FB5D
:100F4000072428462041C00702D002F08BFB01E0B5
:100F500002F09AFB02F06AFB641EF2D5706800286A
:100F600001D102F07FFB02F055FB02F06FFB384627
:100F700070BD00007800002010B5074A9068002876
:100F800001D102F047FB5068012803D1FFF7BAFFF7
:100F900002F07AFB10BD00007800002010B5084C6C
:100FA0006068012804D1A068002806D102F06CFB1B
:100FB000A068002801D102F02DFB02F053FB10BD08
:100FC00078000020F8B5154E45200006374600256C
:100FD000183FB06002F0EEFB0024A00039588019E1
:100FE0000F4A01F0F2FC641C032CF6DB01F096FAC8
:100FF000FF20F5306D1C8542ECDB45210906B06809
:10100000FFF705F9074D0024B060A00080192946BC
:1010100001F0C8FC641C032CF7DBF8BD640600205B
:101020001F856B3F0000FA4370B592B02025032066
:101030006946069508770024CC77092006A9C006E2
:10104000FFF745FB01214802FFF7FAFB01210846A3
:10105000FFF7DEFB294806902948079002200990F7
:1010600080200B9040000C90089480000E950D900D
:101070000A94C000234D0F9006A910942846FFF74C
:1010800089FA1E4E0221403E3046FFF726FA012122
:101090003046FFF718FA6846FFF759FA012069460B
:1010A0000094087104200590029404943046FFF7E0
:1010B00033FA0121072249043046FFF7F6F90722E7
:1010C00020213046FFF7F1F90120FFF749FA3046B9
:1010D000FFF70BFA01213046FFF7ECF93046FFF736
:1010E00031FA01212846FFF749FA07480088FFF73F
:1010F00028F90349486012B070BD00004024014047
:101100006C00002008000240BAF7FF1F10B50B4921
:10111000002803D0012808D0002010BD0888FFF760
:1011200010F90749FFF77BF810BD4888FFF709F968
:10113000014602484068FFF7AFF810BD6C00002080
:1011400067661E3BF0B58400304887B005597F21A3
:1011500068004008C9050290FFF75DF80646294679
:10116000FFF75DF82949303909680191FFF757F811
:10117000059029460298FFF752F82449203909685A
:101180000091FFF74CF807462048083001592846DF
:10119000FFF73DF81D49049028390968FFF73FF82B
:1011A0003146FFF73CF81A4909680391FFF737F811
:1011B0000599FEF7DBFF1549064610390851083935
:1011C00004980968FFF72BF80299FFF728F80399AC
:1011D000FFF725F83946FEF7C9FF0C4908390851D1
:1011E00001463046FEF7C2FF084E103630513046F9
:1011F0000838055100990198FEF7B8FF0146A0197B
:1012000001F0D0FB305907B0F0BD000030000020E5
:1012100074010020F8B505460C46480000D1294C61
:1012200001210026C9078D4203D94C404D4081263B
:10123000F605002C09DC204648402C4605460121D5
:1012400089073046FEF792FF064621462846FFF7FB
:10125000A3F810D821462846FEF7D9FF07462146B5
:101260002846FEF783FF04467F213D46C9053046E8
:10127000FEF77CFF064621462846FFF70DF8044698
:101280001149FEF7CCFF1149FEF770FF2146FEF72A
:10129000C6FF0F49FEF76AFF2146FEF7C0FF04466E
:1012A0000C493046FEF7BBFF2146FEF75FFF0A49B7
:1012B000884202DD0949FEF7AAFF0949FEF7AFFFA0
:1012C000F8BD0000567C0A2A4BC887BD7EAE36BEEC
:1012D00042DA833FDB0F493FDB0F4940DB0FC94058
:1012E000E12E654270B5002506462C46A000305818
:1012F0000146FEF794FF2946FEF738FF641CE4B26E
:101300000546032CF2D3FFF759FA01467F20C005AA
:10131000FEF7C2FF70BD0000F8B5164F0C227968C9
:10132000134E5143144A8A1839688C001159002809
:1013300002D0124E491C00E0491E1151BD683146D1
:101340002859FEF76CFF28513C68002C04D1314627
:101350006868FEF764FF686078680C2148430649B6
:101360004018A1004058002800DA4042F8BD0000B3
:101370002EBA683F58010020C8040020CDCC8C3F15
:1013800030B5002207239C1A6418203C855CE47F5A
:10139000A54201D0002030BD521C072AF3DB0120FA
:1013A00030BD0000F0B5CB48CA4900694B78CA4D42
:1013B000002487B0002862D00A46012866D00028A1
:1013C00001DA02F0D1F8C348806900287ED0C24813
:1013D00081784278080210434205A878520DC1086E
:1013E000E878430119434B05810928795B0D80009A
:1013F00001436879860231434905490D009141084E
:10140000A879C60131430609E879490507013E4339
:101410007605760D0196C609287A490D40000643E7
:10142000687A47023E437605760D02968608A87ACA
:1014300087013E437605760D0396EE7A4009F60065
:1014400030430490A8894005400D0590A148C0692B
:10145000002873D0012870D013E10E5C0F2E07D046
:10146000401C8006800E1070D06C401CD06409E0D7
:10147000907001201061906C401C9064A3E7964925
:10148000944AC03910788342E7D19CE791788B4227
:1014900001D9581A02E04020401AC018182892DBDF
:1014A00000230E4619360846B4461AE0C217920EBB
:1014B000121892099201861A874AC03AB218177810
:1014C000421AAF54844F7600803F00E0EBE0F619FB
:1014D00036880127BF02BE4202DD002A00DD01235B
:1014E000401C6045E2DB002B1CD17A4E0127B7611E
:1014F000E87D40070ED5306C002802D101F00EF8CF
:10150000306401F00BF8326C821A7448824203D9BD
:10151000B76201E03464B462E87D000701D5776208
:1015200000E074626B48297E41614178017004617A
:10153000016A491C016246E700E012E065480126A5
:1015400046608460FF27009D5137BD42C56B01DABC
:101550006D1CC563822D39DD056D1E2D35DDC6611F
:1015600086605F4812181D180E181046FEF7DEFE42
:101570005C4F38602846FEF7D9FE78603046FEF7AB
:10158000D5FE0025B860AE00B8595749FEF747FEB2
:101590006D1CB851032DF6DB0098AD38FEF7C6FE82
:1015A0005249FEF73CFE7F21C905F860884200DD04
:1015B000F9604F4D4F4EE87800282CD0287A00284B
:1015C000E87907D0002802D006E0C46359E04A4910
:1015D000386803E000280CD03146386801F042FF3B
:1015E00038603146786801F03DFF78604249B8685C
:1015F00007E0414E3868314601F034FF386031462B
:10160000B86801F02FFFB860354901984942884217
:101610000EDD01200DE03146386801F023FF38600F
:101620003146786801F01EFF78603449B868E8E711
:10163000002028700298884201DD012000E000208F
:10164000E8700398884201DD012000E00020287244
:101650000498884201DD012000E00020E87105982F
:10166000884201DD012000E00020A87000F056FF54
:1016700018494864086A092803DD0120C8600A2067
:10168000086200F04BFF134DA96B411A13488142C9
:1016900005D9686B6C63286500F040FFA863686B30
:1016A000AC61401C686300F039FF0A494A6C821A39
:1016B0000A48824202D90120C86201E02046CC6279
:1016C0008A6A10434A6A104300D00120486007B07C
:1016D000F0BD0000CC0100203006002040420F0089
:1016E0001FFCFFFF7C04002022F19F3AFFF01F3A0D
:1016F000AC030020CDCC4C3FCDCC0C3F9A99193F88
:1017000000B501F0D3FF00BDF0B57F208BB0C00560
:101710000490FA48807B002802D13F200006049004
:101720000025F74F2C46F748AE008059F649420095
:101730005208B8518A4201DCBC510FE00122D207A5
:10174000904204D87F22D2050023009203E0EF4AA2
:101750000023EF49009201F0FDFBB8516D1C032DF1
:10176000E1DB01F099FDE64D04982968FEF757FD8D
:10177000E84E3146FEF753FDE74F3946FEF74FFD81
:10178000019069680498FEF74AFD3146FEF747FD6F
:101790003946FEF744FD0290A9680498FEF73FFD24
:1017A000DE49FEF73CFD3946FEF739FD0390D3488C
:1017B000D34EC078DA4D0C3E002803D0D9480068DB
:1017C000002835D0D84801990160029941600399F9
:1017D00000278160BE00D448A9598059FEF717FD43
:1017E000C7497F1C0C398851032FF3DB01F068FED9
:1017F000002001F0F7FB012001F0F4FB022001F0D2
:10180000F1FBBE48C94B0278C948CA490127CA4EF4
:10181000002A7DD0BB4AD568C84A954202DD0A68D5
:10182000002A76D01A68012AFBD007600F604EE1CB
:101830000021B34802F0D6F8C14F03997868FEF74B
:10184000EEFC049001213868C90748400399FEF76F
:10185000E6FC0590B86803990746FEF7E0FC0690A1
:10186000B8480990B8480890B8480090A348B849CB
:10187000027AC079002A7DD0002814D003C947001D
:10188000490049087F0838460791FEF785FD00D9D1
:10189000079F08993846FEF775FD16D8384608990F
:1018A000FEF7FAFC13E00120C007874237D8A948A9
:1018B0000168A94801600020FFF744FC0499FEF785
:1018C00055FC2968FEF7A3FC4DE07F20C005089079
:1018D0008B480099006847007F083846FEF752FDA4
:1018E00005D838460099FEF7D7FC074601E07F2768
:1018F000FF0508990998FEF792FC00909748394631
:10190000FEF78DFC0099FEF731FC07468C4801E09C
:10191000D2E0D9E081680120C007814202D929685C
:101920000198CFE78B4801688B48016029680198CE
:10193000FEF76DFC3946FEF772FC00907F203946B9
:10194000C005FEF764FC07460020FFF7FBFB049987
:10195000FEF70CFC2968FEF75AFC3946FEF75FFCDF
:101960000099FEF703FC306069680298FEF74FFCAF
:10197000706000E005E0A9680698FEF748FCB060DA
:1019800034E700287AD07F200027C0050999FEF7A8
:101990003EFC0A906E4903C940004D006D084008A6
:1019A00006462946FEF7F8FC00D835462846089931
:1019B000FEF7E8FC04D828460899FEF76DFC01E024
:1019C0007F20C00507904E48BD0040590099460051
:1019D00076083046FEF7D6FC05D830460099FEF76B
:1019E0005BFC064601E07F26F60507990998FEF79D
:1019F00016FC079031460A98FEF711FC0799FEF78E
:101A0000B5FB06464E4881680120C007814206D9D1
:101A10004348415901A84059FEF7F9FB24E04D48DD
:101A200041594D4841513E48415901A84059FEF79E
:101A3000EEFB3146FEF7F3FB07907F203146C005F1
:101A4000FEF7E5FB06463846FFF77CFB04A949593B
:101A5000FEF78CFB32494959FEF7D9FB3146FEF7B8
:101A6000DEFB0799FEF782FB25497F1C0C394851A4
:101A7000012F8FDD2A48816817E0FFE700273548EE
:101A8000BE008159344881513846FFF75BFB04A9F9
:101A90008959FEF76BFBA959FEF7B9FB18497F1C62
:101AA0000C398851012FEADDA9680698FEF7AFFBD3
:101AB00013490C39886099E60460294800680128B8
:101AC00000D11C60F46153E0264A04601760F7619E
:101AD000006800284CD038004FD01C492846FEF73B
:101AE0009EFB2149FEF742FBB0611448854254DD5C
:101AF0001E48016800294FD04FE00000AC030020D1
:101B0000940200207C0400200AD7233C000080BF00
:101B10000AD723BC0000574435FA8E3C0000FA4334
:101B200058060020A80000203405002040010020B5
:101B3000500100205401002048000020CDCCCC3DB5
:101B4000E80000209A99993E00005C423333733FCD
:101B5000A00300207C060020300000203333333FF8
:101B6000D801002020010020CDCC4C3D4C010020AC
:101B7000CD48B46104600C600FE0CC498D4203DABB
:101B8000C948B461046008E02846FEF740FBC84934
:101B9000FEF745FBB061C4480760C64800790028DD
:101BA00019D0C549B461C54B0868984211D2C44ADE
:101BB00090420EDA486898420BD2904209DA88685F
:101BC000984206D2904204DAC868002801DD9042AB
:101BD00001DBBC480760BC480068002803D1BB4853
:101BE000B169814223DA7068002807D000F096FCC2
:101BF0007168401AB649884200D974600025E8B27D
:101C0000002101F0FFFB6D1C032DF8DDB14D00211B
:101C10002A46B14800F0D9FEAF482A460021001DEF
:101C200000F0D3FEB461376034620BB0F0BD002029
:101C3000306000F073FC7060A8480068002802D093
:101C4000A748C068B061A7480024006801283FD1B8
:101C5000A548A74D0168A548814205DAFEF7D7FAE5
:101C60002946FEF7DCFA0446A2480168A2488142F0
:101C700005DAFEF7CCFA2946FEF7D1FA04467F20B2
:101C8000C005844201DD044601E0002C07DD9B49CC
:101C90002046FEF7C4FA7169FEF768FA03E08B4943
:101CA0007069FEF7B4FA3F2109067061884201DDD0
:101CB000716105E00121C907884201D900207061E6
:101CC00020467169FEF752FAB169FEF7A4FAB061D5
:101CD0008B488C4F00680890002804D10121B86817
:101CE000C9074840B8603868009001467A4808380B
:101CF00080690646FEF78BFA09907D682946FEF753
:101D000086FABC682146FEF731FA07903046009902
:101D1000FEF72CFA06462946FEF779FA2146FEF729
:101D200076FA059029460998FEF720FA2146FEF733
:101D30006EFA069030462946FEF718FA2146FEF75D
:101D400015FA04900898002803D10120C0074440E8
:101D5000BC600020401C0328FCDD00205B4F0446D3
:101D600004AE0090A50070590099FEF715FB01D252
:101D70007059009070593946FEF704FB00D277592C
:101D8000641C042CEEDB7F21C9050098FEF73FFAA6
:101D90003F252D06A84200DD28464F4C083CA1688F
:101DA000FEF7FAFA04D25849A068FEF7DFF903E01B
:101DB0005649A068FEF72BFA444FA060A84201DD07
:101DC000A56003E05249884200D9A1604248012140
:101DD00008388068C907884200D94E484E49FEF746
:101DE0001EFA00280DDD3946FEF7C0F9074600242B
:101DF000A50070593946FEF70AFA641C7051042C8C
:101E0000F6DB2948006801281ED100252C46A700D2
:101E1000F0592946FEF7B6FA00D2F559641C042C95
:101E2000F5DB3E48854201D9054603E00120C007A5
:101E3000854209D90024A700F0592946FEF7E7F9A1
:101E4000641CF051042CF6DB0020234F0546083FAC
:101E50003862AC0015483159401E814201DB08460A
:101E600000E0305101F093F80146E8B201F0CAFAFF
:101E700030590121C907884202D90020305104E0BD
:101E80007F21C905884200DD31513159386AFEF79A
:101E90006DF96D1C3862032DDBDD0121C943FEF7AE
:101EA00039FA3862C1E600004C010020CDCC4C3D2F
:101EB0009932873FAC0300207C040020A4707DBFD2
:101EC000A4707D3F20010020D00100206F12833AD2
:101ED00040420F00EC51383F50000020B00000207D
:101EE000900300204401002008010020CDCC2C40AC
:101EF000000040400C0100203333534017B7D13865
:101F000048010020280500200AD7A33B0AD7233C1C
:101F1000CDCCCCBD17B7D1B8CDCCCC3DCDCC4CBE03
:101F200010B50020FFF7F8F910BD08B5C100081A78
:101F30000090411E009101D30846FAE708BD000059
:101F400006460024E0B2002101F05CFA641C032C78
:101F5000F8DD0B4DAF0000240CE0FF2000F018FD71
:101F60002846FFF7E2FFFF2000F008FD2846FFF7B4
:101F7000DCFF641CB442F0DB3846FFF7D6FFEAE72B
:101F8000400D030010B50349FEF7F0F800F004F827
:101F900010BD0000DB0FC93F70B50446134E144D51
:101FA00003E03146FEF7E2F80446AC42F9D8114DA1
:101FB000AC4204DD3146FEF72AF90446F8E7012079
:101FC000C0070D490D4D8442204605D9FEF727F97B
:101FD0002946FEF7CBF804E0FEF721F92946FEF783
:101FE0001AF92146FEF71BF970BD0000DB0FC9404E
:101FF000DB0F49C0DB0F49407B81CF3E83F9A23F15
:10200000FEB500273D460024681CFEF78FF90190BD
:102010000E49A8000E58601CFEF788F90090A10038
:1020200071580198FEF7FBF80099FEF7F8F8084997
:10203000FEF7F5F83946FEF799F8641C0746032CBD
:10204000E9DB6D1C032DDEDBFEBD0000C0010020BE
:102050008D976E3F10B5FFF7D3FF0149086010BDA3
:10206000A0000020F8B50020012400F0BBF8214DAD
:10207000A8423ED1FF2000F0B5F8A84239D1204651
:10208000022500F0B7F81C4948600968FEF77AF9A4
:1020900011D100260024B70028466D1C00F0AAF8D4
:1020A0001649A200C959641C8850032CF4DB761C25
:1020B000032EEFDB00E00B2528466D1C00F09AF89C
:1020C0000F4C206028466D1C00F094F86060284694
:1020D00000F090F8A060362000F08CF8FEF738F998
:1020E00008490860372000F085F8FEF731F9064905
:1020F0000860F8BD0100AA12A0000020C001002065
:10210000640600204401002048010020F8B500F0DA
:1021100075F800F055F800200124234901F030FD46
:10212000224920460225096800F06CF800260024A8
:10213000B7001F48A100C059415828466D1C00F047
:1021400061F8641C032CF4DB761C032EEFDB194CC6
:1021500028466D1C216800F055F86E1C2846616801
:1021600000F050F83046A16800F04CF812487F2487
:102170000068E405002801D0214600E00021362057
:1021800000F040F80D480068002801D0214600E02A
:102190000021372000F036F80349FF2001F0F0FC61
:1021A00000F01CF8F8BD00000100AA12A0000020F9
:1021B000C0010020640600204401002048010020E6
:1021C00010B50548FEF704FA042803D0FEF730FAEC
:1021D000012010BD002010BD007C000810B5FEF7E6
:1021E00027FA10BD024980004018006870470000BF
:1021F000007C000800B5FFF7F5FF00BD10B5FEF745
:1022000045FA10BD10B501F0BBFC10BD30B53F4C18
:102210002178814277D006216218203AD27F625419
:10222000491E0129F8DA207039493848FFF7A8F823
:102230007F25002802D06570032030BD3449334823
:10224000C91DFFF79DF8002802D06570042030BD3D
:102250002F492E480E31FFF793F8002802D0657001
:10226000012030BD2A4929481531FFF789F8002897
:1022700002D06570022030BD25492448C91FFFF7F0
:102280007FF8002802D06570092030BD20491F4822
:102290000E39FFF775F8002802D065700A2030BDAE
:1022A0001B491A481539FFF76BF8002802D06570F2
:1022B0000B2030BD164915481C31FFF761F8002886
:1022C00002D06570052030BD114910482331FFF759
:1022D00057F8002802D06570062030BD0C490B4825
:1022E0002A31FFF74DF8002802D06570072030BD75
:1022F000074906483131FFF743F8002803D06570DD
:10230000082030BDFFE70020FBE70000E0000020D0
:10231000B53B0008F8B500F07FF8040064D0012553
:10232000354F012C1ED13868002832D03348056063
:1023300000203860FFF7EAFEFFF794FE0020024617
:102340000C26034673432E4E00219B198E00491C18
:102350009A510329FADB401C0328F1DB00F0DEF878
:10236000284908600221284E0B2C17D00A2C1CD0BB
:102370002648042C21D0032C23D0072C00DB3D6001
:10238000052C23D0062C24D0072C2ED0082C2FD09F
:1023900022E000F0DDF8FEF715FECBE71C4A05E071
:1023A0001060081A30603D60E9E71A4A106800289A
:1023B00001D00020F4E70120F2E705710F48056025
:1023C0000AE00E490D600021017105E000F0EEFD0C
:1023D00001E000F0DDFD30603868002804D030688E
:1023E000002801D105480560F8BD00F061FAF2E768
:1023F000FFF796FDEFE70000CC0000202001002051
:10240000C80400203C01002024010020AC0300206F
:10241000480100204401002070B53748374C00685F
:10242000002864D0364B37481A6851004908814269
:102430000BDA9D686D006D08854206DA5D686D00F7
:102440006D08854201DA00202FE02F4DAA4202D804
:102450009E68AE4206D95E6876007608864201DA4A
:10246000012022E0294EB24202DC9A68B24206DD27
:102470005A6852005208824201DA022015E05A6876
:10248000AA4208D9814206DA9D686D006D0885422E
:1024900001DA032009E0B24208DD814206DA9968D8
:1024A00049004908814201DA0420206000F036F832
:1024B00006CC083C914200D0E060E268801A144AE1
:1024C00090420FD9002904D1124A904201D90C2020
:1024D00005E0114A904204D97F2903D0FF20A06073
:1024E00000E0A1606160A068FFF790FE70BD7F20F2
:1024F000A0606060002070BD48000020D000002077
:102500007C040020CDCC4C3E333333BF3333333FD8
:10251000A086010060AE0A0020A1070000B501F00E
:1025200015FB00BD1CB5232001214004FEF770F906
:1025300001216A46117100209071D0710320507101
:10254000009169460148FEF7C2F81CBD001400481E
:10255000F0B591B0FFF7E2FF0F9005460B900A909F
:1025600000208100574B0CAA5B58401C5350032895
:10257000F7DB8CE00A980A95281A099001D101200E
:10258000099006226946432000F0B4F800980199AA
:102590000002401800B2FDF7C9FE079002980399A7
:1025A0000002401800B2FDF7C1FE0690049805999C
:1025B0000002401800B2FDF7B9FE434E0890307893
:1025C00000F088F920464149FDF7AAFD40488142C4
:1025D00001D9012100E000213068C207D20F9142E9
:1025E00001D0401C3060384801780907090F0026E7
:1025F0000160B4000CAF06A839590059FDF7CCFEB4
:1026000004D238593349FDF7B1FD385106A839597C
:102610000059FDF7B7FE04D238592E49FDF7F7FDF2
:102620003851E0192C4900F0BDF938592B494000C8
:102630004008FDF79BFD014606AF385940004008B1
:10264000FDF7AAFE06D2FFF769FF0B901E48012195
:1026500001600BE00998FDF774FE214900F0F2F9E2
:10266000024618483959201800F0AFF9761C032E9D
:10267000BFDB7D24E400FFF751FF401BA04203D2E3
:102680000A20FFF752FCF6E7FFF748FF05460B98D4
:102690002C1A1448844205D20F981349281A8842EC
:1026A00000D267E70B98291A0E48814207D2002012
:1026B000044A01468300401CD1500328FADB11B0C4
:1026C000F0BD0000700600202002002024F400006D
:1026D000127A0000CDCCCC3D000048440000C84236
:1026E0000024F44880841E00C0E1E40010B501F02D
:1026F000D9F810BD13460A4610B50146682001F00E
:1027000014F9012010BD10B50146682001F0F4F85D
:1027100010BD0A4610B50146682001F02DF910BD24
:10272000F0B5494C494D87B021682868FDF76FFD29
:10273000286061686868FDF76AFD00240A27FF4386
:102740006860A600A8593946FDF7E4FD641CA8514D
:10275000032CF6DB3E480024006804AF00903D489F
:10276000A60080590099FDF75AFD641CB851032C4E
:10277000F5DB394E049834682146FDF750FDB16809
:10278000FDF749FD019001990498FDF748FD2146A8
:10279000FDF7ECFC074601990598FDF740FD7168CF
:1027A000FDF7E4FC044621460598FDF738FD019944
:1027B000FDF731FDB06021460698FDF730FD394642
:1027C000FDF729FD3060069A01461046FDF727FD0A
:1027D0002146FDF7CBFC70601C48FEF783FD1F49C6
:1027E0001F4A4118914222D27F22D205014600247D
:1027F0001046FDF751FD0090A700E959FDF70FFDC8
:10280000641CE851032C01DA0098F5E710483F21D9
:102810000906006800F028F907460024A00029589E
:1028200080193A4600F0D1F8641C032CF6DBB1683D
:102830003068FEF7EFFC0B4C2060B1687068FEF763
:10284000E9FC606007B0F0BD640600204C06002083
:102850003801002058060020E8000020CCCCCCC075
:1028600032337300A0030020F8B500250D4F00F0AF
:10287000A1FF0024A6000A21B859C943FDF74AFD6B
:1028800001460948094A301800F09FF8641C032CDF
:10289000F0DB7D20C000FFF748FB6D1C642DE6DBFC
:1028A000F8BD00004C060020E80000209A99593F2E
:1028B00010B50120FEF730FD10BD0EB500226B46AD
:1028C0001A805A8001911A819A726946FEF790F92E
:1028D0000EBD000070B50646FFF720FE194C2169B9
:1028E0002061451A3046FDF72CFD1749FDF797FC8E
:1028F00006460121204689070C3000F053F828468F
:10290000FDF71FFD054630466168FDF780FC29464E
:10291000FDF785FC0D49FDF782FCE168FDF726FC1B
:102920000B49E060884205DDFF2000F031F87F2090
:10293000C00503E0FF2000F021F8002060600020C7
:1029400070BD0000F40000208988883D6F12833A32
:1029500048E1FA3E70B50D460446FFF7DFFD21461B
:10296000FDF7DEFB6C432009814203D90F2000F004
:102970000FF870BD0F2000F001F870BD10B5C00752
:1029800003D001210148FDF7EAFE10BD0014004804
:1029900010B5C00703D001210148FDF7E2FE10BDCC
:1029A0000014004870B504460120C0070D4645409C
:1029B0000E462068FDF7F0FC00D22660284621680C
:1029C000FDF7EAFC00D2256070BD70B505460C46E7
:1029D0007F2016461146C005FDF719FC2146FDF77C
:1029E0001EFC044631462868FDF719FC2146FDF718
:1029F000BDFB286070BD0000F3B5104E104F8C0079
:102A000083B031597869FDF70AFC019030460C38E3
:102A1000055938692946FDF702FC0090B969039809
:102A2000FDF7FDFB0099FDF7A1FB0199FDF7EFFB19
:102A3000314635510C39085105B0F0BD6405002010
:102A40005801002010B5FDF727FC7F24E40521463E
:102A5000FDF7E1FBA04201DD204610BD0121C907C1
:102A60008842FAD9002010BD10B5FDF7D8FB7F24AD
:102A7000E4052146FDF7CFFBA04201DD204610BD55
:102A80000121C9078842FAD9002010BDF8B5164ABD
:102A900009018C1805462768A1686068FDF766FB88
:102AA0000090E168FDF762FB01467F20C005FDF75D
:102AB000F3FB0099FDF7B3FB064639462846FDF7C0
:102AC000A6FB3146FDF7ABFB3946FDF74FFB05464C
:102AD0007F203146C005FDF79AFB0099FDF79FFB6B
:102AE000256060602846F8BD18030020F8B5164A36
:102AF00009018C1805462768A1686068FDF736FB58
:102B00000090E168FDF732FB01467F20C005FDF72C
:102B1000C3FB0099FDF783FB064639462846FDF7BF
:102B200076FB3146FDF77BFB3946FDF71FFB05467B
:102B30007F203146C005FDF76AFB0099FDF76FFB6A
:102B4000256060602846F8BD480300200EB57D2052
:102B5000C000FFF7EAF9FEF7D3FDFFF7E3FCFF2023
:102B6000FFF716FF00F01CFF00F0DAFFE148FFF767
:102B7000DCF9FFF7BBFD00F0CBFB0021084600F0BD
:102B800041FC0021012000F03DFC0021032000F069
:102B900039FC0021022000F035FC00F0DFFD00F0E0
:102BA000CDFD002836D0FEF73FFAD34901208873C7
:102BB000FFF750FAFFF756FA00F0D4FCCF4E00248E
:102BC0000020FEF7A3FAB168FDF729FB05460120B6
:102BD000FEF79CFA0146CA4FC8483A460830FFF74C
:102BE000F4FE3A462946C548FFF7EFFEC548641C87
:102BF0008442E5DBC44D3068062400902046FDF792
:102C000095FB074601460098FDF746FBA84203DD09
:102C1000776104E0042037E0641E002CEEDC71696B
:102C20000098FDF739FBB949884201DA02202BE010
:102C3000FFF78EFC00F042FCFFF716FEB448006878
:102C4000002801D007201FE0FFF768FC7063FFF742
:102C500065FCAA4C0546606B281AFDF772FB2063E1
:102C6000002802DC7F20C0052063AA49FDF7D7FABF
:102C7000A9492063884201DD062005E0A448656378
:102C80000068142802DD0820FFF75AF900F092FDD1
:102C9000FEF73AFDFFF744FD0020FEF737FA974CA8
:102CA000A168FDF7BCFA06460120FEF72FFA01469F
:102CB000934F20463A460830FFF787FE97483A463A
:102CC000016820460C30FFF780FE95496069FDF7EA
:102CD000A6FA0190934A01A82168FFF776FE3A46CA
:102CE00031462046FFF771FE0121C9430198FDF7E7
:102CF00011FB06468C492068FDF791FA3146FDF735
:102D000086FA0090E4688948844256DD7B4F786AF1
:102D10000646FDF70BFB8549FDF781FA2146FDF7D5
:102D20007EFA0099FDF722FA7349B4007031085118
:102D30000646F86A002808D0002030398200401C7E
:102D40008E500C28FADB0020F8626B48784910306E
:102D50000059FDF764FA684F029040373959304600
:102D6000FDF755FA0299FDF701FA39463E5130391F
:102D700008510146FDF753FA3E4601466036A01958
:102D80006C4AFFF722FE5D485C49406A401C48627D
:102D90000C2812DB00204862306800240290A70053
:102DA000F0590299FDF7EEFA04D2F0590290534817
:102DB000611C8162641C0C2CF1DB504F38690028C7
:102DC00000D05A485C49FDF7D1F90646B86AFDF7CC
:102DD000ADFA564C2146FDF722FAF968FDF71FFAC5
:102DE0000099FDF7C3F93146FDF7CCFA03D35349F7
:102DF0003868884201DA012000E000203861B86AB2
:102E0000FDF794FA2146FDF70AFAF968FDF707FA8B
:102E10000099FDF7ABF9786049480068002801D0B7
:102E2000FFF778FA3869002801D0082108E0454802
:102E30000068002806D044480068002804D00F210C
:102E400042481EE00C211BE02B488079002807D067
:102E50000026B869002817D0386A002802D004E09C
:102E60000126F6E7FFF75AFB3862FFF757FB396A8E
:102E7000411A3648814202D90020B86138620821DF
:102E80001C48FFF767FD2BE0F86900281FD0FFF70B
:102E900045FB0446386A002809D13C62002E03D065
:102EA000FF20FFF76BFD02E0FF20FFF771FD386A9E
:102EB000211A2648814201D8386A04E0F869401E88
:102EC000F861002038622249201A884208D9002E71
:102ED00003D0FF20FFF75CFD02E0FF20FFF74EFD6F
:102EE000FEF760FA7D24E400FFF718FB401BA042C8
:102EF000FAD3ACE6A0860100AC0300200801002054
:102F0000492E7F3F88130000CDCC6C4033335340B3
:102F100074000020BD3786350AD7A33C6800002026
:102F20006666864029EA7F3F0000A03FCDCCCC3DBD
:102F300042F27C3F67B17F3F00006040CDCC2C4027
:102F400048000020D4010020D001002020A107006B
:102F5000E0930400FFB581B007460E4610460A9D77
:102F6000FDF755F9044628460499FDF750F9054642
:102F700031463846FDF74BF92946FDF750F9214611
:102F8000FDF78AF90499FDF7F1F805B0F0BD704737
:102F900005490868022804D001DA02200860401CB4
:102FA00070470020FAE70000580100200C494868EB
:102FB000002804D0012807D002280AD10BE00848D5
:102FC00044308860012003E00548503088600220CA
:102FD0004860401C70470248383088600020F7E79E
:102FE00058010020F0B506469E489F49C2789F4888
:102FF0009F4F0068B4008FB0002A03D0994A127A1C
:10300000002A11D0002803D03859FDF708F93851AB
:10301000022E1ADA964918310859C207401CD20FFD
:103020000851002A07D010E00028EDD1914800682F
:103030000028E9D0ECE78E4831464830005900F0CE
:10304000B1FC01468A480C3001518B4800250159DA
:1030500087483C300059FDF795F904D1874800595D
:10306000002800DD0125844801210059C907484096
:103070007F493C310959FDF785F906D17F4801594F
:103080000120C007814200D90125022E0BDA7848C1
:103090000C3001593C300059FDF7B9F8400078492F
:1030A0004008884227DC002D25D171480221543088
:1030B00005592846FDF72EF96D4960310959FDF78C
:1030C00055F86E4909590091FDF750F86D49FDF723
:1030D000A6F86D490959FDF7A2F86C490968FDF792
:1030E0009EF83959FDF742F8385161486030055172
:1030F0000C380099015160480C3001595C48201887
:10310000FFF750FC6048183007595C4839460059B1
:10311000FDF785F85C490C3909590091FDF77FF8F6
:10312000534D7F2101903C35C9053846FDF76FF8B6
:103130000099FDF774F8564909590391FDF76FF8A6
:103140000199FDF713F84A490959FDF70FF828517D
:103150004D480C3000590290002801DC285972E0DB
:1031600040480AA9827807A8002A06D0464A243A8D
:1031700012590251444A183A05E03D4A603A125940
:1031800002513B4A543A12590A5100597F22D20542
:103190000090904208590190014604AF104608DAA9
:1031A000FDF735F80D903B48019900594000400863
:1031B0000BE0FDF72CF80D9000990198FDF76CF8E5
:1031C00001463448005940004008FDF728F80D99A1
:1031D000FCF7CCFF38512648243001590398FDF7FD
:1031E00016F80299FDF71BF827494439C9690D9172
:1031F000FDF715F80E901E4830300159183002596D
:1032000001921046FDF703F80299FDF708F80099BE
:10321000FDF705F83959FDF702F80D99FCF7FFFFA6
:103220000E99FCF7F4FF1249019A30310A51104A05
:103230000399243211513146FFF7DEFB014628592C
:10324000FCF794FF285110494439C968FCF7E7FF9F
:103250002851094801596019FFF7A4FB28590FB0FC
:10326000F0BD0000AC03002048E17A3F4800002098
:10327000EC0400204C010020F03B000888020020F4
:10328000CDCCCC3D7EAA2A3E9C01002038010020F6
:103290005806002094020020F8B51448016814482C
:1032A000FCF7FAFF134CE06113480168134800680B
:1032B000FCF7F2FF7F25124EED0581223346D20541
:1032C00010490095FFF746FEE060B04201DDE66080
:1032D00002E0A84200DAE5600B48C078002804D07C
:1032E0000A49E068FCF79BFFE060F8BD3801002068
:1032F00017B7513B580100201C0100200801002095
:10330000713DAA3F00004040AC0300206666663F66
:10331000FEB5022569460D710320487100248C71A9
:10332000CC7101212846FDF77FFA314F31483946EB
:10333000FFF7C3FA01210E023046FDF775FA394650
:103340002D4F3846FFF7B9FA2C4860210180012142
:10335000418084810682846010200924E406009064
:1033600069462046FDF7B3F9042211462046FDF7D1
:10337000E6F922493846FDF783FB40200090694674
:103380002046FDF7A4F9012206212046FDF7D7F9D2
:103390001A491848FDF774FB8020009069462046C2
:1033A000FDF795F9012207212046FDF7C8F91349D9
:1033B0001048FDF7A3FB124C694620460095FDF727
:1033C00086F9012211462046FDF7B9F90B49094853
:1033D000FDF7DCFB01210748FDF73CFB0121054817
:1033E000FDF742FB01213846FDF734FBFEBD00002E
:1033F000CF0700000004004000200040040300202C
:103400000004004810B50A46044612491046FCF76D
:1034100006FFFCF79DFF002801DA002003E00E49BB
:10342000884200DD08460D49002C08D0012C09D047
:10343000022C0CD0032C01D180B2486310BD80B2A5
:10344000886310BD054980B24031086010BD80B26C
:103450000349F2E700E0F944CF0700000004004010
:1034600000200040F8B506467F20C0050C4681428A
:1034700001DD044603E010498C4200D90C46214688
:103480000746FCF7C4FE3146FCF7C9FE0546314647
:103490000846FCF7C4FE3146FCF7C1FE2146FCF7A6
:1034A000BEFE2946FCF762FE009039466846FFF7EB
:1034B00079FA0098F8BD0000000080BF7047000056
:1034C000FEB5254D254C2F68A66839463046FCF7D9
:1034D000A6FE234909680091FCF7A1FE6168FCF78C
:1034E0009AFE39460190FCF79AFE0099FCF797FE88
:1034F0003146FCF73BFE07466868029026680146A5
:103500003046FCF78CFE0099FCF789FE3946FCF743
:1035100082FEA0600299FCF782FE0099FCF77FFE14
:103520003146FCF723FEAD68064629460198FCF7B4
:1035300076FE0099FCF773FE3146FCF76CFE2946D7
:103540002060FCF76CFE0099FCF769FE0199FCF71E
:103550000DFE6060FEBD000058060020EC04002057
:10356000380100207047000030B589B0FEF7D6FF63
:103570002349884241D302206946087100248C7196
:10358000CC710320487108200925ED0600902846DB
:10359000FDF79DF8012203212846FDF7D0F801210F
:1035A0008803FDF74DF9174803900120400305906B
:1035B0000420154D079004940694089403A9284606
:1035C000FDF7B4FB0321012209042846FDF7FCFBAB
:1035D00001220E492846FDF794FB01212846FDF7FC
:1035E0007FFB1B20694608724C7201258D7202A870
:1035F000FDF7BCF806488560046109B030BD0000E5
:1036000080841E00A08601000038014005010500ED
:10361000CC010020012040020921C906886102492D
:1036200001208860704700007800002001204002DF
:103630000921C9068861034908810349002088607F
:103640007047000020000048780000200120034956
:10365000400208810249002088607047200000482D
:103660007800002010B5074C2068002801D100F038
:1036700057F8012080020921C90688610120606095
:1036800010BD00007800002010B5064C206800280E
:1036900001D100F045F80120034980020881002093
:1036A000606010BD78000020200000481B480168C1
:1036B00001221143016001688907FCD5416889082E
:1036C0008900416041680907890FFBD10168012227
:1036D00012069143016001688901FCD441683F23CF
:1036E0001B049943416041687B23DB03994341609C
:1036F00041680723DB0419434160016811430160FD
:1037000001688901FCD5416802221143416041688A
:103710000907890F0229FAD1704700000010024002
:1037200010B50549012008600C3108710920C00658
:10373000FCF7CDFF10BD00007800002010B575200B
:10374000FEF7E1FF682807D0982805D0782803D035
:10375000722801D0002010BD012010BD10B58021BD
:103760006B20FEF7D6FF1248FEF7DFFB01216B202E
:10377000FEF7CFFF7520FEF7C6FF682801D00124B1
:1037800000E000246420FEF7D0FB18211C20FEF787
:10379000C0FF002C03D005211D20FEF7BAFF182121
:1037A0001B20FEF7B6FF00211A20FEF7B2FF10BD66
:1037B000409C0000F0B593B00E2269463B20FEF716
:1037C00099FF009801990002401800B24042FCF7AE
:1037D000ADFD0746029803990002401800B22E4D35
:1037E0004042FCF7A3FD06460498059900024018E4
:1037F00000B2FCF79BFD0124E4076740A860C0C548
:10380000089809990002401800B2FCF78FFD11904A
:103810000A980B990002401800B2FCF787FD10903F
:103820000C980D990002401800B2FCF77FFD129031
:103830001C3529681098FCF7EAFC1090696811980B
:10384000FCF7E5FC1190A9681298FCF7E0FC1290D7
:10385000119810996040109008466040119012989D
:103860002F466040002410AE183F1290A5007059FA
:103870000A49FCF7D4FC0A49FCF7D1FC70512146F7
:10388000FFF704F978512146FFF730F9641C7851AD
:10389000032CEBDB13B0F0BD4C06002000007A3D9A
:1038A00035FA8E3CFEB50126B60201246846009624
:1038B00004718471C471032509274571FF066946A7
:1038C0003846FCF704FF6002009069463846FCF772
:1038D000FEFE08480021066001718471C4714571C3
:1038E0000C38416004608160FFF7BCFEFFF792FE78
:1038F000FEBD00008400002070B50D460446FDF7B3
:103900003BFB60000446FDF713FB2846FDF710FB68
:10391000FDF700FB601CFDF70BFB0120FDF7C0FA73
:10392000C4B2FDF73BFB204670BDFFB581B01D461C
:10393000164607460024FDF71FFB78000746FDF7F3
:10394000F7FA0298FDF7F4FAFDF7E4FA781CFDF7B0
:10395000EFFA6D1E05E00020FDF7A2FAA1007050FD
:10396000641CAC42F7DB0120FDF79AFAA10070500D
:10397000FDF714FB05B0F0BD70B515460E460446C4
:10398000FDF7FAFA6000FDF7D3FA3046FDF7D0FAFA
:103990002846FDF7CDFAC4B2FDF700FB204670BD06
:1039A0007047000070B50C4AC9008C180546606865
:1039B0000A492060FCF733FC064609492846FCF713
:1039C0002EFC3146FCF7D2FB6060226801461046AF
:1039D000FCF7CCFB70BD00007803002007715D3F51
:1039E000E23B8A3DF8B5474D044601682868FCF77C
:1039F000C9FC04D161686868FCF7C4FC55D0206834
:103A000028606068404E686031466068FCF707FCDB
:103A10003E4F3946FCF703FC054631462068FCF76B
:103A2000FEFB3946FCF7FBFB0646FEF7B5FA354CC4
:103A3000083420602846FEF7AFFA60602846FEF79B
:103A4000A1FA05463046FEF79DFA2946FCF7E7FB4A
:103A50000646A06060680146FCF7E1FB0546206869
:103A60000146FCF7DCFB2946FCF780FB28490546AC
:103A700088420FDD31460846FCF7D1FB7F21C9059E
:103A8000FCF7C9FB01462846FCF706FCFCF796FE4E
:103A9000054600E01F4D20682946FCF7C0FB20606A
:103AA00029466068FCF7BBFB6060164C1A4E083470
:103AB000A068009070680099FCF7B1FBB7680546F4
:103AC00061683846FCF7ABFB2946FCF7A0FB134DB9
:103AD000686030680099FCF7A2FB0646384621680A
:103AE000FCF79DFB3146FCF792FB7F24E405286040
:103AF00021462846FEF756FF2146281DFEF752FFB5
:103B0000F8BD0000240200200000824235FA8E3CFD
:103B10006F12833AF4FD343FE80000207C06002059
:103B200010B50848064941610749CA6903231202D2
:103B3000120A44042243CA6100218161036110BD5D
:103B4000FF117A0000E000E004ED00E00A4843695C
:103B500080690A494A68904201D2121A01E01B1A90
:103B60009A18486008681218D008C300D21A0A6070
:103B70008A6810188860704700E000E08C00002020
:103B8000064A10B580008018FCF75AFD042804D0BE
:103B9000FCF74EFD0520FEF7D3F910BD007C0008B0
:103BA0000C0300040003000C0100010001000C02E2
:103BB00000020002000C0100010003000C020002E0
:103BC0000003000C0300030003000C0400040004C5
:103BD000000C0400030004000C0400030003000CAC
:103BE0000400030002000C040003000100000000B8
:103BF0009A99D93F9A99D93F0000003F9A99D93FA5
:103C00009A99D93F0000003F2C3C0008000000209A
:103C10004802000054040008CC3C00084802002080
:103C200040080000480E000831D2FFFF2163204108
:103C30006340405AA008012E5A0104810546CDCCAC
:103C4000CC3D034E20C10318803F1C666686FC49AC
:103C50002049CC09142CA9E8A90C01141390012ABD
:103C60002048600D9ED8893F2173943E52215A3ED0
:103C70001AC05C29042F803F9A99993E04412DF681
:103C8000285C3E04198C5D3F3333B3243EC03FA40F
:103C9000703D043808CDCC0C3F7B146E042D666655
:103CA000663F601A9C043AA868E11AFF010144A02B
:103CB000097B14524185EB41411A809419FC2C0276
:0C3CC000030404050006070809000000CA
:04000005080000C926
:00000001FF
