:020000040800F2
:10000000300A0020C9000008EF0000087B07000844
:1000100000000000000000000000000000000000E0
:10002000000000000000000000000000F3000008D5
:100030000000000000000000F50000087D08000836
:10004000F9000008F9000008F9000008F9000008AC
:10005000F9000008F9000008F9000008F90000089C
:1000600000000000F9000008F9000008F90000088D
:10007000F9000008F9000008F9000008F90000087C
:10008000F90000080000000000000000F90000086E
:1000900000000000F9000008F9000008F90000085D
:1000A00000000000F900000800000000F90000084E
:1000B0000448854600F0C6F900F052F800480047B1
:1000C00085280008300A00200C4880F308880C4876
:1000D0000168090E0B4A914205D10B480B4901609A
:1000E0000B480C4901600C4880470C480047FEE76C
:1000F000FEE7FEE7FEE7FEE7FEE70000300A00202D
:10010000040000001F000000181002400100000061
:10011000000001400000000081080008B100000854
:1001200030B50B46014600202022012409E00D468F
:10013000D5409D4205D31D469540491B2546954017
:1001400040191546521E002DF1DC30BD0321001D63
:10015000401E037812021A43491EF9D51046704713
:1001600070B5054C054D03E0206800198047241D3B
:10017000AC42F9D170BD0000AC3C0008B03C0008B6
:10018000F8B502464A40D40F42004B0052085B08C3
:100190009A4202D20246084611464A0023D0C30DB5
:1001A0004A00DDB2120EAD1A202D35DA49020126C1
:1001B000490AF6058A19002C00D0524220214F1B13
:1001C0001146B9402A411018C20D9A4221D0002C84
:1001D00017D0012D08DCDA05801AD20F8019D2075A
:1001E000DBB200F0F5F8F8BDDA05801A0123400013
:1001F0001B06C01880185A428018CA0F10434900C5
:1002000007E04908C2071143DA05801A801940083F
:10021000801800F0D5F8F8BD61000122511A001BCA
:10022000F7E70122D2075140AAE70122D207504046
:10023000A6E7024670B54A40D30FDB0740002DD039
:100240004A002AD0010E140E000212020919400AB7
:10025000520A8418E50104465443000A120A2E0487
:100260005043A4194219200CC543AA18120C0125A9
:10027000AD03521C521912047F39240400D0521CC1
:10028000104301D44000491EC2B20C06C009201818
:10029000401C4008802A02D003E0002070BD4008C6
:1002A0004000002900DA0020184370BD70B50246F6
:1002B0004A40D50F40004A00ED0740085208002888
:1002C00014D0002A12D0C40DD30D41020120C00564
:1002D0005202490A520AE41A091812187D3491424E
:1002E00001D3641C00E04900002C01DA002070BD3D
:1002F0000023914201D3891A034340084900002892
:10030000F7D100290AD0914202D10121C90705E0A5
:10031000914201D2012101E00121C943E005C01849
:10032000401900F04DF870BD420005D04200120E99
:1003300052428A4201DB00207047C9050818704705
:10034000C217C10F504010B54018CA0796230021AC
:1003500000F03EF810BD10B500229623114600F0C3
:1003600037F810BDC20F410040020123400ADB05EF
:10037000D207090EC0187F2901DA0020704796299C
:1003800003DC9623591AC84001E096398840002AB8
:10039000F4D04042704700000122D207002800DB61
:1003A000101A002900DB511A814270470122D2073E
:1003B000002800DB101A002900DB511A8842704720
:1003C000002904DA401C490001D140084000704770
:1003D00070B40024050C05D11024000402D10029BA
:1003E00021D01124050E01D100020834050F01D1DE
:1003F0000001241D850F01D18000A41C002801DB11
:100400004000641C002908D020252E1B0D46F54015
:10041000A14000D001212943084301061B1B000A0B
:10042000DB1D02D5002070BC7047DB051818801852
:100430000029F8DA401C4900F5D170BC40084000A2
:1004400070470000064C0125064E05E0E36807CC26
:100450002B430C3C98471034B442F7D3FFF72CFEE3
:100460008C3C0008AC3C000870B58C180578401C2A
:100470006B075B0F01D10378401C2A1106D102786B
:10048000401C03E006780E70401C491C5B1EF9D12D
:100490002B0705D40023521E0DD40B70491CFAE71C
:1004A0000378401CCB1A921C03E01D780D70491C88
:1004B0005B1C521EF9D5A142D8D3002070BD836ABF
:1004C0000B438362426170470029816801D0012299
:1004D00000E002221143816070470029C16802D008
:1004E0000122114301E049084900C1607047C26818
:1004F00002239A43C260C2680A43C260704782689E
:1005000000210123DB071A4382600F231B0382684B
:10051000491CD20FD207994201D0002AF7D1816835
:10052000002901DB006C70470020704730B5C268BD
:10053000084B8C681A400B680D792343CC686D0317
:100540002C4323430C69496923430B431343C36082
:1005500030BD000003D2FFFF816804221143816097
:1005600070470021016001718160C16001614161DA
:10057000704700000122054992050028886801D0D3
:10058000104300E09043886070470000002701405E
:100590000029016802D00122114301E0014A114003
:1005A00001607047FEFF000030B503680C4A0C6A1A
:1005B00013408A684D6922430C692C4322438C699D
:1005C0002243CC6922434C6A22438C6A22431A4359
:1005D0000260CA6842600A6882604968C16030BDD2
:1005E0000F80FFFFF0B50B2706463F04384600F0AA
:1005F00067F804280FD1084C2069022528432061A0
:1006000066612069402108432061384600F058F8AF
:100610002169A9432161F0BD00200240084904205E
:10062000CA68D20701D001207047CA68D20601D536
:1006300002207047C9684907FBD5032070470000B6
:100640000020024002480169802211430161704785
:1006500000200240F8B5064600200B273F0400901A
:100660000D46384600F02CF8042815D10B4C2069B3
:100670000121084320613580384600F021F8042824
:1006800006D1B61C290C00963180384600F018F8C7
:100690002169490849002161F8BD0000002002409D
:1006A00004480169090603D50349416003494160D3
:1006B000704700000020024023016745AB89EFCD61
:1006C00000B50346FFF7AAFF02E0FFF7A7FF5B1E96
:1006D000012803D0002B00D1052000BD002BF4D150
:1006E000FAE7F0B50022032501230C6893401C4073
:1006F0009C422AD10C79012C01D0022C12D187689E
:1007000054002E46A640B74387604E79A6408468C1
:100710002643866084889C43848084888B799340B8
:100720001C438480066853002C469C40A643066008
:100730000E7907689E403E430660C668A643C660C1
:10074000CC799C40C3681C43C460521C102ACBD394
:10075000F0BD4B07DB0E9A40C90810B58900081898
:10076000016A0F249C40A1430162016A11430162A6
:1007700010BD0185704781617047052001F004FAC2
:1007800070B5FF2500210446AD05C943FFF7CCFD38
:1007900006460F4960100C1A21463046FFF749FD06
:1007A0002146FFF746FD2946FFF73FFD2146FFF7AB
:1007B00040FD044601463046FFF73BFD2146FFF76A
:1007C00038FD2946FFF731FD2146FFF732FD70BDA8
:1007D000DF59375F044A0029516901D0014300E025
:1007E000814351617047000000100240044A002913
:1007F000D16901D0014300E08143D161704700001D
:1008000000100240044A0029916901D0014300E030
:100810008143916170470000001002400CB5002038
:10082000009001901349112008601348416841600D
:100830004168416041687B22D20391434160416835
:100840000522D204114341600168012212061143BE
:10085000016001688901FCD541688908890041600F
:10086000416802221143416041680907890F02294A
:10087000FAD10CBD00200240001002407047000079
:1008800010B5144801680122114301604168124A01
:10089000114041600168114A114001600168012264
:1008A00092049143016041683F22120491434160E8
:1008B000C16A09090901C162016BFF2254329143E7
:1008C0000163416B49084900416300218160FFF7E2
:1008D000A5FF10BD001002400CB8FF08FFFFF6FE98
:1008E0000029018802D00122114301E04908490092
:1008F0000180704740300029818803D00122D20353
:10090000114301E04904490C8180704770B5028CA5
:10091000520852000284048C8288038B7025AB43FA
:100920009B080D889B001D4302239C438E894B88A6
:100930002643104C3343A04208D00F4CA04205D0B0
:100940000E4CA04202D00E4CA0420DD10824A3436D
:10095000CC891C4304239C438B882343094C2240AD
:100960000C8A14434A8A2243828005838968416342
:10097000038470BD002C0140004001400044014050
:1009800000480140FFFC000070B5028C10239A4320
:100990000284048C8288038B1A4D2B400D782D061F
:1009A0002D0C1D4320239C438B891B051E0C4B885B
:1009B00026431B051B0C144C3343A04202D0134E9C
:1009C000B04219D1124E32400E8AB604360C324370
:1009D000A04211D18024A343CC892405240C1C43BC
:1009E00040239C438B881B051B0C2343094C22404E
:1009F0004C8AA404240C2243828005838968816385
:100A0000038470BDFF8C0000002C014000400140B9
:100A1000FFFB0000FFF7000030B5028C124B1A40BC
:100A20000284058C8288838B104C23400C7824062A
:100A3000240C1C430E4B1D400B7B1B071B0C2B4334
:100A40008D782D072D0C1D430A4B984205D10A4B7A
:100A500013400A8A9205120C1A43828084838968A3
:100A60000164058430BD0000FFEF0000FF8C000032
:100A7000FFDF0000002C0140FFBF000010B502881E
:100A8000144B984206D00124A407A04202D0124C75
:100A9000A04203D17024A2434C8822430F4CA042B1
:100AA00003D00F4C22400C89224302804A68C26264
:100AB0000A880285984208D00A4A904205D00A4A1C
:100AC000904202D0094A904201D1897A01860121DF
:100AD000818210BD002C0140000400400010004045
:100AE000FFFC00000040014000440140004801407C
:100AF0000146034888600348C86008467047000004
:100B00000AD7A33C249A843D0146034888600348E1
:100B1000C8600846704700000AD7A33C249A843D69
:100B2000002101607047FFB581B01C4617460E00DA
:100B300007D0019D02E02846B047ED192046641E0B
:100B4000F9D2019805B0F0BD02E008C8121F08C133
:100B5000002AFAD170477047002001E001C1121F3E
:100B6000002AFBD17047000010B5032310220B4967
:100B70000B48FFF7D8FF0A480323102209493030F9
:100B8000FFF7D1FF08480021016005480323082230
:100B900006496030FFF7C7FF10BD0000F10A0008EA
:100BA00040030020090B0008A4000020210B0008CE
:100BB00070B5174D064668680024002801D102F080
:100BC00057FC2868002801D102F00AFD0722012302
:100BD00002F026FC00F01EF8002803D018469040D2
:100BE0002043C4B202F038FC521EF1D5002E02D0D0
:100BF00002F03EFC01E002F04DFC02F011FC02F0BC
:100C00002BFC6868002801D002F044FC204670BD2F
:100C1000780000200920C006008A012189020840CE
:100C20007047000010B505484068002801D102F067
:100C30001FFC02F0F5FB02F02DFC10BD7800002037
:100C400070B5104E0546B068012801D102F004FCD1
:100C5000072428462041C00702D002F009FC01E029
:100C600002F018FC02F0E8FB641EF2D57068002860
:100C700001D102F0FDFB02F0D3FB02F0EDFB3846A0
:100C800070BD00007800002010B5074A9068002869
:100C900001D102F0C5FB5068012803D1FFF7BAFF6C
:100CA00002F0F8FB10BD00007800002010B5084CE1
:100CB0006068012804D1A068002806D102F0EAFB90
:100CC000A068002801D102F0ABFB02F0D1FB10BDFF
:100CD00078000020F8B5154E45200006374600255F
:100CE000183FB06002F0C6FC0024A00039588019FB
:100CF0000F4A01F006FD641C032CF6DB01F094FAA8
:100D0000FF20F5306D1C8542ECDB45210906B068FB
:100D1000FFF787FA074D0024B060A000801929462C
:100D200001F0DCFC641C032CF7DBF8BD0C06002092
:100D30001F856B3F0000FA4370B592B02025032059
:100D40006946069508770024CC77092006A9C006D5
:100D5000FFF7C7FC01214802FFF754FD01210846B7
:100D6000FFF738FD2A4806902A480790022009908C
:100D700080200B9040000C90089480000E950D9000
:100D80000A94C000244D0F9006A910942846FFF73E
:100D90000BFC1F4E0221403E3046FFF7A8FB01210D
:100DA0003046FFF79AFB6846FFF7DBFB01206946F8
:100DB0000094087104200590029404943046FFF7D3
:100DC000B5FB0121072249043046FFF778FB0722D3
:100DD00020213046FFF773FB0120FFF7CBFB3046A5
:100DE000FFF78DFB01213046FFF76EFB3046FFF722
:100DF000B3FB01212846FFF7CBFB08480088FFF72B
:100E0000AAFA0749FFF715FA0249486012B070BD07
:100E1000402401406C00002008000240BAF7FF1F88
:100E20006EDB963F10B50B49002803D0012808D08F
:100E3000002010BD0888FFF78EFA0749FFF7F9F97F
:100E400010BD4888FFF787FA014602484068FFF75F
:100E50002DFA10BD6C0000203333B33AF0B5840096
:100E6000304887B005597F2168004008C9050290C5
:100E7000FFF7DBF906462946FFF7DBF92949303948
:100E800009680191FFF7D5F9059029460298FFF707
:100E9000D0F92449203909680091FFF7CAF90746BB
:100EA0002048083001592846FFF7BBF91D49049036
:100EB00028390968FFF7BDF93146FFF7BAF91A4931
:100EC00009680391FFF7B5F90599FFF759F9154935
:100ED000064610390851083904980968FFF7A9F93E
:100EE0000299FFF7A6F90399FFF7A3F93946FFF72F
:100EF00047F90C490839085101463046FFF740F9D7
:100F0000084E103630513046083805510099019886
:100F1000FFF736F90146A01901F0E0FB305907B0A0
:100F2000F0BD0000300000207C010020F8B505462F
:100F30000C46480000D1294C01210026C9078D42EA
:100F400003D94C404D408126F605002C09DC204693
:100F500048402C460546012189073046FFF710F925
:100F6000064621462846FFF721FA10D82146284692
:100F7000FFF757F9074621462846FFF701F90446CF
:100F80007F213D46C9053046FFF7FAF8064621465F
:100F90002846FFF78BF904461149FFF74AF9114932
:100FA000FFF7EEF82146FFF744F90F49FFF7E8F89D
:100FB0002146FFF73EF904460C493046FFF739F960
:100FC0002146FFF7DDF80A49884202DD0949FFF7AB
:100FD00028F90949FFF72DF9F8BD0000567C0A2AC7
:100FE0004BC887BD7EAE36BE42DA833FDB0F493F3A
:100FF000DB0F4940DB0FC940E12E654270B5184C4C
:10100000E06B002804D00025012809D0E56370BDFD
:101010000120A06202F050FAE06B401CE06370BD5A
:10102000172002F0C2FDC00608D58F21002002F073
:10103000E1FDE563A56201F083FE70BD01F0F4F807
:10104000E16C401A07498842F7D9E12002F08CFD93
:101050008F21002002F0CEFDE563A56270BD000087
:10106000D40100201027000070B51A4C002802D0CF
:10107000012800D0184C8100184841580029084622
:1010800002DC0122D207504006461548FFF7D1F88E
:101090000546600015D021463046FFF7CAF87F2488
:1010A000E4052146FFF7C1F822460E4900F07CF91D
:1010B00001462046FFF7FAF801462846FFF7B9F83F
:1010C0000546094A0949284600F06EF90849FFF724
:1010D000B0F870BD3333333F9A99193FBC020020FA
:1010E000000096430AD7233C00C0F94400C0F9C46D
:1010F00035FA8E3C70B5002506462C46A0003058C7
:101100000146FFF796F82946FFF73AF8641CE4B267
:101110000546032CF2D3FFF733FB01467F20C005C1
:10112000FFF7C4F870BD0000F8B5164F0C227968BF
:10113000134E5143144A8A1839688C0011590028FB
:1011400002D0124E491C00E0491E1151BD683146C3
:101150002859FFF76EF828513C68002C04D131461D
:101160006868FFF766F8686078680C2148430649AC
:101170004018A1004058002800DA4042F8BD0000A5
:101180002EBA683F6001002010050020CDCC8C3FB6
:1011900030B5002207239C1A6418203C855CE47F4C
:1011A000A54201D0002030BD521C072AF3DB0120EC
:1011B00030BD0000FEB5072002F0F7FC0007400F2D
:1011C0000026072801D0022000E0304601246D4DA2
:1011D000002869D0E86800281DD001F025F80746EE
:1011E0000F21694802F0CBFC00F042FC002853D0EC
:1011F000686C401C68646868002801D0FFF7FEFE38
:101200002E636E6328692F656F65EE62E865A86AD4
:1012100000283FD040E00F215B4802F0B0FC5A4B61
:101220001868A42801D0A3283ED1A32802D157488A
:101230006C6068625348197E40300170197F4170BC
:10124000198C8170998CC17051494E4F8868C9685A
:1012500000900120019160378100595C6A46115469
:101260003A18203A401CD1770628F5DB062168465B
:1012700002F058FC3020694608700621684602F0EA
:1012800051FC404829694030415C252002F0B2FC05
:10129000EC6009E001F054FDA869401CA861092830
:1012A00002DD0A206C61A861A86A002801D0FFF75E
:1012B000A5FE00F0B9FF0746286D391A686A82005A
:1012C0007D20C000101881420BD9E868002808D0A2
:1012D0002F65686B002801D1E86D286101F030FDB1
:1012E0006C63A96A686B084319D1286B00900528C4
:1012F00015D2E868002812D0286D7D21381AC9005F
:1013000088420CD9696AFEF70BFF01460098401C21
:10131000814204D301F014FD286B401C2863686DE2
:10132000391A1C48814206D91B48EC6206604660A7
:101330008660C66002E0E86A002803D0286A0028B8
:1013400002D011E02C620FE0E8691449381A884293
:101350000AD90C48EE60062171302C6202F0E2FBE3
:101360000021052002F046FC00F05EFFA96D411A45
:101370000848814205D9686C6E64A86400F054FF87
:10138000A865FEBDD4010020B80500208813000028
:101390007C3C000840420F00A4040020C0E1E400AF
:1013A00000B502F0E3F800BD70B514460D460646E0
:1013B000FEF7F2FF01D2284670BD21463046FEF707
:1013C000F5FF01D2204670BD304670BDF0B57F25D7
:1013D00089B0ED05F9480195C07B002802D13F2076
:1013E0000006019000263446F548B700C059F54B79
:1013F0004200F5495208D8518A4201DCDC510FE025
:101400000122D207904203D82A460023009503E028
:10141000EE4A0023EE49009201F038FCE949C85138
:10142000761C032EE0DB01F005FE0020FFF71CFE1A
:101430000199FEF7FEFE06460120FFF715FE019911
:10144000FEF7F7FE06900220FFF70EFE0199FEF769
:10145000F0FE0746D9480078002803D0DD48006830
:10146000002851D0DC48066006998760002641605C
:10147000DA48B700C159D848C059FEF7D2FED14961
:10148000761C0C39C851032EF2DB01F0E7FE002078
:1014900001F076FC012001F073FC022001F070FCE9
:1014A000C648CF4B8279CF48CF490127002A75D053
:1014B000C34AD668CD4A964202DD0A68002A6ED039
:1014C0001A68012AFBD007600F60BC4AC84E927BA5
:1014D000002A7DD0F761006800287AD0F0690028E2
:1014E000B748C06876D0C3490090FEF7A2FEC24953
:1014F000FEF746FEB061BD490098884203DDBF4853
:101500000168002967D0D7E00021AE4802F03CFA1C
:10151000BB4839464068FEF78CFE0090B848012170
:101520000068C90748403946FEF783FE0190B44879
:1015300039468068FEF77DFE0290B2480590B248B9
:101540000490AC4807909D48C07B00287AD0AF49F2
:1015500003C94700490049087F0838460391FEF750
:1015600025FF00D9039F04993846FEF715FF05D8DB
:1015700038460499FEF79AFE049000E004959148DD
:101580000799006847007F083846FEF705FF07D82F
:1015900038460799FEF78AFE074602E06AE071E0E6
:1015A0002F4604990598FEF744FE03909848394663
:1015B000FEF73FFE0399FEF7E3FD03909048816834
:1015C0000120C00781420AD9844F3046396803E0C0
:1015D0005CE05DE061E06EE0FEF723FE20E08D4818
:1015E0007E4F01688C48016030463968FEF719FE6D
:1015F0000399FEF71EFE064628460399FEF711FEE4
:1016000003900020FFF72AFC0099FEF7B9FD396826
:10161000FEF707FE0399FEF70CFE3146FEF7B0FD1C
:10162000684E0C3E306079680698FEF7FAFD7060EF
:101630006A4881680298FEF7F4FD62490C398860B7
:1016400023E7FFE700277348BE00815972488151A4
:101650003846FFF703FC69468959FEF791FD5F495B
:101660008959FEF7DEFD57497F1C0C398851012F3F
:10167000E9DDDDE7694A04601268012A00D024E749
:101680001C6022E7664A046017601EE7F46122E7E7
:101690005A48B46104600C600EE05749884203DA8E
:1016A0005648B461046007E0FEF7BBFD5D49FEF7F4
:1016B000C0FDB0615148076040480079002819D04A
:1016C0003F4AB46158491068884211D2574B98423A
:1016D0000EDA506888420BD2984209DA9068884244
:1016E00006D2984204DAD068002801DD984201DB76
:1016F0004B4807604E480068002803D14D48B16947
:10170000814224DA7068002807D000F08DFD7168EE
:10171000401A4949884200D974600025E8B2002186
:1017200001F03EFD6D1C032DF8DD444D30482A4686
:101730000021083000F0E5FF2D482A4600210C303A
:1017400000F0DFFFB4613760346209B0F0BD002003
:10175000306000F069FD706039480068002802D0F0
:101760003848C068B061384800240068012824D196
:101770003648384F01683648814205DAFEF751FD98
:101780003946FEF756FD0446334801683348814226
:1017900005DAFEF746FD3946FEF74BFD0446AC423E
:1017A00001DD2C4601E0002C5CDD2D492046FEF7D2
:1017B00040FD7169FEF7E4FC58E06CE0D4030020C2
:1017C000A4040020BC0200200AD7233C000080BFF4
:1017D0000AD723BCB40000207C05002000060020AE
:1017E0004C010020580100205C010020CDCCCC3DF4
:1017F000480000203333733FCDCC4C3D54010020D2
:10180000F40000209A99993E00005C42C803002031
:101810003333333F2406002030000020E80100204D
:101820002C0100209932873FA4707DBFA4707D3FBA
:10183000000200206F12833A40420F00EC51383F03
:10184000BC000020B803002050010020140100203B
:10185000CDCC2C40000040401801002033335340D1
:1018600017B7D13877497069FEF7DBFC3F210906CD
:101870007061884201DD716105E00121C90788427C
:1018800001D90020706120467169FEF779FCB169C9
:10189000FEF7CBFCB0616C4C2068049001466B48AD
:1018A00080690746FEF7BDFC059066683146FEF785
:1018B000B8FCA4682146FEF763FC039038460499FF
:1018C000FEF75EFC07463146FEF7ABFC2146FEF70D
:1018D000A8FC019031460598FEF752FC2146FEF720
:1018E000A0FC029038463146FEF74AFC2146FEF73E
:1018F00047FC00900020401C0328FCDD00200490E1
:10190000504800246E460590A700F0590499FEF750
:101910004DFD01D2F0590490F0590599FEF73CFDB8
:1019200001D2F0590590641C042CEDDB7F21C90520
:101930000498FEF776FC3F252D06A84200DD2846D8
:10194000424CA168FEF732FD04D24149A068FEF77F
:1019500017FC03E03F49A068FEF763FC394FA06025
:10196000A84201DDA56003E03B49884200D9A1609F
:10197000364801218068C907884200D9374838496C
:10198000FEF757FC00280DDD3946FEF7F9FB074648
:101990000024A50070593946FEF743FC641C7051C1
:1019A000042CF6DB2F48006801281ED100252C46A8
:1019B000A700F0592946FEF7EFFC00D2F559641C48
:1019C000042CF5DB2848854201D9054603E00120B7
:1019D000C007854209D90024A700F0592946FEF71F
:1019E00020FC641CF051042CF6DB0020174F054648
:1019F0003862AC0031591D48814201DB084600E0E5
:101A0000305101F071F90146E8B201F0C9FB3059DB
:101A10000121C907884202D90020305104E07F210A
:101A2000C905884200DD31513159386AFEF7A8FBFB
:101A30006D1C3862032DDCDD0121C943FEF774FC07
:101A4000386282E66F12833A700500204800002059
:101A50000AD7A33B0AD7233CCDCCCCBD17B7D1B80E
:101A6000CDCCCC3D54010020CDCC4CBECCCC4C3D9B
:101A7000F8B5374D2868A52868D1002108468200AE
:101A8000AA58401C51180E28F9DBC8B2A96B88422D
:101A90005CD12F48103001F063F92E4E30602C4895
:101AA000183001F05DF970602948283001F058F9CC
:101AB000B060288C696A8007800D4018FEF740FCF2
:101AC0002549FEF7B6FBF060297B244C0806C00FC1
:101AD000A071A868C206D20FE2718206D20F2272EC
:101AE0008A06D20F4907E272C90FA1720107CA0F15
:101AF00022706968FA2927D0002161708107C90F17
:101B0000C007C00F3F25A1702D06E070002A00D04D
:101B1000E07B2946306801F073FB3060294670682D
:101B200001F06EFB706000200D4B0E4D0746012644
:101B30001F542A5C215C8A4200D01E542954401C48
:101B40000E28F5DB0120F8BD0121D6E70020F8BD05
:101B5000B8050020A4040020F7FF7F3AD40300203A
:101B6000C4040020B404002010B50020FFF7DCFA04
:101B700010BD08B5C100081A0090411E009101D3A4
:101B80000846FAE708BD000006460024E0B200213E
:101B900001F006FB641C032CF8DD0B4DAF000024A4
:101BA0000CE0FF2000F088FD2846FFF7E2FFFF2051
:101BB00000F070FD2846FFF7DCFF641CB442F0DB48
:101BC0003846FFF7D6FFEAE7400D030010B503499A
:101BD000FEF7D6FA00F004F810BD0000DB0FC93F95
:101BE00070B50446134E144D03E03146FEF7C8FAB3
:101BF0000446AC42F9D8114DAC4204DD3146FEF743
:101C000010FB0446F8E70120C0070D490D4D844242
:101C1000204605D9FEF70DFB2946FEF7B1FA04E090
:101C2000FEF707FB2946FEF700FB2146FEF701FB06
:101C300070BD0000DB0FC940DB0F49C0DB0F49401E
:101C40007B81CF3E83F9A23FFEB500273D460024AD
:101C5000681CFEF775FB01900E49A8000E58601C29
:101C6000FEF76EFB0090A10071580198FEF7E1FAB3
:101C70000099FEF7DEFA0849FEF7DBFA3946FEF76F
:101C80007FFA641C0746032CE9DB6D1C032DDEDBA9
:101C9000FEBD0000C80100208D976E3F10B5FFF714
:101CA000D3FF0149086010BDAC000020F8B500204A
:101CB000012400F015F93B4DA84272D1FF2000F03D
:101CC0000FF9A8426DD12046022500F011F93649DE
:101CD00048600968FEF760FB11D100260024B700B8
:101CE00028466D1C00F004F93049A200C959641C53
:101CF0008850032CF4DB761C032EEFDB00E00B2571
:101D000028466D1C00F0F4F8294C6E1C2060284613
:101D100000F0EEF86060304600F0EAF8A060342091
:101D200000F0DEF8002203461146CC0018462041A0
:101D3000C0B27F2800D90122491C0429F5DB002A02
:101D400028D11C49012008601B490860322000F09E
:101D5000C7F81A4C2071322000F0C2F81849000A66
:101D60000860332000F0BCF802460021CB0010468A
:101D700018416054491C0429F8DB342000F0B0F805
:101D8000104A03460021CC00184620415054491CFB
:101D90000429F8DB362000F0ABF8FEF7E3FA0A4935
:101DA0000860F8BD0100AA12AC000020C8010020A4
:101DB0000C06002054020020DC0100203402002028
:101DC000D80100201402002050010020F8B500F0D6
:101DD00093F800F073F8002001242F4901F0B4FEBD
:101DE0002E4920460225096800F08AF800260024C2
:101DF000B7002B48A100C059415828466D1C00F07F
:101E00007FF8641C032CF4DB761C032EEFDB254CDF
:101E100028466D1C216800F073F86E1C2846616826
:101E200000F06EF83046A16800F06AF81E480068BD
:101E300000281FD01E481D4C006821790002014374
:101E4000322001F081FE2046FEF780F90102E078A1
:101E5000090A00060143332001F076FE1548FEF71B
:101E600075F901021348090AC078000601433420BD
:101E700001F06AFE10480068002802D07F21C905E1
:101E800000E00021362000F03BF80349FF2001F07C
:101E90005BFE00F021F8F8BD0100AA12AC000020A2
:101EA000C80100200C06002054020020340200204B
:101EB000D8010020140200205001002010B5054870
:101EC000FEF790FB042803D0FEF7BCFB012010BDF9
:101ED000002010BD007C000810B5FEF7B3FB10BD5C
:101EE000024980004018006870470000007C00082C
:101EF00000B5FFF7F5FF00BD10B5FEF7D1FB10BD33
:101F000010B501F021FE10BD30B53F4C2178814263
:101F100077D006216218203AD27F6254491E0129E7
:101F2000F8DA207039493848FFF732F97F25002860
:101F300002D06570032030BD34493348C91DFFF716
:101F400027F9002802D06570042030BD2F492E48A3
:101F50000E31FFF71DF9002802D06570012030BD59
:101F60002A4929481531FFF713F9002802D0657076
:101F7000022030BD25492448C91FFFF709F9002870
:101F800002D06570092030BD20491F480E39FFF787
:101F9000FFF8002802D065700A2030BD1B491A489E
:101FA0001539FFF7F5F8002802D065700B2030BD19
:101FB000164915481C31FFF7EBF8002802D0657070
:101FC000052030BD114910482331FFF7E1F8002802
:101FD00002D06570062030BD0C490B482A31FFF74E
:101FE000D7F8002802D06570072030BD07490648A1
:101FF0003131FFF7CDF8002803D06570082030BDDF
:10200000FFE70020FBE70000EC0000202B3C00086D
:10201000F8B500F087F804006DD00125394F012C88
:102020001ED13868002832D037480560002038605B
:10203000FFF7CCFEFFF73AFE002002460C260346CF
:102040007343324E00219B198E00491C9A5103297B
:10205000FADB401C0328F1DB00F0E6F82C490860AD
:1020600002212C4E022C17D00A2C21D02A48042CF5
:102070002AD0032C2CD0072C00DB3D60052C2CD063
:10208000062C2DD0072C37D0082C38D02BE000F0B0
:10209000EBF8FEF71FFECBE7204A1068002805D0BA
:1020A00000201060081A30603D601FE00120F8E752
:1020B0001B4A1068002805D000201060081A306004
:1020C0003D60DAE70120F8E705710F4805600AE096
:1020D0000D490D600021017105E000F015FE01E0E1
:1020E00000F004FE30603868002804D03068002812
:1020F00001D105480560F8BD00F066FAF2E7FFF788
:1021000033FDEFE7D80000202C010020100500204F
:102110004801002030010020D40300205402002098
:102120005001002070B53748374C0068002864D053
:10213000364B37481A685100490881420BDA9D68CE
:102140006D006D08854206DA5D686D006D08854298
:1021500001DA00202FE02F4DAA4202D89E68AE423D
:1021600006D95E6876007608864201DA012022E010
:10217000294EB24202DC9A68B24206DD5A68520029
:102180005208824201DA022015E05A68AA4208D9B0
:10219000814206DA9D686D006D08854201DA0320F0
:1021A00009E0B24208DD814206DA9968490049082F
:1021B000814201DA0420206000F036F806CC083CA9
:1021C000914200D0E060E268801A144A90420FD930
:1021D000002904D1124A904201D90C2005E0114A8D
:1021E000904204D97F2903D0FF20A06000E0A160C5
:1021F0006160A068FFF788FE70BD7F20A06060600E
:10220000002070BD48000020DC000020A404002055
:10221000CDCC4C3E333333BF3333333FA086010044
:1022200060AE0A0020A1070000B501F061FC00BD0E
:102230001CB5232001214004FEF7CCFA0120694699
:10224000087100208871C871032048710420092496
:10225000E40600902046FEF744FA08210091694602
:102260002046FEF73EFA1CBDF0B591B0FFF7DCFF4B
:102270000F9005460B900A9000208100574B0CAA46
:102280005B58401C53500328F7DB8CE00A980A95F2
:10229000281A099001D1012009900622694643209D
:1022A00000F0B4F8009801990002401800B2FEF75F
:1022B00047F80790029803990002401800B2FEF711
:1022C0003FF80690049805990002401800B2FEF706
:1022D00037F8434E0890307800F088F9204641499D
:1022E000FDF71EFF4048814201D9012100E0002195
:1022F0003068C207D20F914201D0401C306038488C
:1023000001780907090F00260160B4000CAF06A888
:1023100039590059FEF74AF804D238593349FDF7C4
:102320002FFF385106A839590059FEF735F804D265
:1023300038592E49FDF775FF3851E0192C4900F046
:10234000CDF938592B4940004008FDF719FF0146E7
:1023500006AF385940004008FEF728F806D2FFF7CC
:1023600063FF0B901E48012101600BE00998FDF707
:10237000F2FF214900F002FA0246184839592018A4
:1023800000F0BFF9761C032EBFDB7D24E400FFF7CD
:102390004BFF401BA04203D20A20FFF7EAFBF6E7FF
:1023A000FFF742FF05460B982C1A1448844205D2C9
:1023B0000F981349281A884200D267E70B98291A08
:1023C0000E48814207D20020044A01468300401C87
:1023D000D1500328FADB11B0F0BD00001806002030
:1023E0005802002024F40000127A0000CDCCCC3D2D
:1023F000000048440000C8420024F44880841E00C5
:10240000C0E1E40010B501F0ABF910BD13460A4677
:1024100010B50146682001F0E6F9012010BD10B5A5
:102420000146682001F0C6F910BD0A4610B5014604
:10243000682001F0FFF910BDF0B5494C494D87B057
:1024400021682868FDF7EDFE286061686868FDF77F
:10245000E8FE00240A27FF436860A600A859394611
:10246000FDF762FF641CA851032CF6DB3E480024F4
:10247000006804AF00903D48A60080590099FDF720
:10248000D8FE641CB851032CF5DB394E049834682F
:102490002146FDF7CEFEB168FDF7C7FE0190019918
:1024A0000498FDF7C6FE2146FDF76AFE074601992E
:1024B0000598FDF7BEFE7168FDF762FE04462146F1
:1024C0000598FDF7B6FE0199FDF7AFFEB060214615
:1024D0000698FDF7AEFE3946FDF7A7FE3060069A76
:1024E00001461046FDF7A5FE2146FDF749FE706046
:1024F0001C48FEF7FFFD1F491F4A4118914222D296
:102500007F22D205014600241046FDF7CFFE009041
:10251000A700E959FDF78DFE641CE851032C01DA90
:102520000098F5E710483F210906006800F038F9E7
:1025300007460024A000295880193A4600F0E1F827
:10254000641C032CF6DBB1683068FEF7EFFC0B4C23
:102550002060B1687068FEF7E9FC606007B0F0BD0C
:102560000C060020F4050020440100200006002095
:10257000F4000020CCCCCCC032337300C803002060
:10258000F8B500250D4F01F075F80024A6000A21CA
:10259000B859C943FDF7C8FE01460948094A301831
:1025A00000F0AFF8641C032CF0DB7D20C000FFF7C7
:1025B000E0FA6D1C642DE6DBF8BD0000F405002098
:1025C000F40000209A99593F10B50120FEF7ACFDA8
:1025D00010BD0EB500226B461A805A8001911A81F7
:1025E0009A726946FEF74AFA0EBD000070B50646BB
:1025F000FFF71AFE194C21692061451A3046FDF794
:10260000AAFE1749FDF715FE064601212046890757
:102610000C3000F063F82846FDF79DFE0546304675
:102620006168FDF7FEFD2946FDF703FE0D49FDF744
:1026300000FEE168FDF7A4FD0B49E060884205DD7E
:10264000FF2000F039F87F20C00503E0FF2000F0F4
:1026500021F800206060002070BD00000001002013
:102660008988883D6F12833A48E1FA3E70B50D467D
:102670000446FFF7D9FD2146FDF752FD6C432009C2
:10268000814203D90F2000F017F870BD0F2000F031
:1026900001F870BD70B50446064DC00703D0042193
:1026A0002846FEF768F8A00703D508212846FEF75C
:1026B00062F870BD0000004870B50446064DC007C2
:1026C00003D004212846FEF754F8A00703D50821BB
:1026D0002846FEF74EF870BD0000004870B504466D
:1026E0000120C0070D4645400E462068FDF75EFEFE
:1026F00000D2266028462168FDF758FE00D22560EA
:1027000070BD70B505460C467F2016461146C005C3
:10271000FDF787FD2146FDF78CFD0446314628680C
:10272000FDF787FD2146FDF72BFD286070BD0000F9
:10273000F3B5104E104F8C0083B031597869FDF716
:1027400078FD019030460C38055938692946FDF767
:1027500070FD0090B9690398FDF76BFD0099FDF7D6
:102760000FFD0199FDF75DFD314635510C390851DA
:1027700005B0F0BDAC0500206001002010B5FDF7EC
:1027800095FD7F24E4052146FDF74FFDA04201DDC4
:10279000204610BD0121C9078842FAD9002010BD8A
:1027A00010B5FDF746FD7F24E4052146FDF73DFD0C
:1027B000A04201DD204610BD0121C9078842FAD997
:1027C000002010BDF8B5164A09018C180546276887
:1027D000A1686068FDF7D4FC0090E168FDF7D0FCCB
:1027E00001467F20C005FDF761FD0099FDF721FD41
:1027F000064639462846FDF714FD3146FDF719FD1A
:102800003946FDF7BDFC05467F203146C005FDF782
:1028100008FD0099FDF70DFD256060602846F8BDB4
:1028200040030020F8B5164A09018C1805462768B0
:10283000A1686068FDF7A4FC0090E168FDF7A0FCCA
:1028400001467F20C005FDF731FD0099FDF7F1FC41
:10285000064639462846FDF7E4FC3146FDF7E9FC1B
:102860003946FDF78DFC05467F203146C005FDF752
:10287000D8FC0099FDF7DDFC256060602846F8BDB6
:10288000700300200EB57D20C000FFF772F9FEF73F
:1028900087FDFFF7CDFCFF20FFF70EFF00F0EAFFFA
:1028A00001F010F9E148FFF764F9FFF7ABFD00F024
:1028B000FDFB0021084600F073FC0021012000F020
:1028C0006FFC0021032000F06BFC0021022000F0CF
:1028D00067FC00F0A3FE00F091FE002836D0FEF762
:1028E0002BFAD34901208873FFF7D8F9FFF7DEF9F7
:1028F00000F006FDCF4E00240020FEF793FAB168E9
:10290000FDF797FC05460120FEF78CFA0146CA4FF9
:10291000C8483A460830FFF7F4FE3A462946C5480B
:10292000FFF7EFFEC548641C8442E5DBC44D306808
:10293000062400902046FDF703FD07460146009857
:10294000FDF7B4FCA84203DD776104E0042037E022
:10295000641E002CEEDC71690098FDF7A7FCB949F4
:10296000884201DA02202BE0FFF77EFC00F074FCC5
:10297000FFF706FEB4480068002801D007201FE0DA
:10298000FFF752FC7063FFF74FFCAA4C0546606BE3
:10299000281AFDF7E0FC2063002802DC7F20C00538
:1029A0002063AA49FDF745FCA9492063884201DD5F
:1029B000062005E0A44865630068142802DD0820AD
:1029C000FFF7E2F800F056FEFEF700FDFFF734FDDA
:1029D0000020FEF727FA974CA168FDF72AFC06466F
:1029E0000120FEF71FFA0146934F20463A46083071
:1029F000FFF787FE97483A46016820460C30FFF7FC
:102A000080FE95496069FDF714FC0190934A01A886
:102A10002168FFF776FE3A4631462046FFF771FE01
:102A20000121C9430198FDF77FFC06468C492068C7
:102A3000FDF7FFFB3146FDF7F4FB0090E4688948A1
:102A4000844256DD7B4F786A0646FDF779FC85495E
:102A5000FDF7EFFB2146FDF7ECFB0099FDF790FB3E
:102A60007349B400703108510646F86A002808D04E
:102A7000002030398200401C8E500C28FADB0020E8
:102A8000F8626B48784910300059FDF7D2FB684F67
:102A90000290403739593046FDF7C3FB0299FDF7E4
:102AA0006FFB39463E51303908510146FDF7C1FBF5
:102AB0003E4601466036A0196C4AFFF722FE5D488B
:102AC0005C49406A401C48620C2812DB00204862C6
:102AD000306800240290A700F0590299FDF75CFCD1
:102AE00004D2F05902905348611C8162641C0C2C82
:102AF000F1DB504F3869002800D05A485C49FDF797
:102B00003FFB0646B86AFDF71BFC564C2146FDF715
:102B100090FBF968FDF78DFB0099FDF731FB31461D
:102B2000FDF73AFC03D353493868884201DA0120A3
:102B300000E000203861B86AFDF702FC2146FDF78D
:102B400078FBF968FDF775FB0099FDF719FB7860D4
:102B500049480068002801D0FFF75AFA3869002870
:102B600001D0082108E045480068002806D0444804
:102B70000068002804D00F2142481EE00C211BE011
:102B80002B48C07B002807D00026B869002817D042
:102B9000386A002802D004E00126F6E7FFF744FB7C
:102BA0003862FFF741FB396A411A3648814202D93F
:102BB0000020B861386208211C48FFF757FD2BE060
:102BC000F86900281FD0FFF72FFB0446386A002859
:102BD00009D13C62002E03D0FF20FFF75BFD02E02D
:102BE000FF20FFF769FD386A211A2648814201D883
:102BF000386A04E0F869401EF86100203862224912
:102C0000201A884208D9002E03D0FF20FFF754FD78
:102C100002E0FF20FFF73EFDFEF7CCFA7D24E40042
:102C2000FFF702FB401BA042FAD3ACE6A0860100EE
:102C3000D403002014010020492E7F3F8813000098
:102C4000CDCC6C403333534074000020BD37863503
:102C50000AD7A33C680000206666864029EA7F3FC9
:102C60000000A03FCDCCCC3D42F27C3F67B17F3F1E
:102C700000006040CDCC2C4048000020E001002046
:102C80000002002020A10700E0930400FFB581B0FE
:102C900007460E4610460A9DFDF7C3FA044628462D
:102CA0000499FDF7BEFA054631463846FDF7B9FAF4
:102CB0002946FDF7BEFA2146FDF7F8FA0499FDF71B
:102CC0005FFA05B0F0BD000010B50649086800289D
:102CD00007D000200860091D08710920C006FDF713
:102CE00000FD10BD8C0000207047000005490868F9
:102CF000022804D001DA02200860401C704700203E
:102D0000FAE70000600100200C494868002804D060
:102D1000012807D002280AD10BE008484430886017
:102D2000012003E005485030886002204860401CC4
:102D300070470248383088600020F7E760010020C3
:102D400010B50649087C401C8007800F086140319F
:102D5000095C252000F04EFF10BD0000D4010020CA
:102D600010B5416800788007800DFF38FF380238C1
:102D70000818FDF7E5FA0821C943FDF7D5FA10BD9B
:102D8000F0B506469E489F4902789F489F4F0068CD
:102D9000B4008FB0002A03D0994AD27B002A11D008
:102DA000002803D03859FDF744FA3851022E1ADAB8
:102DB000964918310859C207401CD20F0851002A01
:102DC00007D010E00028EDD1914800680028E9D034
:102DD000ECE78E4831464830005900F0B5FD014619
:102DE0008A480C3001518B480025015987483C30F6
:102DF0000059FDF7D1FA04D187480059002800DDB9
:102E00000125844801210059C90748407F493C31C8
:102E10000959FDF7C1FA06D17F4801590120C007C1
:102E2000814200D90125022E0BDA78480C30015975
:102E30003C300059FDF7F5F94000784940088842D8
:102E400027DC002D25D17148022154300559284630
:102E5000FDF76AFA6D4960310959FDF791F96E493C
:102E600009590091FDF78CF96D49FDF7E2F96D49BB
:102E70000959FDF7DEF96C490968FDF7DAF93959A6
:102E8000FDF77EF938516148603005510C380099E2
:102E9000015160480C3001595C482018FFF71EFCB6
:102EA0006048183007595C4839460059FDF7C1F9A8
:102EB0005C490C3909590091FDF7BBF9534D7F214D
:102EC00001903C35C9053846FDF7ABF90099FDF78F
:102ED000B0F9564909590391FDF7ABF90199FDF78E
:102EE0004FF94A490959FDF74BF928514D480C3023
:102EF00000590290002801DC285972E040480AA9D4
:102F0000C27B07A8002A06D0464A243A1259025129
:102F1000444A183A05E03D4A603A125902513B4A88
:102F2000543A12590A5100597F22D205009090421A
:102F300008590190014604AF104608DAFDF771F90F
:102F40000D903B4801990059400040080BE0FDF707
:102F500068F90D9000990198FDF7A8F901463448E9
:102F6000005940004008FDF764F90D99FDF708F994
:102F700038512648243001590398FDF752F9029937
:102F8000FDF757F927494439C9690D91FDF751F902
:102F90000E901E48303001591830025901921046E7
:102FA000FDF73FF90299FDF744F90099FDF741F962
:102FB0003959FDF73EF90D99FDF73BF90E99FDF7EB
:102FC00030F91249019A30310A51104A03992432DA
:102FD00011513146FFF7ACFB01462859FDF7D0F8F7
:102FE000285110494439C968FDF723F92851094887
:102FF00001596019FFF772FB28590FB0F0BD0000AE
:10300000D403002048E17A3F480000203405002026
:1030100054010020643C0008B0020020CDCCCC3D1F
:103020007EAA2A3EA40100204401002000060020C0
:10303000BC020020F8B5144801681448FDF736F9C1
:10304000134CE0611348016813480068FDF72EF93E
:103050007F25124EED0581223346D2051049009599
:10306000FFF714FEE060B04201DDE66002E0A84236
:1030700000DAE5600B480078002804D00A49E068CF
:10308000FDF7D7F8E060F8BD4401002017B7513BC9
:10309000600100202801002014010020713DAA3F9A
:1030A00000004040D40300206666663FFEB502255E
:1030B00069460D710320487100248C71CC71012187
:1030C0002846FDF793FB314F31483946FFF781FA27
:1030D00001210E023046FDF789FB39462D4F384657
:1030E000FFF777FA2C48602101800121418084811B
:1030F0000682846010200924E40600906946204678
:10310000FDF7EFFA042211462046FDF722FB224983
:103110003846FDF7FBFB4020009069462046FDF74E
:10312000E0FA012206212046FDF713FB1A49184850
:10313000FDF7ECFB8020009069462046FDF7D1FAB0
:10314000012207212046FDF704FB13491048FDF733
:103150001BFC124C694620460095FDF7C2FA01227D
:1031600011462046FDF7F5FA0B490948FDF754FCD6
:1031700001210748FDF7B4FB01210548FDF7BAFB23
:1031800001213846FDF7ACFBFEBD0000CF07000073
:1031900000040040002000402C03002000040048F0
:1031A00010B50A46044612491046FDF742F8FDF7ED
:1031B000D9F8002801DA002003E00E49884200DD3A
:1031C0000846002C09D0012C0CD00B49022C0CD045
:1031D000032C01D180B2886310BD074980B2403111
:1031E000086010BD80B2054900E080B2486310BDA0
:1031F00000E0F944CF070000000400400020004038
:10320000F8B506467F20C0050C46814201DD044624
:1032100003E010498C4200D90C4621460746FDF7D1
:1032200000F83146FDF705F8054631460846FDF73A
:1032300000F83146FCF7FDFF2146FCF7FAFF29466E
:10324000FCF79EFF009039466846FFF747FA009862
:10325000F8BD0000000080BF70470000FEB5254D9E
:10326000254C2F68A66839463046FCF7E2FF234913
:1032700009680091FCF7DDFF6168FCF7D6FF39466D
:103280000190FCF7D6FF0099FCF7D3FF3146FCF71D
:1032900077FF074668680290266801463046FCF7CB
:1032A000C8FF0099FCF7C5FF3946FCF7BEFFA060D8
:1032B0000299FCF7BEFF0099FCF7BBFF3146FCF713
:1032C0005FFFAD68064629460198FCF7B2FF0099FA
:1032D000FCF7AFFF3146FCF7A8FF29462060FCF75A
:1032E000A8FF0099FCF7A5FF0199FCF749FF606072
:1032F000FEBD00000006002034050020440100202F
:103300007CB54348012585730021C17302214148E2
:1033100000F008FC3F480721773000F003FC3D48EF
:103320000621653000F0FEFB3A480421383000F0F9
:10333000F9FB6420FEF71DFC364806216B3000F0D7
:10334000F1FB0021012000F055FC0121022000F0DA
:1033500051FC3921062000F04DFC0F21112000F016
:1033600049FC0021042000F045FC0321084600F040
:1033700041FCE22000F0F8FB0021052000F03AFCBF
:1033800038211D2000F036FC00F06EFAFD2000F020
:10339000AFFA002000F0ACFA00F060FA8F210020B4
:1033A00000F028FC0F2000F000FCC62802D003200B
:1033B000FEF7EAFB174CA068002827D016486A469B
:1033C00003C8019100900120214660310B18203B79
:1033D000DB7F1354401C0628F8DB0621104600F062
:1033E000A1FB3020694608700621684600F09AFB70
:1033F000084821694030415C252000F0FBFBE56076
:103400006068002801D0054860627CBD25627CBDF3
:10341000D4030020D40100207C3C00088813000065
:10342000012040020921C906886102490120886003
:103430007047000078000020012040020921C906E1
:1034400088610349088103490020886070470000B3
:103450002000004878000020012003494002088134
:103460000249002088607047200000487800002052
:1034700010B5074C2068002801D100F0B1F80120F8
:1034800080020921C90688610120606010BD00002A
:103490007800002010B5064C2068002801D100F00B
:1034A0009FF801200349800208810020606010BD60
:1034B000780000202000004870B590B000206C46D5
:1034C00081006050401C0F28FADB852000902248C4
:1034D000224D06682248019629460068FCF7A9FE9D
:1034E000FCF740FF0104C0B2090E049003911D488F
:1034F00029460068FCF79DFEFCF734FF0104090E25
:10350000C0B2194D05910690A86CC10F0818401063
:10351000FF2800DDFF200790002E03D0039808212C
:1035200008430390002108468200A258401C51180D
:103530000E28F9DBE1200E9100F016FB822100201D
:1035400000F058FB0F21684600F040FBFEF76CFED0
:10355000E86410B070BD0000240100200000C842E3
:103560001401002018010020D40100201B4801682C
:1035700001221143016001688907FCD5416889086F
:103580008900416041680907890FFBD10168012268
:1035900012069143016001688901FCD441683F2310
:1035A0001B049943416041687B23DB0399434160DD
:1035B00041680723DB04194341600168114301603E
:1035C00001688901FCD541680222114341604168CC
:1035D0000907890F0229FAD1704700000010024044
:1035E00010B50549012008600C3108710920C0069A
:1035F000FDF777F810BD00007800002010B57520A9
:10360000FEF70DFF682807D0982805D07D2803D045
:10361000722801D0002010BD012010BD10B58021FE
:103620006B20FEF702FF1248FEF7A3FA01216B2080
:10363000FEF7FBFE7520FEF7F2FE682801D001249C
:1036400000E000246420FEF794FA18211C20FEF705
:10365000ECFE002C03D005211D20FEF7E6FE18210C
:103660001B20FEF7E2FE00211A20FEF7DEFE10BD51
:10367000409C0000F0B593B00E2269463B20FEF757
:10368000C5FE029803990002401800B2FCF758FEEC
:10369000304C2060009801990002401800B240426E
:1036A000FCF74EFE6060049805990002401800B2D5
:1036B000FCF746FEA060089809990002401800B285
:1036C000FCF73EFE11900A980B990002401800B2D8
:1036D000FCF736FE10900C980D990002401800B2CD
:1036E000FCF72EFE1290243421681098FCF799FD07
:1036F000109061681198FCF794FD1190A1681298E0
:10370000FCF78FFD12900120109AC00711994240DA
:10371000109111464140119112990E4F41400024E1
:1037200010AE0C371291A50070590B49FCF781FDC2
:103730000A49FCF77EFD70512146FFF743F87851A6
:103740002146FFF76FF8641C7851032CEBDB13B0B4
:10375000F0BD0000F405002000007A3D35FA8E3CF3
:10376000FEB50126B60201246846009604718471F4
:10377000C471032509274571FF0669463846FCF7E1
:10378000B0FF6002009069463846FCF7AAFF08487F
:103790000021066001718471C47145710C3841606B
:1037A00004608160FFF764FEFFF73AFEFEBD000093
:1037B0008400002070B50D460446FDF765FA6000F0
:1037C0000446FDF73DFA2846FDF73AFAFDF72AFAD6
:1037D000601CFDF735FA0120FDF7EAF9C4B2FDF7E8
:1037E00065FA204670BDFFB581B01D4616460746F6
:1037F0000024FDF749FA78000746FDF721FA029800
:10380000FDF71EFAFDF70EFA781CFDF719FA6D1E8A
:1038100005E00020FDF7CCF9A1007050641CAC421B
:10382000F7DB0120FDF7C4F9A1007050FDF73EFA67
:1038300005B0F0BD70B515460E460446FDF724FAF6
:103840006000FDF7FDF93046FDF7FAF92846FDF76F
:10385000F7F9C4B2FDF72AFA204670BD01490120EC
:1038600088617047001400480149012008817047B1
:1038700020140048FEB501246846047100258571B6
:10388000C4710326467102200B4F009069463846EA
:10389000FCF727FF694638460094FCF722FF0748EB
:1038A000046005718571C471467101460920C00626
:1038B000FCF717FFBC61FEBD00140048900000201B
:1038C00070B4002007210223074C0925074EED069E
:1038D000A3614200288A3381C007C00F1043491EEC
:1038E000F6D570BC70470000001400482014004852
:1038F000F8B504460F4809260168F6060125002997
:1039000006D105600C48057101463046FCF7E9FE1A
:1039100007210A4B0A4F022022460A41D20701D052
:10392000B56100E01D81B861064A1081491EF3D5DA
:10393000F8BD00008C00002090000020200000480E
:10394000001400482014004870B50C4AC9008C18B7
:10395000054660680A492060FCF76BFC0646094989
:103960002846FCF766FC3146FCF70AFC60602268DA
:1039700001461046FCF704FC70BD0000A0030020C7
:1039800007715D3FE23B8A3DF8B5474D044601684B
:103990002868FCF701FD04D161686868FCF7FCFC4D
:1039A00055D0206828606068404E68603146606885
:1039B000FCF73FFC3E4F3946FCF73BFC05463146E1
:1039C0002068FCF736FC3946FCF733FC0646FEF768
:1039D00007F9354C083420602846FEF701F960608D
:1039E0002846FEF7F3F805463046FEF7EFF829467D
:1039F000FCF71FFC0646A06060680146FCF719FC56
:103A0000054620680146FCF714FC2946FCF7B8FB84
:103A10002849054688420FDD31460846FCF709FC77
:103A20007F21C905FCF701FC01462846FCF73EFC56
:103A3000FCF7A6FE054600E01F4D20682946FCF76E
:103A4000F8FB206029466068FCF7F3FB6060164CC9
:103A50001A4E0834A068009070680099FCF7E9FBE2
:103A6000B768054661683846FCF7E3FB2946FCF772
:103A7000D8FB134D686030680099FCF7DAFB064606
:103A800038462168FCF7D5FB3146FCF7CAFB7F249A
:103A9000E405286021462846FEF720FE2146281D21
:103AA000FEF71CFEF8BD00005C0200200000824210
:103AB00035FA8E3C6F12833AF4FD343FF400002057
:103AC0002406002010B50848064941610749CA6923
:103AD00003231202120A44042243CA6100218161B5
:103AE000036110BDFF117A0000E000E004ED00E08A
:103AF0000A48436980690A494A68904201D2121A09
:103B000001E01B1A9A18486008681218D008C30010
:103B1000D21A0A608A6810188860704700E000E0D6
:103B20009800002070B50D460646FFF79DFE002464
:103B300004E0305DFFF7DCFE641CE4B2AC42F8D375
:103B4000FFF78CFE70BD0000064A10B5800080189B
:103B5000FCF780FD042804D0FCF774FD0520FEF777
:103B600013F810BD007C000810B50446FFF77CFE7A
:103B70002046FFF7BDFEFFF771FE002010BD70B5B7
:103B80000D4606460024FFF76FFE6120FFF7B0FEEA
:103B9000FFF79AF804E0FFF793FEA1007050641C51
:103BA000AC42F8DBFFF75AFE70BD10B5C406E40E58
:103BB000FFF75AFE2046FFF79BFEFFF785F8FFF759
:103BC0007FFE0446FFF74AFE204610BD70B50D4645
:103BD00006460024FFF748FEA020FFF789FE04E018
:103BE000A0003058FFF784FE641CAC42F8DBFFF7FE
:103BF00035FE70BD70B58406A40E20200D4604432A
:103C0000FFF732FE2046FFF773FE2846FFF770FEEF
:103C1000FFF724FE70BD0C0300040003000C01003C
:103C2000010001000C0200020002000C0100010072
:103C300003000C0200020003000C03000300030059
:103C40000C0400040004000C0400030004000C0435
:103C500000030003000C0400030002000C04000336
:103C6000000100009A99D93F9A99D93F0000003F7E
:103C70009A99D93F9A99D93F0000003F2A00000045
:103C8000000000002A00000000000000B03C000816
:103C9000000000207002000068040008603D000879
:103CA00070020020C0070000580B0008BDCEFFFFC7
:103CB000216320416340405AA008012E5A0104812B
:103CC0000552CDCCCC3D034E20C10318803F6D661C
:103CD0006686402049D809142CA9F4A90C011013B8
:103CE00098012A2044600D9ED8893F2173943E524A
:103CF000215A3E1AC05829042F803F9A99993E04B0
:103D0000412DF6285C3E0419885D3F3333B3243ED1
:103D1000C03FA4703D043808CDCC0C3F7B146E042A
:103D20002D6666663F601AA4041AB0040A1A39891F
:103D3000710312B80B05293EF6375D50083F0A6D36
:103D4000679C462A4906A0083A4521EF2C5A50A004
:103D5000097B14524185EB41410300803F00000084
:04000005080000C926
:00000001FF
