:020000040800F2
:10000000200A0020C9000008EF0000087B07000854
:1000100000000000000000000000000000000000E0
:10002000000000000000000000000000F3000008D5
:100030000000000000000000F5000008750900083D
:10004000F9000008F9000008F9000008F9000008AC
:10005000F9000008F9000008F9000008F90000089C
:1000600000000000F9000008F9000008F90000088D
:10007000F9000008F9000008F9000008F90000087C
:10008000F90000080000000000000000F90000086E
:1000900000000000F9000008F9000008F90000085D
:1000A00000000000F900000800000000F90000084E
:1000B0000448854600F0C6F900F052F800480047B1
:1000C0006D2A0008200A00200C4880F308880C489C
:1000D0000168090E0B4A914205D10B480B4901609A
:1000E0000B480C4901600C4880470C480047FEE76C
:1000F000FEE7FEE7FEE7FEE7FEE70000200A00203D
:10010000040000001F000000181002400100000061
:10011000000001400000000079090008B10000085B
:1001200030B50B46014600202022012409E00D468F
:10013000D5409D4205D31D469540491B2546954017
:1001400040191546521E002DF1DC30BD0321001D63
:10015000401E037812021A43491EF9D51046704713
:1001600070B5054C054D03E0206800198047241D3B
:10017000AC42F9D170BD0000E83C0008EC3C00083E
:10018000F8B502464A40D40F42004B0052085B08C3
:100190009A4202D20246084611464A0023D0C30DB5
:1001A0004A00DDB2120EAD1A202D35DA49020126C1
:1001B000490AF6058A19002C00D0524220214F1B13
:1001C0001146B9402A411018C20D9A4221D0002C84
:1001D00017D0012D08DCDA05801AD20F8019D2075A
:1001E000DBB200F0F5F8F8BDDA05801A0123400013
:1001F0001B06C01880185A428018CA0F10434900C5
:1002000007E04908C2071143DA05801A801940083F
:10021000801800F0D5F8F8BD61000122511A001BCA
:10022000F7E70122D2075140AAE70122D207504046
:10023000A6E7024670B54A40D30FDB0740002DD039
:100240004A002AD0010E140E000212020919400AB7
:10025000520A8418E50104465443000A120A2E0487
:100260005043A4194219200CC543AA18120C0125A9
:10027000AD03521C521912047F39240400D0521CC1
:10028000104301D44000491EC2B20C06C009201818
:10029000401C4008802A02D003E0002070BD4008C6
:1002A0004000002900DA0020184370BD70B50246F6
:1002B0004A40D50F40004A00ED0740085208002888
:1002C00014D0002A12D0C40DD30D41020120C00564
:1002D0005202490A520AE41A091812187D3491424E
:1002E00001D3641C00E04900002C01DA002070BD3D
:1002F0000023914201D3891A034340084900002892
:10030000F7D100290AD0914202D10121C90705E0A5
:10031000914201D2012101E00121C943E005C01849
:10032000401900F04DF870BD420005D04200120E99
:1003300052428A4201DB00207047C9050818704705
:10034000C217C10F504010B54018CA0796230021AC
:1003500000F03EF810BD10B500229623114600F0C3
:1003600037F810BDC20F410040020123400ADB05EF
:10037000D207090EC0187F2901DA0020704796299C
:1003800003DC9623591AC84001E096398840002AB8
:10039000F4D04042704700000122D207002800DB61
:1003A000101A002900DB511A814270470122D2073E
:1003B000002800DB101A002900DB511A8842704720
:1003C000002904DA401C490001D140084000704770
:1003D00070B40024050C05D11024000402D10029BA
:1003E00021D01124050E01D100020834050F01D1DE
:1003F0000001241D850F01D18000A41C002801DB11
:100400004000641C002908D020252E1B0D46F54015
:10041000A14000D001212943084301061B1B000A0B
:10042000DB1D02D5002070BC7047DB051818801852
:100430000029F8DA401C4900F5D170BC40084000A2
:1004400070470000064C0125064E05E0E36807CC26
:100450002B430C3C98471034B442F7D3FFF72CFEE3
:10046000C83C0008E83C000870B58C180578401CB2
:100470006B075B0F01D10378401C2A1106D102786B
:10048000401C03E006780E70401C491C5B1EF9D12D
:100490002B0705D40023521E0DD40B70491CFAE71C
:1004A0000378401CCB1A921C03E01D780D70491C88
:1004B0005B1C521EF9D5A142D8D3002070BD836ABF
:1004C0000B438362426170470029816801D0012299
:1004D00000E002221143816070470029C16802D008
:1004E0000122114301E049084900C1607047C26818
:1004F00002239A43C260C2680A43C260704782689E
:1005000000210123DB071A4382600F231B0382684B
:10051000491CD20FD207994201D0002AF7D1816835
:10052000002901DB006C70470020704730B5C268BD
:10053000084B8C681A400B680D792343CC686D0317
:100540002C4323430C69496923430B431343C36082
:1005500030BD000003D2FFFF816804221143816097
:1005600070470021016001718160C16001614161DA
:10057000704700000122054992050028886801D0D3
:10058000104300E09043886070470000002701405E
:100590000029016802D00122114301E0014A114003
:1005A00001607047FEFF000030B503680C4A0C6A1A
:1005B00013408A684D6922430C692C4322438C699D
:1005C0002243CC6922434C6A22438C6A22431A4359
:1005D0000260CA6842600A6882604968C16030BDD2
:1005E0000F80FFFFF0B50B2706463F04384600F0AA
:1005F00067F804280FD1084C2069022528432061A0
:1006000066612069402108432061384600F058F8AF
:100610002169A9432161F0BD00200240084904205E
:10062000CA68D20701D001207047CA68D20601D536
:1006300002207047C9684907FBD5032070470000B6
:100640000020024002480169802211430161704785
:1006500000200240F8B5064600200B273F0400901A
:100660000D46384600F02CF8042815D10B4C2069B3
:100670000121084320613580384600F021F8042824
:1006800006D1B61C290C00963180384600F018F8C7
:100690002169490849002161F8BD0000002002409D
:1006A00004480169090603D50349416003494160D3
:1006B000704700000020024023016745AB89EFCD61
:1006C00000B50346FFF7AAFF02E0FFF7A7FF5B1E96
:1006D000012803D0002B00D1052000BD002BF4D150
:1006E000FAE7F0B50022032501230C6893401C4073
:1006F0009C422AD10C79012C01D0022C12D187689E
:1007000054002E46A640B74387604E79A6408468C1
:100710002643866084889C43848084888B799340B8
:100720001C438480066853002C469C40A643066008
:100730000E7907689E403E430660C668A643C660C1
:10074000CC799C40C3681C43C460521C102ACBD394
:10075000F0BD4B07DB0E9A40C90810B58900081898
:10076000016A0F249C40A1430162016A11430162A6
:1007700010BD0185704781617047052001F012FAB4
:100780000029016802D00122114301E04908490013
:1007900001607047012292030029416801D0114392
:1007A00000E09143416070470246926900200A428E
:1007B00000D001207047000010B5026852085200B6
:1007C00002600268134B8C681A4024024B68144381
:1007D000234303600F230A681B069A4302610268E1
:1007E00001231A43026000228260C2600B698A6999
:1007F0001A43826082680123DB031A438260CA685D
:100800000368134303604268034B49691A4011436C
:10081000416010BDFFE0CF00FF7FFF07406AC0B21C
:10082000704781627047000070B5049D4468890577
:10083000890D1204034E11431943344029432143C7
:10084000416070BD009800FC70B5FF250021044692
:10085000AD05C943FFF768FD06460F4960100C1A45
:1008600021463046FFF7E5FC2146FFF7E2FC29462A
:10087000FFF7DBFC2146FFF7DCFC0446014630466F
:10088000FFF7D7FC2146FFF7D4FC2946FFF7CDFC44
:100890002146FFF7CEFC70BDDF59375F044A0029BF
:1008A000516901D0014300E081435161704700006C
:1008B00000100240044A0029D16901D0014300E040
:1008C0008143D1617047000000100240044A0029B2
:1008D000916901D0014300E08143916170470000BC
:1008E0000010024004490A6B10239A430A630A6B02
:1008F00002430A637047000000100240044A0029C6
:10090000116801D0014300E081431160704700008D
:10091000000001400CB50020009001901349112007
:1009200008601348416841604168416041687B222A
:10093000D2039143416041680522D20411434160D2
:100940000168012212061143016001688901FCD58A
:100950004168890889004160416802221143416071
:1009600041680907890F0229FAD10CBD0020024015
:10097000001002407047000010B5144801680122C1
:10098000114301604168124A114041600168114AF7
:1009900011400160016801229204914301604168A5
:1009A0003F22120491434160C16A09090901C162F1
:1009B000016BFF22543291430163416B49084900A6
:1009C000416300218160FFF7A5FF10BD00100240C8
:1009D0000CB8FF08FFFFF6FE0029018802D00122B3
:1009E000114301E049084900018070474030002967
:1009F000818803D00122D203114301E04904490C4C
:100A00008180704770B5028C520852000284048CB9
:100A10008288038B7025AB439B080D889B001D4388
:100A200002239C438E894B882643104C3343A042BB
:100A300008D00F4CA04205D00E4CA04202D00E4C64
:100A4000A0420DD10824A343CC891C4304239C431A
:100A50008B882343094C22400C8A14434A8A224340
:100A60008280058389684163038470BD002C014046
:100A7000004001400044014000480140FFFC0000EC
:100A800070B5028C10239A430284048C8288038BF5
:100A90001A4D2B400D782D062D0C1D4320239C4311
:100AA0008B891B051E0C4B8826431B051B0C144C05
:100AB0003343A04202D0134EB04219D1124E3240FD
:100AC0000E8AB604360C3243A04211D18024A343CF
:100AD000CC892405240C1C4340239C438B881B0594
:100AE0001B0C2343094C22404C8AA404240C2243AF
:100AF0008280058389688163038470BDFF8C000058
:100B0000002C014000400140FFFB0000FFF7000007
:100B100030B5028C124B1A400284058C8288838B7C
:100B2000104C23400C782406240C1C430E4B1D4013
:100B30000B7B1B071B0C2B438D782D072D0C1D43A6
:100B40000A4B984205D10A4B13400A8A9205120CAF
:100B50001A438280848389680164058430BD000063
:100B6000FFEF0000FF8C0000FFDF0000002C0140C1
:100B7000FFBF000010B50288144B984206D0012434
:100B8000A407A04202D0124CA04203D17024A24379
:100B90004C8822430F4CA04203D00F4C22400C89BA
:100BA000224302804A68C2620A880285984208D0BD
:100BB0000A4A904205D00A4A904202D0094A90421D
:100BC00001D1897A01860121818210BD002C01406A
:100BD0000004004000100040FFFC00000040014005
:100BE0000044014000480140014603488860034832
:100BF000C8600846704700000AD7A33C249A843D89
:100C00000146034888600348C860084670470000F2
:100C10000AD7A33C249A843D002101607047FFB5A8
:100C200081B01C4617460E0007D0019D02E0284601
:100C3000B047ED192046641EF9D2019805B0F0BD09
:100C400002E008C8121F08C1002AFAD17047704795
:100C5000002001E001C1121F002AFBD170470000F3
:100C600010B5032310220B490B48FFF7D8FF0A48A1
:100C70000323102209493030FFF7D1FF0848002133
:100C8000016005480323082206496030FFF7C7FFCB
:100C900010BD0000E90B000830030020010C000823
:100CA00094000020190C0008F8B5154E45200006E8
:100CB00037460025183FB06002F078FD0024A00000
:100CC000395880190F4A01F010FE641C032CF6DB22
:100CD00001F0B8FAFF20F5306D1C8542ECDB4521B0
:100CE0000906B068FFF79DFA074D0024B060A00028
:100CF0008019294601F0E6FD641C032CF7DBF8BDE2
:100D0000FC0500201F856B3F0000FA4370B592B0D0
:100D1000202503206946069508770024CC77092012
:100D200006A9C006FFF7DDFC01214802FFF7CEFD52
:100D300001210846FFF7B2FD2A4806902A4807908D
:100D40000220099080200B9040000C9008948000B5
:100D50000E950D900A94C000244D0F9006A9109492
:100D60002846FFF721FC1F4E0221403E3046FFF788
:100D7000BEFB01213046FFF7B0FB6846FFF7F1FBF1
:100D8000012069460094087104200590029404949F
:100D90003046FFF7CBFB0121072249043046FFF71D
:100DA0008EFB072220213046FFF789FB0120FFF749
:100DB000E1FB3046FFF7A3FB01213046FFF784FB40
:100DC0003046FFF7C9FB01212846FFF7E1FB084841
:100DD0000088FFF7C0FA0749FFF72BFA024948607D
:100DE00012B070BD402401406C0000200800024099
:100DF000BAF7FF1F6EDB963F10B50B49002803D0F2
:100E0000012808D0002010BD0888FFF7A4FA074980
:100E1000FFF70FFA10BD4888FFF79DFA0146024818
:100E20004068FFF743FA10BD6C0000203333B33A3B
:100E3000F0B58400304887B005597F21680040082C
:100E4000C9050290FFF7F1F906462946FFF7F1F9C7
:100E50002949303909680191FFF7EBF905902946D6
:100E60000298FFF7E6F92449203909680091FFF755
:100E7000E0F907462048083001592846FFF7D1F924
:100E80001D49049028390968FFF7D3F93146FFF767
:100E9000D0F91A4909680391FFF7CBF90599FFF7D3
:100EA0006FF9154906461039085108390498096840
:100EB000FFF7BFF90299FFF7BCF90399FFF7B9F9FA
:100EC0003946FFF75DF90C490839085101463046AB
:100ED000FFF756F9084E10363051304608380551A4
:100EE00000990198FFF74CF90146A01901F0EAFCBE
:100EF000305907B0F0BD0000300000206C01002028
:100F0000F8B505460C46480000D1294C01210026C1
:100F1000C9078D4203D94C404D408126F605002C6F
:100F200009DC204648402C46054601218907304609
:100F3000FFF726F9064621462846FFF737FA10D86C
:100F400021462846FFF76DF9074621462846FFF758
:100F500017F904467F213D46C9053046FFF710F9D1
:100F6000064621462846FFF7A1F904461149FFF736
:100F700060F91149FFF704F92146FFF75AF90F49C3
:100F8000FFF7FEF82146FFF754F904460C493046B6
:100F9000FFF74FF92146FFF7F3F80A49884202DDCF
:100FA0000949FFF73EF90949FFF743F9F8BD000089
:100FB000567C0A2A4BC887BD7EAE36BE42DA833FD6
:100FC000DB0F493FDB0F4940DB0FC940E12E654293
:100FD00070B5184CE06B002804D00025012809D01A
:100FE000E56370BD0120A06202F010FBE06B401CC5
:100FF000E06370BD172002F0F6FDC00608D58F2112
:10100000002002F015FEE563A56201F08DFF70BDC2
:1010100001F018F9E16C401A07498842F7D9E1203C
:1010200002F0C0FD8F21002002F002FEE563A56200
:1010300070BD0000C40100201027000070B51A4CDC
:10104000002802D0012800D0184C810018484158CF
:101050000029084602DC0122D20750400646154806
:10106000FFF7E7F80546600015D021463046FFF748
:10107000E0F87F24E4052146FFF7D7F822460E4921
:1010800000F08AF901462046FFF710F9014628468C
:10109000FFF7CFF80546094A0949284600F07CF9D0
:1010A0000849FFF7C6F870BDCDCC4C3F3333333F12
:1010B000AC020020000020430AD7233C00C0F944C2
:1010C00000C0F9C435FA8E3C70B5002506462C46A2
:1010D000A00030580146FFF7ACF82946FFF750F85A
:1010E000641CE4B20546032CF2D3FFF7ADFB0146C6
:1010F0007F20C005FFF7DAF870BD0000F8B51D4D80
:101100000C216E68074632464A431B49184853185B
:101110002A6894001959002F02D0491C195102E085
:10112000491E16481951002E06D1002A01D0012A65
:1011300002D10F49FFF77DF80021C943FFF7F4F80A
:10114000AE683159FFF71CF8002800DD30512968DE
:10115000002902D1002800DD706068680C2250432D
:10116000054A890080184058002800DA4042F8BD3E
:10117000CDCCCC3D5001002000050020CDCCCCBD15
:1011800030B5002207239C1A6418203C855CE47F5C
:10119000A54201D0002030BD521C072AF3DB0120FC
:1011A00030BD0000FEB5072002F01DFD0007400F16
:1011B0000026072801D0022000E0304601246D4DB2
:1011C000002869D0E86800281DD001F03BF80746E8
:1011D0000F21694802F0F1FC00F056FC002853D0C2
:1011E000686C401C68646868002801D0FFF7F0FE56
:1011F0002E636E6328692F656F65EE62E865A86AE5
:1012000000283FD040E00F215B4802F0D6FC5A4B4B
:101210001868A42801D0A3283ED1A32802D157489A
:101220006C6068625348197E40300170197F4170CC
:10123000198C8170998CC17051494E4F8868C9686A
:1012400000900120019160378100595C6A46115479
:101250003A18203A401CD1770628F5DB062168466B
:1012600002F07EFC3020694608700621684602F0D4
:1012700077FC404829694030415C252002F0D8FCC9
:10128000EC6009E001F050FEA869401CA861092843
:1012900002DD0A206C61A861A86A002801D0FFF76E
:1012A00097FE00F0CFFF0746286D391A686A820062
:1012B0007D20C000101881420BD9E868002808D0B2
:1012C0002F65686B002801D1E86D286101F02CFEC4
:1012D0006C63A96A686B084319D1286B00900528D4
:1012E00015D2E868002812D0286D7D21381AC9006F
:1012F00088420CD9696AFEF713FF01460098401C2A
:10130000814204D301F010FE286B401C2863686DF5
:10131000391A1C48814206D91B48EC6206604660B7
:101320008660C66002E0E86A002803D0286A0028C8
:1013300002D011E02C620FE0E8691449381A8842A3
:101340000AD90C48EE60062171302C6202F008FCCC
:101350000021052002F06CFC00F074FFA96D411A19
:101360000848814205D9686C6E64A86400F06AFF81
:10137000A865FEBDC4010020A80500208813000058
:10138000B83C000840420F0094040020C0E1E40093
:1013900000B502F095F900BD70B514460D4606463D
:1013A000FEF7FAFF01D2284670BD21463046FEF70F
:1013B000FDFF01D2204670BD304670BDF0B57F25DF
:1013C00089B0ED05F9480195807B002802D13F20C6
:1013D0000006019000263446F548B700C059F54B89
:1013E0004200F5495208D8518A4201DCDC510FE035
:1013F0000122D207904203D82A460023009503E039
:10140000EE4A0023EE49009201F034FDE949C8514B
:10141000761C032EE0DB01F001FF0020FFF70EFE3B
:101420000199FEF706FF06460120FFF707FE019926
:10143000FEF7FFFE06900220FFF700FE0199FEF77F
:10144000F8FE0746D9480078002803D0DD48006838
:10145000002851D0DC48066006998760002641606C
:10146000DA48B700C159D848C059FEF7DAFED14969
:10147000761C0C39C851032EF2DB01F0E5FF002089
:1014800001F072FD012001F06FFD022001F06CFD02
:10149000C648CF4B8279CF48CF490127002A75D063
:1014A000C34AD668CD4A964202DD0A68002A6ED049
:1014B0001A68012AFBD007600F60BC4AC84E927BB5
:1014C000002A7DD0F761006800287AD0F0690028F2
:1014D000B748C06876D0C3490090FEF7AAFEC2495B
:1014E000FEF74EFEB061BD490098884203DDBF485B
:1014F0000168002967D0D7E00021AE4802F062FA07
:10150000BB4839464068FEF794FE0090B848012178
:101510000068C90748403946FEF78BFE0190B44881
:1015200039468068FEF785FE0290B2480590B248C1
:101530000490AC4807909D48C07B00287AD0AF4902
:1015400003C94700490049087F0838460391FEF760
:101550002DFF00D9039F04993846FEF71DFF05D8DB
:1015600038460499FEF7A2FE049000E004959148E5
:101570000799006847007F083846FEF70DFF07D837
:1015800038460799FEF792FE074602E06AE071E0EE
:101590002F4604990598FEF74CFE0390984839466B
:1015A000FEF747FE0399FEF7EBFD03909048816834
:1015B0000120C00781420AD9844F3046396803E0D0
:1015C0005CE05DE061E06EE0FEF72BFE20E08D4820
:1015D0007E4F01688C48016030463968FEF721FE75
:1015E0000399FEF726FE064628460399FEF719FEE4
:1015F00003900020FFF71CFC0099FEF7C1FD39683D
:10160000FEF70FFE0399FEF714FE3146FEF7B8FD14
:10161000684E0C3E306079680698FEF702FE7060F6
:101620006A4881680298FEF7FCFD62490C398860BF
:1016300023E7FFE700277348BE00815972488151B4
:101640003846FFF7F5FB69468959FEF799FD5F4972
:101650008959FEF7E6FD57497F1C0C398851012F47
:10166000E9DDDDE7694A04601268012A00D024E759
:101670001C6022E7664A046017601EE7F46122E7F7
:101680005A48B46104600C600EE05749884203DA9E
:101690005648B461046007E0FEF7C3FD5D49FEF7FC
:1016A000C8FDB0615148076040480079002819D052
:1016B0003F4AB46158491068884211D2574B98424A
:1016C0000EDA506888420BD2984209DA9068884254
:1016D00006D2984204DAD068002801DD984201DB86
:1016E0004B4807604E480068002803D14D48B16957
:1016F000814224DA7068002807D000F0A3FD7168E9
:10170000401A4949884200D974600025E8B2002196
:1017100001F03CFE6D1C032DF8DD444D30482A4697
:101720000021083001F0E1F82D482A4600210C3054
:1017300001F0DBF8B4613760346209B0F0BD00201D
:10174000306000F07FFD706039480068002802D0EA
:101750003848C068B061384800240068012824D1A6
:101760003648384F01683648814205DAFEF759FDA0
:101770003946FEF75EFD044633480168334881422E
:1017800005DAFEF74EFD3946FEF753FD0446AC423E
:1017900001DD2C4601E0002C5CDD2D492046FEF7E2
:1017A00048FD7169FEF7ECFC58E06CE0C4030020D2
:1017B00094040020AC0200200AD7233C000080BF24
:1017C0000AD723BCA40000206C050020F0050020EF
:1017D0003C010020480100204C010020CDCCCC3D34
:1017E000480000203333733FCDCC4C3D44010020F2
:1017F000E40000209A99993E00005C42B803002062
:101800003333333F1406002030000020D80100207D
:101810001C0100209932873FA4707DBFA4707D3FDA
:10182000F00100206F12833A40420F00EC51383F24
:10183000AC000020A803002040010020040100208B
:10184000CDCC2C40000040400801002033335340F1
:1018500017B7D13880497069FEF7E3FC3F210906CC
:101860007061884201DD716105E00121C90788428C
:1018700001D90020706120467169FEF781FCB169D1
:10188000FEF7D3FCB061754C2068049001467448A3
:1018900080690746FEF7C5FC059066683146FEF78D
:1018A000C0FCA4682146FEF76BFC039038460499FF
:1018B000FEF766FC07463146FEF7B3FC2146FEF70D
:1018C000B0FC019031460598FEF75AFC2146FEF720
:1018D000A8FC029038463146FEF752FC2146FEF73E
:1018E0004FFC00900020401C0328FCDD00200490E9
:1018F000594800246E460590A700F0590499FEF758
:1019000055FD01D2F0590490F0590599FEF744FDB8
:1019100001D2F0590590641C042CEDDB7F21C90530
:101920000498FEF77EFC3F252D06A84200DD2846E0
:101930004B4CA168FEF73AFD04D24A49A068FEF775
:101940001FFC03E04849A068FEF76BFC424FA06013
:10195000A84201DDA56003E04449884200D9A160A6
:101960003F4801218068C907884200D94048414961
:10197000FEF75FFC00280DDD3946FEF701FC074647
:101980000024A50070593946FEF74BFC641C7051C9
:10199000042CF6DB3848006801281ED100252C46AF
:1019A000A700F0592946FEF7F7FC00D2F559641C50
:1019B000042CF5DB3148854201D9054603E00120BE
:1019C000C007854209D90024A700F0592946FEF72F
:1019D00028FC641CF051042CF6DB00212048284F21
:1019E0000D460162AC0030590121C907884202D975
:1019F0000020305104E07F21C905884200DD3151CB
:101A000020483159FEF715FC3946FEF7B9FB305135
:101A100001F05EFA0146E8B201F0B8FC305901214C
:101A2000C907884202D90020305104E07F21C9054E
:101A3000884200DD31513159094C206AFEF7A0FB84
:101A40006D1C2062032DCDDD0121C943206AFEF704
:101A50006BFC206271E600006F12833A6005002083
:101A6000480000200AD7A33B0AD7233CCDCCCCBDED
:101A700017B7D1B8CDCCCC3D44010020CDCC4CBE65
:101A8000CCCC4C3D3333733FF8B5374D2868A5288F
:101A900067D1002108468200AA58401C51180E2820
:101AA000F9DBC8B2A96B88425BD12F48103001F036
:101AB0004BFA2E4E30602C48183001F045FA706019
:101AC0002948283001F040FAB060288C696A800704
:101AD000800D4018FEF734FC2549FEF7AAFBF060A4
:101AE000297B244C0806C00FA071A868C206D20F3B
:101AF000E2718206D20F22728A06D20F4907E27281
:101B0000C90FA1720107CA0F22706968FA2926D08D
:101B1000002161708107C90FC007C00FA170164D69
:101B2000E070002A00D0E07B2946306801F05EFCBE
:101B300030602946706801F059FC706000200F4B3E
:101B40000F4D074601261F542A5C215C8A4200D0B3
:101B50001E542954401C0E28F5DB0120F8BD01213C
:101B6000D7E70020F8BD0000A8050020940400205D
:101B7000F7FF7F3AC4030020CDCC4C3DB4040020D5
:101B8000A404002010B50020FFF7B8FA10BD08B576
:101B9000C100081A0090411E009101D30846FAE7DF
:101BA00008BD000006460024E0B2002101F0EEFB73
:101BB000641C032CF8DD0B4DAF0000240CE0FF206B
:101BC00000F06EFE2846FFF7E2FFFF2000F056FE11
:101BD0002846FFF7DCFF641CB442F0DB3846FFF711
:101BE000D6FFEAE7400D030010B50349FEF7C8FA37
:101BF00000F004F810BD0000DB0FC93F70B50446CB
:101C0000134E144D03E03146FEF7BAFA0446AC42D7
:101C1000F9D8114DAC4204DD3146FEF702FB044613
:101C2000F8E70120C0070D490D4D8442204605D933
:101C3000FEF7FFFA2946FEF7A3FA04E0FEF7F9FAE9
:101C40002946FEF7F2FA2146FEF7F3FA70BD0000CE
:101C5000DB0FC940DB0F49C0DB0F49407B81CF3E22
:101C600083F9A23FFEB500273D460024681CFEF71D
:101C700067FB01900E49A8000E58601CFEF760FB40
:101C80000090A10071580198FEF7D3FA0099FEF771
:101C9000D0FA0849FEF7CDFA3946FEF771FA641C0E
:101CA0000746032CE9DB6D1C032DDEDBFEBD0000C7
:101CB000B80100208D976E3F10B5FFF7D3FF0149A3
:101CC000086010BD9C000020F8B50020012400F041
:101CD00015F93B4DA84272D1FF2000F00FF9A84240
:101CE0006DD12046022500F011F936494860096897
:101CF000FEF752FB11D100260024B70028466D1CC8
:101D000000F004F93049A200C959641C8850032C22
:101D1000F4DB761C032EEFDB00E00B2528466D1C60
:101D200000F0F4F8294C6E1C2060284600F0EEF814
:101D30006060304600F0EAF8A060342000F0DEF881
:101D4000002203461146CC0018462041C0B27F282D
:101D500000D90122491C0429F5DB002A28D11C499D
:101D6000012008601B490860322000F0C7F81A4CB7
:101D70002071322000F0C2F81849000A08603320B0
:101D800000F0BCF802460021CB0010461841605418
:101D9000491C0429F8DB342000F0B0F8104A03464F
:101DA0000021CC00184620415054491C0429F8DB7E
:101DB000362000F0ABF8FEF7D5FA0A490860F8BD06
:101DC0000100AA129C000020B8010020FC050020A0
:101DD00044020020CC01002024020020C801002081
:101DE0000402002040010020F8B500F093F800F054
:101DF00073F8002001242F4901F0C4FE2E4920462B
:101E00000225096800F08AF800260024B7002B4854
:101E1000A100C059415828466D1C00F07FF8641C91
:101E2000032CF4DB761C032EEFDB254C28466D1CBF
:101E3000216800F073F86E1C2846616800F06EF8A7
:101E40003046A16800F06AF81E48006800281FD0DC
:101E50001E481D4C0068217900020143322001F028
:101E600091FE2046FEF772F90102E078090A0006A9
:101E70000143332001F086FE1548FEF767F90102A1
:101E80001348090AC07800060143342001F07AFEA5
:101E900010480068002802D07F21C90500E0002119
:101EA000362000F03BF80349FF2001F06BFE00F004
:101EB00021F8F8BD0100AA129C000020B801002002
:101EC000FC0500204402002024020020C80100205C
:101ED000040200204001002010B50548FEF782FBF7
:101EE000042803D0FEF7AEFB012010BD002010BD7A
:101EF000007C000810B5FEF7A5FB10BD024980006C
:101F00004018006870470000007C000800B5FFF72B
:101F1000F5FF00BD10B5FEF7C3FB10BD10B501F015
:101F200031FE10BD30B53F4C2178814277D006217B
:101F30006218203AD27F6254491E0129F8DA2070D3
:101F400039493848FFF71CF97F25002802D0657011
:101F5000032030BD34493348C91DFFF711F900286B
:101F600002D06570042030BD2F492E480E31FFF796
:101F700007F9002802D06570012030BD2A492948A0
:101F80001531FFF7FDF8002802D06570022030BD42
:101F900025492448C91FFFF7F3F8002802D06570CF
:101FA000092030BD20491F480E39FFF7E9F8002805
:101FB00002D065700A2030BD1B491A481539FFF759
:101FC000DFF8002802D065700B2030BD1649154897
:101FD0001C31FFF7D5F8002802D06570052030BD10
:101FE000114910482331FFF7CBF8002802D0657063
:101FF000062030BD0C490B482A31FFF7C1F80028F4
:1020000002D06570072030BD074906483131FFF71F
:10201000B7F8002803D06570082030BDFFE7002026
:10202000FBE70000DC000020673C0008F8B500F08A
:1020300087F804006DD00125394F012C1ED1386876
:10204000002832D03748056000203860FFF7CCFE0A
:10205000FFF73AFE002002460C2603467343324E39
:1020600000219B198E00491C9A510329FADB401C60
:102070000328F1DB00F0E6F82C49086002212C4E21
:10208000022C17D00A2C21D02A48042C2AD0032C49
:102090002CD0072C00DB3D60052C2CD0062C2DD03D
:1020A000072C37D0082C38D02BE000F0EBF8FEF7E7
:1020B000FBFDCBE7204A1068002805D00020106007
:1020C000081A30603D601FE00120F8E71B4A1068E5
:1020D000002805D000201060081A30603D60DAE763
:1020E0000120F8E705710F4805600AE00D490D6011
:1020F0000021017105E000F0FBFE01E000F0EAFEC6
:1021000030603868002804D03068002801D10548C4
:102110000560F8BD00F04CFBF2E7FFF733FDEFE799
:10212000C80000201C01002000050020380100200C
:1021300020010020C40300204402002040010020B0
:1021400070B53748374C0068002864D0364B3748A4
:102150001A685100490881420BDA9D686D006D08CC
:10216000854206DA5D686D006D08854201DA00205F
:102170002FE02F4DAA4202D89E68AE4206D95E6873
:1021800076007608864201DA012022E0294EB2422A
:1021900002DC9A68B24206DD5A6852005208824256
:1021A00001DA022015E05A68AA4208D9814206DA0B
:1021B0009D686D006D08854201DA032009E0B24296
:1021C00008DD814206DA996849004908814201DA4E
:1021D0000420206000F036F806CC083C914200D084
:1021E000E060E268801A144A90420FD9002904D1B5
:1021F000124A904201D90C2005E0114A904204D9BC
:102200007F2903D0FF20A06000E0A1606160A0688A
:10221000FFF788FE70BD7F20A0606060002070BD69
:1022200048000020CC00002094040020CDCC4C3E7F
:10223000333333BF3333333FA086010060AE0A002F
:1022400020A1070000B501F071FC00BD1CB52320E2
:1022500001214004FEF722FB01206946087100209D
:102260008871C8710320487104200924E406009095
:102270002046FEF736FA0821009169462046FEF70F
:1022800030FA1CBDF0B591B0FFF7DCFF0F900546AA
:102290000B900A9000208100574B0CAA5B58401C01
:1022A00053500328F7DB8CE00A980A95281A099006
:1022B00001D10120099006226946432000F09EF9D1
:1022C000009801990002401800B2FEF739F8079013
:1022D000029803990002401800B2FEF731F8069008
:1022E000049805990002401800B2FEF729F8434E01
:1022F0000890307800F06EFA20464149FDF710FF53
:102300004048814201D9012100E000213068C20724
:10231000D20F914201D0401C306038480178090743
:10232000090F00260160B4000CAF06A83959005906
:10233000FEF73CF804D238593349FDF721FF3851F4
:1023400006A839590059FEF727F804D238592E4902
:10235000FDF767FF3851E0192C4900F0B3FA3859FE
:102360002B4940004008FDF70BFF014606AF3859E6
:1023700040004008FEF71AF806D2FFF763FF0B9003
:102380001E48012101600BE00998FDF7E4FF214997
:1023900000F0E8FA024618483959201800F0A5FA6A
:1023A000761C032EBFDB7D24E400FFF74BFF401BB0
:1023B000A04203D20A20FFF7EAFBF6E7FFF742FF4D
:1023C00005460B982C1A1448844205D20F981349DD
:1023D000281A884200D267E70B98291A0E488142D2
:1023E00007D20020044A01468300401CD150032834
:1023F000FADB11B0F0BD0000080600204802002002
:1024000024F40000127A0000CDCCCC3D00004844FA
:102410000000C8420024F44880841E00C0E1E400AB
:1024200010B58AB002206946087101208871C87110
:10243000032040020924E40600902046FEF751F9EB
:10244000042209212046FEF784F904220A212046AD
:10245000FEF77FF901214805FEF72CFA0121084615
:10246000FEF734FA01218805FEF748FA0121C80574
:10247000FEF744FA1020FEF735FA0B4802900020D0
:102480000F2104910390AB21084C05900790069111
:10249000089002A92046FEF78FF901212046FEF799
:1024A0006FF90AB010BD0000180870000054004019
:1024B000F8B50F461646012100F03AF809208002CF
:1024C00001230090F2B25B06D0211248FEF7ACF96E
:1024D000114D0020287018E0002408E0641C600BF7
:1024E00005D00E490868401C08600020F8BD042192
:1024F0000848FEF759F90028F0D00648FEF78EF993
:1025000029788A00B850491C29702878B042E3DB4A
:102510000120F8BD00540040740000207800002025
:1025200008B501226946FFF7C3FF009808BD000007
:10253000F3B581B00F4600241A4D1B4E02E0641C17
:10254000600B22D10121C9033046FEF72DF9012885
:10255000F5D0012040030090FAB20023D02130468C
:10256000FEF762F902E0641C600B0ED102213046D6
:10257000FEF71AF90028F6D00198C1B23046FEF7EE
:1025800050F907E0641C600B04D02868401C2860E8
:102590000020FEBD01213046FEF706F90028F1D0EB
:1025A0000120FEBD780000200054004070B50D46AB
:1025B00000240221FFF7BCFFE9B20C4D2846FEF7CC
:1025C00030F907E0641C600B04D009490868401C1E
:1025D000086070BD40212846FEF7E6F80028F1D0DB
:1025E00001212846FEF7D6F870BD000000540040D7
:1025F0007800002010B5FFF713FF10BD10B5FFF7EE
:1026000057FF10BD10B5FFF78BFF10BD10B5FFF7DA
:10261000CDFF10BDF0B54C4C4C4D87B021682868FB
:10262000FDF7FFFD286061686868FDF7FAFD6860E6
:10263000A168A868FDF7F5FD00240A27FF43A860FC
:10264000A600A8593946FDF76FFE641CA851032C5B
:10265000F6DB3F480024006804AF00903D48A60028
:1026600080590099FDF7E5FD641CB851032CF5DB9A
:10267000394E049834682146FDF7DBFDB168FDF75B
:10268000D4FD019001990498FDF7D3FD2146FDF793
:1026900077FD074601990598FDF7CBFD7168FDF7B9
:1026A0006FFD044621460598FDF7C3FD0199FDF72E
:1026B000BCFDB06021460698FDF7BBFD3946FDF72D
:1026C000B4FD3060069A01461046FDF7B2FD214682
:1026D000FDF756FD70601D48FEF7F6FC1F49204AC5
:1026E0004118914222D27F22D20501460024104691
:1026F000FDF7DCFD0090A700E959FDF79AFD641C89
:10270000E851032C01DA0098F5E711483F2109064A
:10271000006800F039F907460024A0002958801904
:102720003A4600F0E2F8641C032CF6DBB16830682E
:10273000FEF7E6FB0B4C2060B1687068FEF7E0FB2B
:10274000606007B0F0BD0000FC050020E40500203B
:1027500034010020F0050020E4000020CCCCCCC0E7
:1027600032337300B8030020F8B500250D4F01F097
:102770001DF80024A6000A21B859C943FDF7D4FD6D
:1027800001460948094A301800F0AFF8641C032CD0
:10279000F0DB7D20C000FFF7FAF96D1C642DE6DB4D
:1027A000F8BD0000E4050020E40000209A99593F9C
:1027B00010B50120FEF7A2FC10BD0EB500226B463D
:1027C0001A805A8001911A819A726946FEF7D2F9ED
:1027D0000EBD000070B50646FFF734FD194C2169A7
:1027E0002061451A3046FDF7B6FD1749FDF721FD7A
:1027F00006460121204689070C3000F063F8284680
:10280000FDF7A9FD054630466168FDF70AFD29463A
:10281000FDF70FFD0D49FDF70CFDE168FDF7B0FC7C
:102820000B49E060884205DDFF2000F039F87F2089
:10283000C00503E0FF2000F021F8002060600020C8
:1028400070BD0000F00000208988883D6F12833A37
:1028500048E1FA3E70B50D460446FFF7F3FC214609
:10286000FDF75EFC6C432009814203D90F2000F084
:1028700017F870BD0F2000F001F870BD70B5044668
:10288000064DC00703D004212846FDF774FFA007BA
:1028900003D508212846FDF76EFF70BD00000048F3
:1028A00070B50446064DC00703D004212846FDF745
:1028B00060FFA00703D508212846FDF75AFF70BD29
:1028C0000000004870B504460120C0070D46454091
:1028D0000E462068FDF76AFD00D226602846216872
:1028E000FDF764FD00D2256070BD70B505460C464D
:1028F0007F2016461146C005FDF793FC2146FDF7E3
:1029000098FC044631462868FDF793FC2146FDF704
:1029100037FC286070BD0000F3B5104E104F8C00DE
:1029200083B031597869FDF784FC019030460C384A
:10293000055938692946FDF77CFC0090B969039870
:10294000FDF777FC0099FDF71BFC0199FDF769FC89
:10295000314635510C39085105B0F0BD9C050020B9
:102960005001002010B5FDF7A1FC7F24E4052146AD
:10297000FDF75BFCA04201DD204610BD0121C90727
:102980008842FAD9002010BD10B5FDF752FC7F2413
:10299000E4052146FDF749FCA04201DD204610BDBB
:1029A0000121C9078842FAD9002010BDF8B5164A9E
:1029B00009018C1805462768A1686068FDF7E0FBEF
:1029C0000090E168FDF7DCFB01467F20C005FDF7C4
:1029D0006DFC0099FDF72DFC064639462846FDF7AB
:1029E00020FC3146FDF725FC3946FDF7C9FB0546BD
:1029F0007F203146C005FDF714FC0099FDF719FC56
:102A0000256060602846F8BD30030020F8B5164AFE
:102A100009018C1805462768A1686068FDF7B0FBBE
:102A20000090E168FDF7ACFB01467F20C005FDF793
:102A30003DFC0099FDF7FDFB064639462846FDF7AB
:102A4000F0FB3146FDF7F5FB3946FDF799FB0546EE
:102A50007F203146C005FDF7E4FB0099FDF7E9FB57
:102A6000256060602846F8BD600300200EB57D201B
:102A7000C000FFF78CF8FEF78BFCFFF7E7FBFF20A9
:102A8000FFF70EFF00F014FF01F03AF8E148FFF7FE
:102A90007EF8FFF7AFFD00F0FFFB0021084600F0D5
:102AA00075FC0021012000F071FC0021032000F0E2
:102AB0006DFC0021022000F069FC00F04BFE00F0EC
:102AC00039FE002836D0FEF721F9D349012088735A
:102AD000FFF7F2F8FFF7F8F800F008FDCF4E0024FA
:102AE0000020FEF789F9B168FDF7A3FB0546012038
:102AF000FEF782F90146CA4FC8483A460830FFF748
:102B0000F4FE3A462946C548FFF7EFFEC548641C67
:102B10008442E5DBC44D3068062400902046FDF772
:102B20000FFC074601460098FDF7C0FBA84203DDF5
:102B3000776104E0042037E0641E002CEEDC71694C
:102B40000098FDF7B3FBB949884201DA02202BE077
:102B5000FFF798FB00F076FCFFF706FEB44800682C
:102B6000002801D007201FE0FFF76CFB7063FFF720
:102B700069FBAA4C0546606B281AFDF7ECFB206345
:102B8000002802DC7F20C0052063AA49FDF751FB25
:102B9000A9492063884201DD062005E0A448656359
:102BA0000068142802DD0820FEF7FCFF00F0FEFD9F
:102BB000FEF704FCFFF72EFD0020FEF71DF9974CF1
:102BC000A168FDF736FB06460120FEF715F9014620
:102BD000934F20463A460830FFF787FE97483A461B
:102BE000016820460C30FFF780FE95496069FDF7CB
:102BF00020FB0190934A01A82168FFF776FE3A4630
:102C000031462046FFF771FE0121C9430198FDF7C7
:102C10008BFB06468C492068FDF70BFB3146FDF720
:102C200000FB0090E4688948844256DD7B4F786A57
:102C30000646FDF785FB8549FDF7FBFA2146FDF7C2
:102C4000F8FA0099FDF79CFA7349B4007031085105
:102C50000646F86A002808D0002030398200401C5F
:102C60008E500C28FADB0020F8626B48784910304F
:102C70000059FDF7DEFA684F029040373959304667
:102C8000FDF7CFFA0299FDF77BFA39463E5130390C
:102C900008510146FDF7CDFA3E4601466036A019BF
:102CA0006C4AFFF722FE5D485C49406A401C48625E
:102CB0000C2812DB00204862306800240290A70034
:102CC000F0590299FDF768FB04D2F059029053487D
:102CD000611C8162641C0C2CF1DB504F38690028A8
:102CE00000D05A485C49FDF74BFA0646B86AFDF732
:102CF00027FB564C2146FDF79CFAF968FDF799FA37
:102D00000099FDF73DFA3146FDF746FB03D35349E1
:102D10003868884201DA012000E000203861B86A92
:102D2000FDF70EFB2146FDF784FAF968FDF781FAFD
:102D30000099FDF725FA786049480068002801D01D
:102D4000FFF774F93869002801D0082108E04548E8
:102D50000068002806D044480068002804D00F21ED
:102D600042481EE00C211BE02B48C07B002807D006
:102D70000026B869002817D0386A002802D004E07D
:102D80000126F6E7FFF75EFA3862FFF75BFA396A69
:102D9000411A3648814202D90020B86138620821C0
:102DA0001C48FFF757FD2BE0F86900281FD0FFF7FC
:102DB00049FA0446386A002809D13C62002E03D043
:102DC000FF20FFF75BFD02E0FF20FFF769FD386A97
:102DD000211A2648814201D8386A04E0F869401E69
:102DE000F861002038622249201A884208D9002E52
:102DF00003D0FF20FFF754FD02E0FF20FFF73EFD68
:102E0000FEF7D0F97D24E400FFF71CFA401BA04236
:102E1000FAD3ACE6A0860100C40300200401002020
:102E2000492E7F3F88130000CDCC6C403333534094
:102E300078000020BD3786350AD7A33C6800002003
:102E40006666864029EA7F3F0000A03FCDCCCC3D9E
:102E500042F27C3F67B17F3F00006040CDCC2C4008
:102E600048000020D0010020F001002020A1070030
:102E7000E0930400FFB581B007460E4610460A9D58
:102E8000FDF7CFF9044628460499FDF7CAF905462F
:102E900031463846FDF7C5F92946FDF7CAF92146FE
:102EA000FDF704FA0499FDF76BF905B0F0BD0000D9
:102EB00010B506490868002807D000200860091DE1
:102EC00008710920C006FDF70CFC10BD7C00002035
:102ED0007047000005490868022804D001DA022082
:102EE0000860401C70470020FAE7000050010020F5
:102EF0000C494868002804D0012807D002280AD1CC
:102F00000BE0084844308860012003E00548503059
:102F1000886002204860401C704702483830886052
:102F20000020F7E75001002010B50649087C401C3E
:102F30008007800F08614031095C252000F078FE91
:102F400010BD0000C401002010B541680078800762
:102F5000800DFF38FF3802380818FDF7F1F9082115
:102F6000C943FDF7E1F910BDF0B506469E489F49FB
:102F700002789F489F4F0068B4008FB0002A03D0AA
:102F8000994AD27B002A11D0002803D03859FDF786
:102F900050F93851022E1ADA964918310859C207E9
:102FA000401CD20F0851002A07D010E00028EDD1B4
:102FB000914800680028E9D0ECE78E483146483057
:102FC000005900F0DFFC01468A480C3001518B4863
:102FD0000025015987483C300059FDF7DDF904D13F
:102FE00087480059002800DD012584480121005947
:102FF000C90748407F493C310959FDF7CDF906D151
:103000007F4801590120C007814200D90125022EC5
:103010000BDA78480C3001593C300059FDF701F9C2
:10302000400078494008884227DC002D25D17148AE
:103030000221543005592846FDF776F96D49603173
:103040000959FDF79DF86E4909590091FDF798F867
:103050006D49FDF7EEF86D490959FDF7EAF86C493D
:103060000968FDF7E6F83959FDF78AF838516148E3
:10307000603005510C380099015160480C300159FD
:103080005C482018FFF71EFC6048183007595C4860
:1030900039460059FDF7CDF85C490C3909590091C2
:1030A000FDF7C7F8534D7F2101903C35C9053846DF
:1030B000FDF7B7F80099FDF7BCF856490959039197
:1030C000FDF7B7F80199FDF75BF84A490959FDF793
:1030D00057F828514D480C3000590290002801DC67
:1030E000285972E040480AA9C27B07A8002A06D0E6
:1030F000464A243A12590251444A183A05E03D4AD8
:10310000603A125902513B4A543A12590A51005935
:103110007F22D2050090904208590190014604AFE9
:10312000104608DAFDF77DF80D903B4801990059EB
:10313000400040080BE0FDF774F80D9000990198ED
:10314000FDF7B4F801463448005940004008FDF747
:1031500070F80D99FDF714F83851264824300159BC
:103160000398FDF75EF80299FDF763F827494439A3
:10317000C9690D91FDF75DF80E901E483030015978
:103180001830025901921046FDF74BF80299FDF7ED
:1031900050F80099FDF74DF83959FDF74AF80D99A7
:1031A000FDF747F80E99FDF73CF81249019A3031C6
:1031B0000A51104A0399243211513146FFF7ACFBF2
:1031C00001462859FCF7DCFF285110494439C968E9
:1031D000FDF72FF82851094801596019FFF772FBD4
:1031E00028590FB0F0BD0000C403002048E17A3F29
:1031F000480000202405002044010020A03C0008D5
:10320000A0020020CDCCCC3D7EAA2A3E9401002015
:1032100034010020F0050020AC020020F8B514486D
:1032200001681448FDF742F8134CE0611348016847
:1032300013480068FDF73AF87F25124EED05334636
:10324000114A12490095FFF715FEE060B04201DD1A
:10325000E66002E0A84200DAE5600D480078002848
:1032600004D00C49E068FCF7E4FFE060F8BD000022
:103270003401002017B7513B5001002018010020F5
:1032800004010020713DAA3F6666764000002040A0
:10329000C40300206666663FFEB5022569460D71CF
:1032A0000320487100248C71CC7101212846FDF760
:1032B00001FB314F31483946FFF77FFA01210E02F9
:1032C0003046FDF7F7FA39462D4F3846FFF775FAC5
:1032D0002C48602101800121418084810682846024
:1032E00010200924E406009069462046FDF7F9F90C
:1032F000042211462046FDF72CFA22493846FDF7F4
:1033000081FB4020009069462046FDF7EAF9012242
:1033100006212046FDF71DFA1A491848FDF772FBF1
:103320008020009069462046FDF7DBF90122072145
:103330002046FDF70EFA13491048FDF7A1FB124C89
:10334000694620460095FDF7CCF90122114620463A
:10335000FDF7FFF90B490948FDF7DAFB01210748A2
:10336000FDF73AFB01210548FDF740FB01213846F6
:10337000FDF732FBFEBD0000CF0700000004004057
:10338000002000401C0300200004004810B50A463D
:10339000044612491046FCF74CFFFCF7E3FF0028F7
:1033A00001DA002003E00E49884200DD0846002CC7
:1033B00009D0012C0CD00B49022C0CD0032C01D1CC
:1033C00080B2886310BD074980B24031086010BDEB
:1033D00080B2054900E080B2486310BD00E0F944C6
:1033E000CF0700000004004000200040F8B506466A
:1033F0007F20C0050C46814201DD044603E01049F0
:103400008C4200D90C4621460746FCF70AFF31469C
:10341000FCF70FFF054631460846FCF70AFF314628
:10342000FCF707FF2146FCF704FF2946FCF7A8FE3E
:10343000009039466846FFF745FA0098F8BD00004D
:10344000000080BF70470000FEB5254D254C2F6859
:10345000A66839463046FCF7ECFE2349096800911E
:10346000FCF7E7FE6168FCF7E0FE39460190FCF7E7
:10347000E0FE0099FCF7DDFE3146FCF781FE0746D1
:1034800068680290266801463046FCF7D2FE009933
:10349000FCF7CFFE3946FCF7C8FEA0600299FCF7A6
:1034A000C8FE0099FCF7C5FE3146FCF769FEAD6821
:1034B000064629460198FCF7BCFE0099FCF7B9FEC8
:1034C0003146FCF7B2FE29462060FCF7B2FE0099B7
:1034D000FCF7AFFE0199FCF753FE6060FEBD0000F3
:1034E000F005002024050020340100207CB543486D
:1034F000012585730021C1730221414800F030FB92
:103500003F480721773000F02BFB3D48062165300E
:1035100000F026FB3A480421383000F021FB6420FB
:10352000FEF735FB364806216B3000F019FB002111
:10353000012000F07DFB0121022000F079FB392100
:10354000062000F075FB0F21112000F071FB002117
:10355000042000F06DFB0321084600F069FBE22027
:1035600000F020FB0021052000F062FB38211D2027
:1035700000F05EFB00F096F9FD2000F0D7F9002086
:1035800000F0D4F900F088F98F21002000F050FB02
:103590000F2000F028FBC62802D00320FEF702FB14
:1035A000174CA068002827D016486A4603C8019126
:1035B00000900120214660310B18203BDB7F135423
:1035C000401C0628F8DB0621104600F0C9FA30201E
:1035D000694608700621684600F0C2FA0848216969
:1035E0004030415C252000F023FBE5606068002846
:1035F00001D0054860627CBD25627CBDC40300200B
:10360000C4010020B83C00088813000070B590B0D9
:1036100000206C4681006050401C0F28FADB85209A
:1036200000902248224D06682248019629460068EB
:10363000FCF7FFFDFCF796FE0104C0B2090E0490F2
:1036400003911D4829460068FCF7F3FDFCF78AFE4C
:103650000104090EC0B2194D05910690A86CC10F66
:1036600008184010FF2800DDFF200790002E03D02F
:103670000398082108430390002108468200A258BD
:10368000401C51180E28F9DBE1200E9100F08AFA57
:103690008221002000F0CCFA0F21684600F0B4FA35
:1036A000FEF7D0FDE86410B070BD000014010020EA
:1036B0000000C8420401002008010020C4010020CD
:1036C0001B48016801221143016001688907FCD58C
:1036D000416889088900416041680907890FFBD169
:1036E0000168012212069143016001688901FCD43E
:1036F00041683F231B049943416041687B23DB03FE
:103700009943416041680723DB0419434160016824
:103710001143016001688901FCD54168022211430F
:10372000416041680907890F0229FAD170470000FA
:103730000010024010B57520FEF764FF682807D01E
:10374000982805D07D2803D0722801D0002010BD14
:10375000012010BD10B580216B20FEF757FF1248E5
:10376000FEF715FA01216B20FEF750FF7520FEF7DA
:1037700049FF682801D0012400E000246420FEF7FE
:1037800006FA18211C20FEF741FF002C03D005216A
:103790001D20FEF73BFF18211B20FEF737FF0021FD
:1037A0001A20FEF733FF10BD409C0000F0B593B027
:1037B0000E2269463B20FEF721FF02980399000282
:1037C000401800B2FCF7BCFD304C20600098019915
:1037D0000002401800B24042FCF7B2FD606004985D
:1037E00005990002401800B2FCF7AAFDA0600898F5
:1037F00009990002401800B2FCF7A2FD11900A9846
:103800000B990002401800B2FCF79AFD10900C983A
:103810000D990002401800B2FCF792FD129024347A
:1038200021681098FCF7FDFC109061681198FCF776
:10383000F8FC1190A1681298FCF7F3FC129001209B
:10384000109AC007119942401091114641401191C0
:1038500012990E4F4140002410AE0C371291A50072
:1038600070590B49FCF7E5FC0A49FCF7E2FC705182
:103870002146FFF79BF878512146FFF7C7F8641CF3
:103880007851032CEBDB13B0F0BD0000E405002001
:1038900000007A3D35FA8E3C01490120886170476D
:1038A0000014004801490120088170472014004895
:1038B000FEB501246846047100258571C471032694
:1038C000467102200B4F009069463846FCF709FF0D
:1038D000694638460094FCF704FF07480460057108
:1038E0008571C471467101460920C006FCF7F9FED6
:1038F000BC61FEBD001400488000002070B40020B0
:1039000007210223074C0925074EED06A36142005B
:10391000288A3381C007C00F1043491EF6D570BCFA
:10392000704700000014004820140048F8B5044611
:103930000F4809260168F6060125002906D1056011
:103940000C48057101463046FCF7CBFE07210A4BB7
:103950000A4F022022460A41D20701D0B56100E099
:103960001D81B861064A1081491EF3D5F8BD0000DB
:103970007C00002080000020200000480014004847
:103980002014004870B50C4AC9008C1805466068C0
:103990000A492060FCF74DFC064609492846FCF719
:1039A00048FC3146FCF7ECFB60602268014610469B
:1039B000FCF7E6FB70BD00009003002007715D3F3F
:1039C000E23B8A3DF8B5474D044601682868FCF79C
:1039D000E3FC04D161686868FCF7DEFC55D0206820
:1039E00028606068404E686031466068FCF721FCE2
:1039F0003E4F3946FCF71DFC054631462068FCF772
:103A000018FC3946FCF715FC0646FEF7F7F8354C6E
:103A1000083420602846FEF7F1F860602846FEF77B
:103A2000E3F805463046FEF7DFF82946FCF701FCCF
:103A30000646A06060680146FCF7FBFB054620686F
:103A40000146FCF7F6FB2946FCF79AFB2849054698
:103A500088420FDD31460846FCF7EBFB7F21C905A4
:103A6000FCF7E3FB01462846FCF720FCFCF7ECFEE4
:103A7000054600E01F4D20682946FCF7DAFB206070
:103A800029466068FCF7D5FB6060164C1A4E083476
:103A9000A068009070680099FCF7CBFBB7680546FA
:103AA00061683846FCF7C5FB2946FCF7BAFB134DA5
:103AB000686030680099FCF7BCFB06463846216810
:103AC000FCF7B7FB3146FCF7ACFB7F24E40528602C
:103AD00021462846FEF7F6FE2146281DFEF7F2FE97
:103AE000F8BD00004C0200200000824235FA8E3CF6
:103AF0006F12833AF4FD343FE400002014060020E6
:103B000010B50848064941610749CA6903231202F2
:103B1000120A44042243CA6100218161036110BD7D
:103B2000FF117A0000E000E004ED00E00A4843697C
:103B300080690A494A68904201D2121A01E01B1AB0
:103B40009A18486008681218D008C300D21A0A6090
:103B50008A6810188860704700E000E08800002044
:103B600070B50D460646FFF79DFE002404E0305D6B
:103B7000FFF7DCFE641CE4B2AC42F8D3FFF78CFE26
:103B800070BD0000064A10B580008018FCF762FD89
:103B9000042804D0FCF756FD0520FEF703F810BDFD
:103BA000007C000810B50446FFF77CFE2046FFF7B6
:103BB000BDFEFFF771FE002010BD70B50D46064634
:103BC0000024FFF76FFE6120FFF7B0FEFFF770F9EA
:103BD00004E0FFF793FEA1007050641CAC42F8DBD8
:103BE000FFF75AFE70BD10B5C406E40EFFF75AFE8B
:103BF0002046FFF79BFEFFF75BF9FFF77FFE0446C9
:103C0000FFF74AFE204610BD70B50D46064600245B
:103C1000FFF748FEA020FFF789FE04E0A00030581F
:103C2000FFF784FE641CAC42F8DBFFF735FE70BD85
:103C300070B58406A40E20200D460443FFF732FE23
:103C40002046FFF773FE2846FFF770FEFFF724FEBD
:103C500070BD0C0300040003000C01000100010012
:103C60000C0200020002000C0100010003000C0223
:103C700000020003000C0300030003000C04000416
:103C80000004000C0400030004000C040003000303
:103C9000000C0400030002000C04000300010000FB
:103CA0009A99D93F9A99D93F0000003F9A99D93FF4
:103CB0009A99D93F0000003F2A0000000000000050
:103CC0002A00000000000000EC3C0008000000207A
:103CD0006002000068040008A03D000860020020A7
:103CE000C0070000500C000879CFFFFF216320417E
:103CF0006340405AA008012E5A0104810542CDCCF0
:103D0000CC3D034E20C10318803F1C666686F849EF
:103D10002049C809142CA9E4A90C01101388012A10
:103D20002044600D9ED8893F2173943E52215A3E13
:103D30001AC05829042F803F9A99993E04412D14A6
:103D4000AE873E0438083333733F3333D304380827
:103D5000CDCCCC3F85EB9104280948E1FA3E7B1499
:103D60006E3F042D6666663F601A94041AA0040A2A
:103D70001A3989710312B80B05293EF6375D5008D0
:103D80003F0A6D679C462A4906A0083A4521EF2C58
:103D90005A50A0097B14524185EB41410300803FFA
:04000005080000C926
:00000001FF
