:020000040800F2
:10000000780A0020C9000008EF0000086707000810
:1000100000000000000000000000000000000000E0
:10002000000000000000000000000000F3000008D5
:100030000000000000000000F5000008E90A0008C8
:10004000F9000008F9000008F9000008F9000008AC
:10005000F9000008F9000008F9000008F90000089C
:1000600000000000F9000008F9000008F90000088D
:10007000F9000008F9000008F9000008F90000087C
:10008000F90000080000000000000000F90000086E
:1000900000000000F9000008F9000008F90000085D
:1000A00000000000F9000008000000005D0D0008DD
:1000B0000448854600F0BCF900F048F800480047C5
:1000C0001D2C0008780A00200C4880F308880C4892
:1000D0000168090E0B4A914205D10B480B4901609A
:1000E0000B480C4901600C4880470C480047FEE76C
:1000F000FEE7FEE7FEE7FEE7FEE70000780A0020E5
:10010000040000001F000000181002400100000061
:100110000000014000000000ED0A0008B1000008E6
:1001200030B50B46014600202022012409E00D468F
:10013000D5409D4205D31D469540491B2546954017
:1001400040191546521E002DF1DC30BD70B5054C2E
:10015000054D03E0206800198047241DAC42F9D109
:1001600070BD0000303B0008343B0008F8B5024683
:100170004A40D40F42004B0052085B089A4202D218
:100180000246084611464A0023D0C30D4A00DDB29C
:10019000120EAD1A202D35DA49020126490AF6055C
:1001A0008A19002C00D0524220214F1B1146B94021
:1001B0002A411018C20D9A4221D0002C17D0012DCF
:1001C00008DCDA05801AD20F8019D207DBB200F002
:1001D000F5F8F8BDDA05801A012340001B06C018A7
:1001E00080185A428018CA0F1043490007E0490896
:1001F000C2071143DA05801A80194008801800F000
:10020000D5F8F8BD61000122511A001BF7E7012261
:10021000D2075140AAE70122D2075040A6E7024682
:1002200070B54A40D30FDB0740002DD04A002AD0DA
:10023000010E140E000212020919400A520A841813
:10024000E50104465443000A120A2E045043A4193F
:100250004219200CC543AA18120C0125AD03521CEB
:10026000521912047F39240400D0521C104301D4C7
:100270004000491EC2B20C06C0092018401C4008AC
:10028000802A02D003E0002070BD40084000002911
:1002900000DA0020184370BD70B502464A40D50F01
:1002A00040004A00ED0740085208002814D0002AF8
:1002B00012D0C40DD30D41020120C0055202490ADB
:1002C000520AE41A091812187D34914201D3641CB1
:1002D00000E04900002C01DA002070BD00239142AB
:1002E00001D3891A0343400849000028F7D10029A7
:1002F0000AD0914202D10121C90705E0914201D201
:10030000012101E00121C943E005C018401900F0B6
:100310004DF870BD420005D04200120E52428A4292
:1003200001DB00207047C90508187047C217C10FCC
:10033000504010B54018CA079623002100F03EF83F
:1003400010BD10B500229623114600F037F810BDFD
:10035000C20F410040020123400ADB05D207090E0B
:10036000C0187F2901DA00207047962903DC962304
:10037000591AC84001E096398840002AF4D040421A
:10038000704700000122D207002800DB101A002964
:1003900000DB511A814270470122D207002800DB9E
:1003A000101A002900DB511A88427047002904DA2C
:1003B000401C490001D140084000704770B400243F
:1003C000050C05D11024000402D1002921D01124EC
:1003D000050E01D100020834050F01D10001241DD2
:1003E000850F01D18000A41C002801DB4000641CA3
:1003F000002908D020252E1B0D46F540A14000D035
:1004000001212943084301061B1B000ADB1D02D5FD
:10041000002070BC7047DB05181880180029F8DA36
:10042000401C4900F5D170BC4008400070470000F6
:10043000064C0125064E05E0E36807CC2B430C3C37
:1004400098471034B442F7D3FFF736FE103B00084C
:10045000303B000870B58C180578401C6B075B0FAB
:1004600001D10378401C2A1106D10278401C03E018
:1004700006780E70401C491C5B1EF9D12B0705D471
:100480000023521E0DD40B70491CFAE70378401C60
:10049000CB1A921C03E01D780D70491C5B1C521E88
:1004A000F9D5A142D8D3002070BD836A0B43836283
:1004B000426170470029816801D0012200E00222D8
:1004C0001143816070470029C16802D001221143A5
:1004D00001E049084900C1607047C26802239A439D
:1004E000C260C2680A43C26070478268002101236B
:1004F000DB071A4382600F231B038268491CD20F5B
:10050000D207994201D0002AF7D18168002901DB86
:10051000006C70470020704730B5C268084B8C688B
:100520001A400B680D792343CC686D032C43234399
:100530000C69496923430B431343C36030BD00007A
:1005400003D2FFFF816804221143816070470021BC
:10055000016001718160C16001614161704700000B
:100560000122054992050028886801D0104300E067
:10057000904388607047000000270140002901680F
:1005800002D00122114301E0014A1140016070478D
:10059000FEFF000030B503680C4A0C6A13408A68FD
:1005A0004D6922430C692C4322438C692243CC6958
:1005B00022434C6A22438C6A22431A430260CA686F
:1005C00042600A6882604968C16030BD0F80FFFFE9
:1005D000F0B50B2706463F04384600F067F80428BC
:1005E0000FD1084C206902252843206166612069EB
:1005F000402108432061384600F058F82169A9439A
:100600002161F0BD0020024008490420CA68D207D9
:1006100001D001207047CA68D20601D50220704778
:10062000C9684907FBD5032070470000002002403D
:100630000248016980221143016170470020024095
:10064000F8B5064600200B273F0400900D463846BB
:1006500000F02CF8042815D10B4C20690121084327
:1006600020613580384600F021F8042806D1B61CF8
:10067000290C00963180384600F018F821694908A5
:1006800049002161F8BD00000020024004480169D2
:10069000090603D5034941600349416070470000E2
:1006A0000020024023016745AB89EFCD00B503462A
:1006B000FFF7AAFF02E0FFF7A7FF5B1E012803D0A8
:1006C000002B00D1052000BD002BF4D1FAE7F0B5D6
:1006D0000022032501230C6893401C409C422AD130
:1006E0000C79012C01D0022C12D1876854002E46BF
:1006F000A640B74387604E79A6408468264386604B
:1007000084889C43848084888B7993401C438480B4
:10071000066853002C469C40A64306600E79076885
:100720009E403E430660C668A643C660CC799C40A6
:10073000C3681C43C460521C102ACBD3F0BD4B07C6
:10074000DB0E9A40C90810B589000818016A0F2409
:100750009C40A1430162016A1143016210BD018501
:10076000704781617047052001F074FB0029016822
:1007700002D00122114301E049084900016070479D
:10078000012292030029416801D0114300E0914306
:10079000416070470246926900200A4200D0012061
:1007A0007047000010B502685208520002600268EB
:1007B000134B8C681A4024024B6814432343036094
:1007C0000F230A681B069A430261026801231A4339
:1007D000026000228260C2600B698A691A438260EB
:1007E00082680123DB031A438260CA6803681343EB
:1007F00003604268034B49691A401143416010BDD0
:10080000FFE0CF00FF7FFF07406AC0B27047816200
:100810007047000070B5049D44688905890D120475
:10082000034E11431943344029432143416070BDB5
:10083000009800FC30B5827801240178002A15D098
:100840008B080E4A9B009A1813688907C90EFF256A
:100850008D40AB434578AD072D0E8D401D4315608F
:100860000078C006C00E8440054804E0C806C00EEB
:10087000844003488030046030BD000000E400E0A4
:1008800000E100E070B5FF2500210446AD05C94335
:10089000FFF740FD06460F4960100C1A214630460E
:1008A000FFF7BDFC2146FFF7BAFC2946FFF7B3FC72
:1008B0002146FFF7B4FC044601463046FFF7AFFC83
:1008C0002146FFF7ACFC2946FFF7A5FC2146FFF7C0
:1008D000A6FC70BDDF59375F044A0029516901D079
:1008E000014300E081435161704700000010024065
:1008F000044A0029D16901D0014300E08143D1615C
:100900007047000000100240044A0029916901D09C
:10091000014300E0814391617047000000100240F4
:10092000F8B5464E0446716800200C22444D114033
:1009300005D0042903D0082903D00C2918D025603C
:1009400018E07168706803228902D2030F0F10400B
:10095000BF1C002809D0F06A0107090F2846491C6E
:10096000FFF7DEFB7843206004E036487843FAE77F
:10097000354921607168354F0906090F7B5C216894
:100980000A46DA40626073685B055B0FFB5CDA4025
:10099000A260336BDB0501D42D4B05E073685B046B
:1009A00001D4530800E09308E360336B5F06294BE2
:1009B00003D4284F1237276100E02361376BFF060D
:1009C00001D4656100E06161376BBF070ED0376B02
:1009D000BF07BF0F012F0BD0376BBF07BF0F022F11
:1009E00008D0376BFF43BF0706D006E0A26104E0E2
:1009F000A16102E0A36100E0A561376BBF03BF0FF7
:100A00000FD0326B9203920F012A0CD0316B890305
:100A1000890F022909D0316B8903890F032906D078
:100A200006E0E26104E0E16102E0E36100E0E5612B
:100A3000316B090600D404482062F8BD0010024062
:100A400000127A0000093D00006CDC022402002044
:100A5000809FD5000080000004490A6B10239A4350
:100A60000A630A6B02430A637047000000100240E9
:100A7000044A0029116801D0014300E0814311605C
:100A800070470000000001400CB50020009001906C
:100A90001349112008601348416841604168416072
:100AA00041687B22D2039143416041680522D20410
:100AB000114341600168012212061143016001687F
:100AC0008901FCD54168890889004160416802229A
:100AD0001143416041680907890F0229FAD10CBD11
:100AE00000200240001002407047000010B514487A
:100AF00001680122114301604168124A11404160BE
:100B00000168114A11400160016801229204914379
:100B1000016041683F22120491434160C16A0909A2
:100B20000901C162016BFF22543291430163416BA1
:100B300049084900416300218160FFF7A5FF10BD0E
:100B4000001002400CB8FF08FFFFF6FE00290188E4
:100B500002D00122114301E0490849000180704799
:100B600040300029818803D00122D203114301E0E3
:100B70004904490C8180704770B5028C52085200BC
:100B80000284048C8288038B7025AB439B080D88FC
:100B90009B001D4302239C438E894B882643104CA7
:100BA0003343A04208D00F4CA04205D00E4CA042C7
:100BB00002D00E4CA0420DD10824A343CC891C4383
:100BC00004239C438B882343094C22400C8A144302
:100BD0004A8A22438280058389684163038470BD09
:100BE000002C014000400140004401400048014009
:100BF000FFFC000070B5028C10239A430284048C21
:100C00008288038B1A4D2B400D782D062D0C1D4329
:100C100020239C438B891B051E0C4B8826431B05F8
:100C20001B0C144C3343A04202D0134EB04219D1D6
:100C3000124E32400E8AB604360C3243A04211D115
:100C40008024A343CC892405240C1C4340239C43CB
:100C50008B881B051B0C2343094C22404C8AA4049F
:100C6000240C22438280058389688163038470BDDC
:100C7000FF8C0000002C014000400140FFFB000001
:100C8000FFF7000030B5028C124B1A400284058C2D
:100C90008288838B104C23400C782406240C1C4340
:100CA0000E4B1D400B7B1B071B0C2B438D782D0718
:100CB0002D0C1D430A4B984205D10A4B13400A8A5A
:100CC0009205120C1A43828084838968016405842A
:100CD00030BD0000FFEF0000FF8C0000FFDF0000D0
:100CE000002C0140FFBF000010B50288144B984251
:100CF00006D00124A407A04202D0124CA04203D186
:100D00007024A2434C8822430F4CA04203D00F4CC6
:100D100022400C89224302804A68C2620A88028506
:100D2000984208D00A4A904205D00A4A904202D01E
:100D3000094A904201D1897A01860121818210BD40
:100D4000002C01400004004000100040FFFC0000A7
:100D500000400140004401400048014070B5194E78
:100D6000304600F0B5F8194D17496A78885418488C
:100D700043698169286B814201D2401A01E05B1A04
:100D80001818114C01231B044034984201D3002051
:100D9000C0435200A05229630821304600F026F8D3
:100DA000002808D069780120C0434900605208211A
:100DB000304600F00FF86878401C8006800E68709E
:100DC00070BD0000003801405C050020B801002023
:100DD00000E000E0016270470029016802D00122B2
:100DE000114301E049084900016070470246D26999
:100DF00000200A4200D00120704710B50B041C0EE1
:100E000001238B40022C02D0032C02D002E0001DF3
:100E100000E008300168002A01D0194300E099433E
:100E2000016010BD30B50446006889B00D46400829
:100E3000400020606068032109038843A9680143DA
:100E4000616020681A49EA680840696811432A69A4
:100E5000024311432160A0680321090288436969A4
:100E60000143A1606846FFF75BFD1248844201D14F
:100E7000069805E01048844201D1079800E00298E6
:100E800021680904296800D54000FFF749F92A685C
:100E900052088A4200D8401C2168090404D5010781
:100EA000064A490F10400843A08109B030BD000038
:100EB000F3E9FFFF0038014000440040F0FF00006C
:100EC000002A426801D00A4300E08A43426070472A
:100ED000808CC005C00D70470122D20300294168F3
:100EE00001D0114300E0914341607047014603483F
:100EF00088600348C8600846704700000AD7A33CD2
:100F0000249A843D0146034888600348C860084627
:100F1000704700000AD7A33C249A843D0021016059
:100F20007047FFB581B01C4617460E0007D0019DE3
:100F300002E02846B047ED192046641EF9D2019818
:100F400005B0F0BD02E008C8121F08C1002AFAD19E
:100F500070477047002001E001C1121F002AFBD139
:100F60007047000010B5032310220B490B48FFF710
:100F7000D8FF0A480323102209493030FFF7D1FF78
:100F80000848002101600548032308220649603013
:100F9000FFF7C7FF10BD0000ED0E0008040300209E
:100FA000050F0008880000201D0F0008F8B5154E39
:100FB0004520000637460025183FB06002F0E2FBEE
:100FC0000024A000395880190F4A01F066FD641C06
:100FD000032CF6DB01F00EFAFF20F5306D1C854284
:100FE000ECDB45210906B068FFF711F9074D002435
:100FF000B060A0008019294601F03CFD641C032C60
:10100000F7DBF8BD500600201F856B3F0000FA4358
:1010100070B592B020250320694606950877002414
:10102000CC77092006A9C006FFF751FB0121480231
:10103000FFF76AFC01210846FFF74EFC2A4806909C
:101040002A4807900220099080200B9040000C90C5
:10105000089480000E950D900A94C000244D0F90C6
:1010600006A910942846FFF795FA1F4E0221403E2C
:101070003046FFF732FA01213046FFF724FA68467E
:10108000FFF765FA01206946009408710420059075
:10109000029404943046FFF73FFA012107224904E5
:1010A0003046FFF702FA072220213046FFF7FDF90C
:1010B0000120FFF755FA3046FFF717FA01213046B5
:1010C000FFF7F8F93046FFF73DFA01212846FFF710
:1010D00055FA08480088FFF734F90749FFF79FF8E9
:1010E0000249486012B070BD402401406C000020ED
:1010F00008000240BAF7FF1F6EDB963F10B50B49A0
:10110000002803D0012808D0002010BD0888FFF770
:1011100018F90749FFF783F810BD4888FFF711F960
:10112000014602484068FFF7B7F810BD6C00002088
:101130003333B33AF0B58400304887B005597F2186
:1011400068004008C9050290FFF765F80646294681
:10115000FFF765F82949303909680191FFF75FF811
:10116000059029460298FFF75AF824492039096862
:101170000091FFF754F807462048083001592846E7
:10118000FFF745F81D49049028390968FFF747F82B
:101190003146FFF744F81A4909680391FFF73FF811
:1011A0000599FEF7E3FF154906461039085108393D
:1011B00004980968FFF733F80299FFF730F80399AC
:1011C000FFF72DF83946FEF7D1FF0C4908390851D1
:1011D00001463046FEF7CAFF084E10363051304601
:1011E0000838055100990198FEF7C0FF0146A01983
:1011F00001F040FC305907B0F0BD00003000002085
:1012000060010020F8B505460C46480000D1294C85
:1012100001210026C9078D4203D94C404D4081264B
:10122000F605002C09DC204648402C4605460121E5
:1012300089073046FEF79AFF064621462846FFF703
:10124000ABF810D821462846FEF7E1FF07462146B5
:101250002846FEF78BFF04467F213D46C9053046F0
:10126000FEF784FF064621462846FFF715F8044698
:101270001149FEF7D4FF1149FEF778FF2146FEF72A
:10128000CEFF0F49FEF772FF2146FEF7C8FF044666
:101290000C493046FEF7C3FF2146FEF767FF0A49B7
:1012A000884202DD0949FEF7B2FF0949FEF7B7FFA0
:1012B000F8BD0000567C0A2A4BC887BD7EAE36BEFC
:1012C00042DA833FDB0F493FDB0F4940DB0FC94068
:1012D000E12E6542F8B5810015487F254158134C31
:1012E000ED050029084601DCE2075040064611489A
:1012F000FEF795FF074621463046FEF790FF294648
:10130000FEF789FF2A460C4900F008FA01462846F4
:10131000FEF7C2FF01463846FEF781FF074A08493B
:1013200000F0FCF90749FEF77AFFF8BD3333333F8D
:1013300080020020000048430AD7233C00C0F94443
:1013400000C0F9C435FA8E3C70B5002506462C461F
:10135000A00030580146FEF762FF2946FEF706FF5F
:10136000641CE4B20546032CF2D3FFF78BFA014666
:101370007F20C005FEF790FF70BD0000F8B51D4D41
:101380000C216E68074632464A431B4918485318D9
:101390002A6894001959002F02D0491C195102E003
:1013A000491E16481951002E06D1002A01D0012AE3
:1013B00002D10F49FEF733FF0021C943FEF7AAFF10
:1013C000AE683159FEF7D2FE002800DD30512968A1
:1013D000002902D1002800DD706068680C225043AB
:1013E000054A890080184058002800DA4042F8BDBC
:1013F000CDCCCC3D44010020B4040020CDCCCCBDEC
:1014000030B5002207239C1A6418203C855CE47FD9
:10141000A54201D0002030BD521C072AF3DB012079
:1014200030BD0000F0B5B348B24900694B78B24D09
:10143000002487B0002862D00A46012866D0002820
:1014400001DA02F0CFF8AB48806900287ED0AA48C4
:1014500081784278080210434305A8785B0DC108E3
:10146000E878420111438209287949058000024346
:101470006879490D860232435205520D00924208A6
:10148000A879C60132430609E879520507013E43AF
:101490007605760D0196C609287A520D400006435E
:1014A000687A47023E437605760D02968608A87A4A
:1014B00087013E437605760D0396EE7A4009F600E5
:1014C00030430490A8894005400D05908948C069C3
:1014D000002873D0012870D0E3E00E5C0F2E07D0F7
:1014E000401C8006800E1070D06C401CD06409E057
:1014F000907001201061906C401C9064A3E77E49BD
:101500007C4AC03910788342E7D19CE791788B42BE
:1015100001D9581A02E04020401AC018182892DB5E
:1015200000230E4619360846B4461AE0C217920E3A
:10153000121892099201861A6F4AC03AB2181778A7
:10154000421AAF546C4F7600803F00E0BBE0F619C2
:1015500036880127BF02BE4202DD002A00DD0123DA
:10156000401C6045E2DB002B1CD1624E0127B761B5
:10157000E87D40070ED5306C002802D100F03AFF1C
:10158000306400F037FF326C821A5C48824203D923
:10159000B76201E03464B462E87D000701D5776288
:1015A00000E074625348297E416141780170046112
:1015B000016A491C016246E700E012E04D4801263D
:1015C00046608460FF27009D5137BD42C56B01DA3C
:1015D0006D1CC563822D64DD056D1E2D29DDC66180
:1015E0008660474E98198D199619FEF79FFE454F54
:1015F00038602846FEF79AFE78603046FEF796FE81
:101600000025B860AE00B8593F49FEF708FE6D1CD2
:10161000B851032DF6DB0098AD38FEF787FE3B4945
:10162000FEF7FDFD7F21C905F860884203DDF96002
:1016300006E0C46335E00121C907884200D9FC6097
:101640002F4A019832495242904201DD012000E0C8
:10165000002088710298904201DD012000E0002006
:1016600008700398904201DD012000E0002008721C
:101670000498904201DD012000E00020C871059827
:10168000904201DD012000E00020887000F0B2FEF1
:1016900018494864086A092803DD0120C8600A2047
:1016A000086200F0A7FE134DA96B411A134881424E
:1016B00005D9686B6C63286500F09CFEA863686BB5
:1016C000AC61401C686300F095FE0A494A6C821ABE
:1016D0000A48824202D90120C86201E02046CC6259
:1016E0008A6A10434A6A104300D00120486007B05C
:1016F000F0BD0000B80100201C06002040420F0091
:101700001FFCFFFF6804002022F19F3AFFF01F3A00
:101710009803002000B501F0BFFF00BD70B514466E
:101720000D460646FEF72EFE01D2284670BD214624
:101730003046FEF731FE01D2204670BD304670BD06
:10174000F0B57F2589B0ED05FE480195807B002826
:1017500002D13F200006019000263446FA48B70027
:10176000C059FA4B4200FA495208D8518A4201DC6A
:10177000DC510FE00122D207904203D82A46002311
:10178000009503E0F34A0023F349009201F04AFC7C
:10179000EE49C851761C032EE0DB01F0E5FD002088
:1017A000FFF798FD0199FEF73AFD06460120FFF785
:1017B00091FD0199FEF733FD06900220FFF78AFDA7
:1017C0000199FEF72CFD0746DE480078002803D07B
:1017D000E2480068002851D0E14806600699876019
:1017E00000264160DF48B700C159DD48C059FEF707
:1017F0000EFDD649761C0C39C851032EF2DB01F0E0
:101800009DFE002001F056FC012001F053FC022057
:1018100001F050FCCB48D44B8279D448D4490127FD
:10182000002A75D0C84AD668D24A964202DD0A68B4
:10183000002A6ED01A68012AFBD007600F60C14AE7
:10184000CD4E927B002A7DD0F761006800287AD0C7
:10185000F0690028BC48C06876D0C8490090FEF7FF
:10186000DEFCC749FEF782FCB061C249009888429D
:1018700003DDC4480168002967D0D7E00021B348E0
:1018800002F018F8C04839464068FEF7C8FC0090DE
:10189000BD4801210068C90748403946FEF7BFFC32
:1018A0000190B94839468068FEF7B9FC0290B74804
:1018B0000590B7480490B1480790A248C07B002823
:1018C0007AD0B44903C94700490049087F0838461F
:1018D0000391FEF761FD00D9039F04993846FEF796
:1018E00051FD05D838460499FEF7D6FC049000E077
:1018F000049596480799006847007F083846FEF728
:1019000041FD07D838460799FEF7C6FC074602E0B6
:101910006AE071E02F4604990598FEF780FC039079
:101920009D483946FEF77BFC0399FEF71FFC0390A8
:10193000954881680120C00781420AD9894F304605
:10194000396803E05CE05DE061E06EE0FEF75FFCBB
:1019500020E09248834F0168914801603046396821
:10196000FEF755FC0399FEF75AFC064628460399F4
:10197000FEF74DFC03900020FFF7DCFB0099FEF71B
:10198000F5FB3968FEF743FC0399FEF748FC314646
:10199000FEF7ECFB6D4E0C3E306079680698FEF762
:1019A00036FC70606F4881680298FEF730FC67492A
:1019B0000C39886023E7FFE700277848BE0081598B
:1019C000774881513846FFF7B5FB69468959FEF7DC
:1019D000CDFB64498959FEF71AFC5C497F1C0C3920
:1019E0008851012FE9DDDDE76E4A04601268012AA3
:1019F00000D024E71C6022E76B4A046017601EE7F2
:101A0000F46122E75F48B46104600C600EE05C4959
:101A1000884203DA5B48B461046007E0FEF7F7FB35
:101A20006249FEF7FCFBB061564807604548007903
:101A3000002819D0444AB4615D491068884211D227
:101A40005C4B98420EDA506888420BD2984209DA11
:101A50009068884206D2984204DAD068002801DDF6
:101A6000984201DB5048076053480068002803D1C2
:101A70005248B169814224DA7068002807D000F02A
:101A8000B9FC7168401A4E49884200D9746000253B
:101A9000E8B2002101F020FD6D1C032DF8DD494D59
:101AA00035482A460021083000F0F7FF32482A4620
:101AB00000210C3000F0F1FFB4613760346209B0EE
:101AC000F0BD0020306000F095FC7060B06901F05E
:101AD0008FFF0221FEF71EFCB169FEF747FB0121D3
:101AE000C907B061884202D90020B06102E0A84273
:101AF00000DDB56134480068002802D03348C06872
:101B0000B06133480024006801281AD13148334FAE
:101B100001683148814205DAFEF779FB3946FEF764
:101B20007EFB04462E4801682E48814205DAFEF706
:101B30006EFB3946FEF773FB0446AC4254DD2C467F
:101B400054E074E098030020680400208002002024
:101B50000AD7233C000080BF0AD723BC980000208E
:101B60002005002044060020300100203C01002018
:101B700040010020CDCCCC3D480000203333733FE2
:101B8000CDCC4C3D38010020D80000209A99993ED8
:101B900000005C428C0300203333333F6806002092
:101BA00030000020C4010020100100209932873F3E
:101BB000A4707DBFA4707D3FBC0100206F12833AEA
:101BC00040420F00EC51383FA00000207C03002071
:101BD00034010020F8000020CDCC2C400000404013
:101BE000FC00002033335340002C07DD844920469D
:101BF000FEF715FB7169FEF7B9FA03E081497069D8
:101C0000FEF705FB3F2109067061884201DD716125
:101C100005E00121C907884201D9002070612046F2
:101C20007169FEF7A3FAB169FEF7F5FAB061764C77
:101C3000206804900146754880690746FEF7E7FA78
:101C4000059066683146FEF7E2FAA4682146FEF781
:101C50008DFA039038460499FEF788FA0746314614
:101C6000FEF7D5FA2146FEF7D2FA019031460598E3
:101C7000FEF77CFA2146FEF7CAFA02903846314652
:101C8000FEF774FA2146FEF771FA00900020401C1E
:101C90000328FCDD002004905A4800246E4605907D
:101CA000A700F0590499FEF777FB01D2F059049090
:101CB000F0590599FEF766FB01D2F0590590641CB6
:101CC000042CEDDB7F21C9050498FEF7A0FA3F251F
:101CD0002D06A84200DD28464C4CA168FEF75CFBAF
:101CE00004D24B49A068FEF741FA03E04949A068D5
:101CF000FEF78DFA434FA060A84201DDA56003E026
:101D00004549884200D9A160404801218068C9073F
:101D1000884200D941484249FEF781FA00280DDD8A
:101D20003946FEF723FA07460024A50070593946C4
:101D3000FEF76DFA641C7051042CF6DB394800681C
:101D400001281ED100252C46A700F0592946FEF790
:101D500019FB00D2F559641C042CF5DB324885428E
:101D600001D9054603E00120C007854209D90024B6
:101D7000A700F0592946FEF74AFA641CF051042CDA
:101D8000F6DB00212148294F0D460162AC00305995
:101D90000121C907884202D90020305104E07F2187
:101DA000C905884200DD315121483159FEF737FA23
:101DB0003946FEF7DBF9305101F051F90146E8B23E
:101DC00001F08AFB30590121C907884202D900205D
:101DD000305104E07F21C905884200DD315131597D
:101DE0000A4C206AFEF7C2F96D1C2062032DCDDD7E
:101DF0000121C943206AFEF78DFA20625FE60000E8
:101E000017B7D1386F12833A14050020480000201C
:101E10000AD7A33B0AD7233CCDCCCCBD17B7D1B84A
:101E2000CDCCCC3D38010020CDCC4CBECCCC4C3DF3
:101E30003333733F10B50020FFF7A0FA10BD08B58B
:101E4000C100081A0090411E009101D30846FAE72C
:101E500008BD000006460024E0B2002101F03CFB72
:101E6000641C032CF8DD0B4DAF0000240CE0FF20B8
:101E700000F0EEFD2846FFF7E2FFFF2000F0D6FD60
:101E80002846FFF7DCFF641CB442F0DB3846FFF75E
:101E9000D6FFEAE7400D030010B50349FEF766F9E7
:101EA00000F004F810BD0000DB0FC93F70B5044618
:101EB000134E144D03E03146FEF758F90446AC4288
:101EC000F9D8114DAC4204DD3146FEF7A0F90446C5
:101ED000F8E70120C0070D490D4D8442204605D981
:101EE000FEF79DF92946FEF741F904E0FEF797F960
:101EF0002946FEF790F92146FEF791F970BD0000E2
:101F0000DB0FC940DB0F49C0DB0F49407B81CF3E6F
:101F100083F9A23FFEB500273D460024681CFEF76A
:101F200005FA01900E49A8000E58601CFEF7FEF954
:101F30000090A10071580198FEF771F90099FEF721
:101F40006EF90849FEF76BF93946FEF70FF9641C84
:101F50000746032CE9DB6D1C032DDEDBFEBD000014
:101F6000AC0100208D976E3F10B5FFF7D3FF0149FC
:101F7000086010BD90000020F8B50020012400F09A
:101F8000A5F81E4DA84237D1FF2000F09FF8A842C7
:101F900032D12046022500F0A1F8194948600968AD
:101FA000FEF7F0F911D100260024B70028466D1C79
:101FB00000F094F81349A200C959641C8850032CFE
:101FC000F4DB761C032EEFDB00E00B2528466D1CAE
:101FD00000F084F80C4C206028466D1C00F07EF860
:101FE0006060284600F07AF8A060362000F076F8AD
:101FF000FEF7AEF905490860F8BD00000100AA121D
:1020000090000020AC010020500600203401002088
:10201000F8B500F067F800F047F8002001241D49EA
:1020200001F032FD1C4920460225096800F05EF8E7
:1020300000260024B7001948A100C059415828467D
:102040006D1C00F053F8641C032CF4DB761C032E8B
:10205000EFDB134C28466D1C216800F047F86E1C1E
:102060002846616800F042F83046A16800F03EF86A
:102070000C480068002802D07F21C90500E000213B
:10208000362000F033F80349FF2001F0FDFC00F09A
:1020900019F8F8BD0100AA1290000020AC01002040
:1020A000500600203401002010B50548FEF790FAD4
:1020B000042803D0FEF7BCFA012010BD002010BD9B
:1020C000007C000810B5FEF7B3FA10BD024980008D
:1020D0004018006870470000007C000800B5FFF75A
:1020E000F5FF00BD10B5FEF7D1FA10BD10B501F037
:1020F000CBFC10BD30B53F4C2178814277D0062112
:102100006218203AD27F6254491E0129F8DA207001
:1021100039493848FFF774F97F25002802D06570E7
:10212000032030BD34493348C91DFFF769F9002841
:1021300002D06570042030BD2F492E480E31FFF7C4
:102140005FF9002802D06570012030BD2A49294876
:102150001531FFF755F9002802D06570022030BD17
:1021600025492448C91FFFF74BF9002802D06570A4
:10217000092030BD20491F480E39FFF741F90028DA
:1021800002D065700A2030BD1B491A481539FFF787
:1021900037F9002802D065700B2030BD164915486C
:1021A0001C31FFF72DF9002802D06570052030BDE5
:1021B000114910482331FFF723F9002802D0657038
:1021C000062030BD0C490B482A31FFF719F90028C9
:1021D00002D06570072030BD074906483131FFF74E
:1021E0000FF9002803D06570082030BDFFE70020FC
:1021F000FBE70000D0000020BD3A0008F8B500F071
:1022000077F804005FD00125324F012C1ED13868C9
:1022100000282FD03048056000203860FFF7F8FE16
:10222000FFF7AAFE002002460C26034673432B4EFE
:1022300000219B198E00491C9A510329FADB401C8E
:102240000328F1DB00F0D6F825490860254E0A2C5A
:1022500015D02549042C1FD0032C21D0072C00DBDE
:102260003D60052C21D0062C22D0072C2CD0082C28
:102270002DD020E000F0DEF8FEF798FECEE71B49F7
:102280000868002806D0002008600221081A306083
:102290003D60E5E70120F7E70F480D7105600AE0B2
:1022A0000D4805600020087105E000F0E7FE01E040
:1022B00000F0D6FE30603868002804D0306800286E
:1022C00001D105480560F8BD00F04AFBF2E7FFF7D1
:1022D000B1FDEFE7BC00002010010020B404002095
:1022E0002C0100201401002098030020340100205C
:1022F00070B53748374C0068002864D0364B3748F3
:102300001A685100490881420BDA9D686D006D081A
:10231000854206DA5D686D006D08854201DA0020AD
:102320002FE02F4DAA4202D89E68AE4206D95E68C1
:1023300076007608864201DA012022E0294EB24278
:1023400002DC9A68B24206DD5A68520052088242A4
:1023500001DA022015E05A68AA4208D9814206DA59
:102360009D686D006D08854201DA032009E0B242E4
:1023700008DD814206DA996849004908814201DA9C
:102380000420206000F036F806CC083C914200D0D2
:10239000E060E268801A144A90420FD9002904D103
:1023A000124A904201D90C2005E0114A904204D90A
:1023B0007F2903D0FF20A06000E0A1606160A068D9
:1023C000FFF798FE70BD7F20A0606060002070BDA8
:1023D00048000020C000002068040020CDCC4C3E06
:1023E000333333BF3333333FA086010060AE0A007E
:1023F00020A1070000B501F02DFB00BD1CB5232076
:1024000001214004FEF768FA0120694608710020A6
:102410008871C8710320487104200924E4060090E3
:102420002046FEF754F90821009169462046FEF740
:102430004EF91CBDF0B591B0FFF7DCFF0F900546DB
:102440000B900A9000208100574B0CAA5B58401C4F
:1024500053500328F7DB8CE00A980A95281A099054
:1024600001D10120099006226946432000F09EF91F
:10247000009801990002401800B2FDF757FF07903D
:10248000029803990002401800B2FDF74FFF069032
:10249000049805990002401800B2FDF747FF434E2B
:1024A0000890307800F06EFA20464149FDF738FE7A
:1024B0004048814201D9012100E000213068C20773
:1024C000D20F914201D0401C306038480178090792
:1024D000090F00260160B4000CAF06A83959005955
:1024E000FDF75AFF04D238593349FDF73FFE385102
:1024F00006A839590059FDF745FF04D238592E492D
:10250000FDF785FE3851E0192C4900F0B3FA38592F
:102510002B4940004008FDF729FE014606AF385917
:1025200040004008FDF738FF06D2FFF763FF0B902D
:102530001E48012101600BE00998FDF702FF2149C7
:1025400000F0E8FA024618483959201800F0A5FAB8
:10255000761C032EBFDB7D24E400FFF74BFF401BFE
:10256000A04203D20A20FFF76AFCF6E7FFF742FF1A
:1025700005460B982C1A1448844205D20F9813492B
:10258000281A884200D267E70B98291A0E48814220
:1025900007D20020044A01468300401CD150032882
:1025A000FADB11B0F0BD00005C0600200C02002038
:1025B00024F40000127A0000CDCCCC3D0000484449
:1025C0000000C8420024F44880841E00C0E1E400FA
:1025D00010B58AB002206946087101208871C8715F
:1025E000032040020924E40600902046FEF76FF81D
:1025F000042209212046FEF7A2F804220A212046DF
:10260000FEF79DF801214805FEF772F90121084601
:10261000FEF77AF901218805FEF72AFA0121C8059B
:10262000FEF726FA1020FEF717FA0B48029000205A
:102630000F2104910390AB21084C0590079006915F
:10264000089002A92046FEF7ADF801212046FEF7CA
:102650008DF80AB010BD000018087000005400404A
:10266000F8B50F461646012100F03AF8092080021D
:1026700001230090F2B25B06D0211248FEF7CAF89F
:10268000114D0020287018E0002408E0641C600B45
:1026900005D00E490868401C08600020F8BD0421E0
:1026A0000848FEF777F80028F0D00648FEF7ACF8A7
:1026B00029788A00B850491C29702878B042E3DB99
:1026C0000120F8BD00540040740000207800002074
:1026D00008B501226946FFF7C3FF009808BD000056
:1026E000F3B581B00F4600241A4D1B4E02E0641C66
:1026F000600B22D10121C9033046FEF74BF80128B7
:10270000F5D0012040030090FAB20023D0213046DA
:10271000FEF780F802E0641C600B0ED10221304607
:10272000FEF738F80028F6D00198C1B23046FEF71F
:102730006EF807E0641C600B04D02868401C286019
:102740000020FEBD01213046FEF724F80028F1D01C
:102750000120FEBD780000200054004070B50D46F9
:1027600000240221FFF7BCFFE9B20C4D2846FEF71A
:102770004EF807E0641C600B04D009490868401C4F
:10278000086070BD40212846FEF704F80028F1D00B
:1027900001212846FDF7F4FF70BD00000054004001
:1027A0007800002010B5FFF713FF10BD10B5FFF73C
:1027B00057FF10BD10B5FFF78BFF10BD10B5FFF729
:1027C000CDFF10BDF0B54C4C4C4D87B0216828684A
:1027D000FDF71DFD286061686868FDF718FD6860F9
:1027E000A168A868FDF713FD00240A27FF43A8602D
:1027F000A600A8593946FDF78DFD641CA851032C8D
:10280000F6DB3F480024006804AF00903D48A60076
:1028100080590099FDF703FD641CB851032CF5DBCA
:10282000394E049834682146FDF7F9FCB168FDF78C
:10283000F2FC019001990498FDF7F1FC2146FDF7A7
:1028400095FC074601990598FDF7E9FC7168FDF7CD
:102850008DFC044621460598FDF7E1FC0199FDF742
:10286000DAFCB06021460698FDF7D9FC3946FDF741
:10287000D2FC3060069A01461046FDF7D0FC214696
:10288000FDF774FC70601D48FEF75EFD1F49204A8D
:102890004118914222D27F22D205014600241046DF
:1028A000FDF7FAFC0090A700E959FDF7B8FC641C9D
:1028B000E851032C01DA0098F5E711483F21090699
:1028C000006800F039F907460024A0002958801953
:1028D0003A4600F0E2F8641C032CF6DBB16830687D
:1028E000FEF790FC0B4C2060B1687068FEF78AFC24
:1028F000606007B0F0BD00005006002038060020E0
:102900002801002044060020D8000020CCCCCCC0F8
:10291000323373008C030020F8B500250D4F00F012
:1029200031FF0024A6000A21B859C943FDF7F2FC83
:1029300001460948094A301800F0AFF8641C032C1E
:10294000F0DB7D20C000FFF77AFA6D1C642DE6DB1A
:10295000F8BD000038060020D80000209A99593FA1
:1029600010B50120FEF70AFD10BD0EB500226B4622
:102970001A805A8001911A819A726946FEF7B4F959
:102980000EBD000070B50646FFF734FD194C2169F5
:102990002061451A3046FDF7D4FC1749FDF73FFC8E
:1029A00006460121204689070C3000F063F82846CE
:1029B000FDF7C7FC054630466168FDF728FC29464F
:1029C000FDF72DFC0D49FDF72AFCE168FDF7CEFB74
:1029D0000B49E060884205DDFF2000F039F87F20D8
:1029E000C00503E0FF2000F021F800206060002017
:1029F00070BD0000E40000208988883D6F12833A92
:102A000048E1FA3E70B50D460446FFF7F3FC214657
:102A1000FDF786FB6C432009814203D90F2000F0AB
:102A200017F870BD0F2000F001F870BD70B50446B6
:102A3000064DC00703D004212846FDF792FEA007EB
:102A400003D508212846FDF78CFE70BD0000004824
:102A500070B50446064DC00703D004212846FDF793
:102A60007EFEA00703D508212846FDF778FE70BD3D
:102A70000000004870B504460120C0070D464540DF
:102A80000E462068FDF788FC00D2266028462168A3
:102A9000FDF782FC00D2256070BD70B505460C467E
:102AA0007F2016461146C005FDF7B1FB2146FDF714
:102AB000B6FB044631462868FDF7B1FB2146FDF719
:102AC00055FB286070BD0000F3B5104E104F8C0010
:102AD00083B031597869FDF7A2FB019030460C387C
:102AE000055938692946FDF79AFB0090B9690398A2
:102AF000FDF795FB0099FDF739FB0199FDF787FB81
:102B0000314635510C39085105B0F0BD5005002053
:102B10004401002010B5FDF7BFFB7F24E4052146EA
:102B2000FDF779FBA04201DD204610BD0121C90758
:102B30008842FAD9002010BD10B5FDF770FB7F2444
:102B4000E4052146FDF767FBA04201DD204610BDEC
:102B50000121C9078842FAD9002010BDF8B5164AEC
:102B600009018C1805462768A1686068FDF7FEFA20
:102B70000090E168FDF7FAFA01467F20C005FDF7F5
:102B80008BFB0099FDF74BFB064639462846FDF7BF
:102B90003EFB3146FDF743FB3946FDF7E7FA0546B4
:102BA0007F203146C005FDF732FB0099FDF737FB6A
:102BB000256060602846F8BD04030020F8B5164A79
:102BC00009018C1805462768A1686068FDF7CEFAF0
:102BD0000090E168FDF7CAFA01467F20C005FDF7C5
:102BE0005BFB0099FDF71BFB064639462846FDF7BF
:102BF0000EFB3146FDF713FB3946FDF7B7FA0546E4
:102C00007F203146C005FDF702FB0099FDF707FB69
:102C1000256060602846F8BD340300200EB57D2095
:102C2000C000FFF70CF9FEF775FDFFF7E7FBFF208B
:102C3000FFF70EFF00F01CFE00F0F6FEE148FFF784
:102C4000FEF8FFF7AFFD00F0CDFB0021084600F0D5
:102C500043FC0021012000F03FFC0021032000F094
:102C60003BFC0021022000F037FC00F05FFD00F08B
:102C70004DFD002836D0FEF7CBF9D34901208873EB
:102C8000FFF772F9FFF778F900F0AAFCCF4E0024A5
:102C90000020FEF733FAB168FDF7C1FA05460120BE
:102CA000FEF72CFA0146CA4FC8483A460830FFF7EB
:102CB000F4FE3A462946C548FFF7EFFEC548641CB6
:102CC0008442E5DBC44D3068062400902046FDF7C1
:102CD0002DFB074601460098FDF7DEFAA84203DD0A
:102CE000776104E0042037E0641E002CEEDC71699B
:102CF0000098FDF7D1FAB949884201DA02202BE0A9
:102D0000FFF798FB00F018FCFFF706FEB4480068D8
:102D1000002801D007201FE0FFF76CFB7063FFF76E
:102D200069FBAA4C0546606B281AFDF70AFB206375
:102D3000002802DC7F20C0052063AA49FDF76FFA56
:102D4000A9492063884201DD062005E0A4486563A7
:102D50000068142802DD0820FFF77CF800F012FD5F
:102D6000FEF7EEFCFFF72EFD0020FEF7C7F9974CAB
:102D7000A168FDF754FA06460120FEF7BFF90146A7
:102D8000934F20463A460830FFF787FE97483A4669
:102D9000016820460C30FFF780FE95496069FDF719
:102DA0003EFA0190934A01A82168FFF776FE3A4661
:102DB00031462046FFF771FE0121C9430198FDF716
:102DC000A9FA06468C492068FDF729FA3146FDF735
:102DD0001EFA0090E4688948844256DD7B4F786A89
:102DE0000646FDF7A3FA8549FDF719FA2146FDF7D6
:102DF00016FA0099FDF7BAF97349B4007031085119
:102E00000646F86A002808D0002030398200401CAD
:102E10008E500C28FADB0020F8626B48784910309D
:102E20000059FDF7FCF9684F029040373959304698
:102E3000FDF7EDF90299FDF799F939463E51303920
:102E400008510146FDF7EBF93E4601466036A019F0
:102E50006C4AFFF722FE5D485C49406A401C4862AC
:102E60000C2812DB00204862306800240290A70082
:102E7000F0590299FDF786FA04D2F05902905348AE
:102E8000611C8162641C0C2CF1DB504F38690028F6
:102E900000D05A485C49FDF769F90646B86AFDF763
:102EA00045FA564C2146FDF7BAF9F968FDF7B7F92E
:102EB0000099FDF75BF93146FDF764FA03D35349F6
:102EC0003868884201DA012000E000203861B86AE1
:102ED000FDF72CFA2146FDF7A2F9F968FDF79FF9F5
:102EE0000099FDF743F9786049480068002801D04F
:102EF000FFF784F93869002801D0082108E0454827
:102F00000068002806D044480068002804D00F213B
:102F100042481EE00C211BE02B48C07B002807D054
:102F20000026B869002817D0386A002802D004E0CB
:102F30000126F6E7FFF75EFA3862FFF75BFA396AB7
:102F4000411A3648814202D90020B861386208210E
:102F50001C48FFF757FD2BE0F86900281FD0FFF74A
:102F600049FA0446386A002809D13C62002E03D091
:102F7000FF20FFF75BFD02E0FF20FFF769FD386AE5
:102F8000211A2648814201D8386A04E0F869401EB7
:102F9000F861002038622249201A884208D9002EA0
:102FA00003D0FF20FFF754FD02E0FF20FFF73EFDB6
:102FB000FEF738FA7D24E400FFF71CFA401BA0421C
:102FC000FAD3ACE6A086010098030020F8000020A8
:102FD000492E7F3F88130000CDCC6C4033335340E3
:102FE00078000020BD3786350AD7A33C6800002052
:102FF0006666864029EA7F3F0000A03FCDCCCC3DED
:1030000042F27C3F67B17F3F00006040CDCC2C4056
:1030100048000020C0010020BC01002020A10700C2
:10302000E0930400FFB581B007460E4610460A9DA6
:10303000FDF7EDF8044628460499FDF7E8F8054643
:1030400031463846FDF7E3F82946FDF7E8F8214612
:10305000FDF722F90499FDF789F805B0F0BD704736
:1030600005490868022804D001DA02200860401CE3
:1030700070470020FAE70000440100200C4948682E
:10308000002804D0012807D002280AD10BE0084804
:1030900044308860012003E00548503088600220F9
:1030A0004860401C70470248383088600020F7E7CD
:1030B00044010020F0B506469E489F4902789F488B
:1030C0009F4F0068B4008FB0002A03D0994AD27B8A
:1030D000002A11D0002803D03859FDF7A0F8385144
:1030E000022E1ADA964918310859C207401CD20F2D
:1030F0000851002A07D010E00028EDD1914800685F
:103100000028E9D0ECE78E4831464830005900F0FD
:10311000B1FB01468A480C3001518B48002501590A
:1031200087483C300059FDF72DF904D187480059F4
:10313000002800DD0125844801210059C9074840C5
:103140007F493C310959FDF71DF906D17F480159E6
:103150000120C007814200D90125022E0BDA7848F0
:103160000C3001593C300059FDF751F840007849C6
:103170004008884227DC002D25D1714802215430B7
:1031800005592846FDF7C6F86D4960310959FCF725
:10319000EDFF6E4909590091FCF7E8FF6D49FDF715
:1031A0003EF86D490959FDF73AF86C490968FDF791
:1031B00036F83959FCF7DAFF38516148603005516B
:1031C0000C380099015160480C3001595C482018B6
:1031D000FFF750FC6048183007595C4839460059E1
:1031E000FDF71DF85C490C3909590091FDF717F8F6
:1031F000534D7F2101903C35C9053846FDF707F84E
:103200000099FDF70CF8564909590391FDF707F8A5
:103210000199FCF7ABFF4A490959FCF7A7FF285170
:103220004D480C3000590290002801DC285972E00A
:1032300040480AA9C27B07A8002A06D0464A243A79
:1032400012590251444A183A05E03D4A603A12596F
:1032500002513B4A543A12590A5100597F22D20571
:103260000090904208590190014604AF104608DAD8
:10327000FCF7CDFF0D903B480199005940004008F4
:103280000BE0FCF7C4FF0D9000990198FDF704F8DE
:1032900001463448005940004008FCF7C0FF0D9932
:1032A000FCF764FF38512648243001590398FCF795
:1032B000AEFF0299FCF7B3FF27494439C9690D9164
:1032C000FCF7ADFF0E901E483030015918300259FE
:1032D00001921046FCF79BFF0299FCF7A0FF0099B2
:1032E000FCF79DFF3959FCF79AFF0D99FCF797FF02
:1032F0000E99FCF78CFF1249019A30310A51104A9D
:103300000399243211513146FFF7DEFB014628595B
:10331000FCF72CFF285110494439C968FCF77FFF9E
:103320002851094801596019FFF7A4FB28590FB02B
:10333000F0BD00009803002048E17A3F48000020DB
:10334000D804002038010020F83A00087402002058
:10335000CDCCCC3D7EAA2A3E880100202801002049
:103360004406002080020020F8B514480168144883
:10337000FCF792FF134CE0611348016813480068A2
:10338000FCF78AFF7F25124EED053346114A12499C
:103390000095FFF747FEE060B04201DDE66002E025
:1033A000A84200DAE5600D480078002804D00C49F6
:1033B000E068FCF734FFE060F8BD00002801002061
:1033C00017B7513B440100200C010020F8000020F9
:1033D000713DAA3F666676400000204098030020B9
:1033E0006666663FFEB5022569460D710320487189
:1033F00000248C71CC7101212846FDF779FA314FF8
:1034000031483946FFF7B1FA01210E023046FDF787
:103410006FFA39462D4F3846FFF7A7FA2C4860213E
:10342000018001214180848106828460102009246A
:10343000E406009069462046FDF749F9042211464A
:103440002046FDF77CF922493846FDF795FB4020E0
:10345000009069462046FDF73AF9012206212046F0
:10346000FDF76DF91A491848FDF786FB802000909A
:1034700069462046FDF72BF9012207212046FDF77A
:103480005EF913491048FDF7B5FB124C694620461A
:103490000095FDF71CF9012211462046FDF74FF972
:1034A0000B490948FDF7EEFB01210748FDF74EFBEC
:1034B00001210548FDF754FB01213846FDF746FB85
:1034C000FEBD0000CF0700000004004000200040C7
:1034D000F00200200004004810B50A4604461249D4
:1034E0001046FCF79CFEFCF733FF002801DA0020B1
:1034F00003E00E49884200DD0846002C09D0012C6B
:103500000CD00B49022C0CD0032C01D180B2886363
:1035100010BD074980B24031086010BD80B2054936
:1035200000E080B2486310BD00E0F944CF0700001E
:10353000000400400020004070470000FEB5254D0B
:10354000254C2F68A66839463046FCF768FE2349AB
:1035500009680091FCF763FE6168FCF75CFE394680
:103560000190FCF75CFE0099FCF759FE3146FCF730
:10357000FDFD074668680290266801463046FCF764
:103580004EFE0099FCF74BFE3946FCF744FEA06066
:103590000299FCF744FE0099FCF741FE3146FCF726
:1035A000E5FDAD68064629460198FCF738FE00990E
:1035B000FCF735FE3146FCF72EFE29462060FCF76D
:1035C0002EFE0099FCF72BFE0199FCF7CFFD606001
:1035D000FEBD000044060020D80400202801002081
:1035E0007047000070B58AB0FEF704FF2549884295
:1035F00045D302206946087100248C71CC710320E8
:10360000487101250926AD03F60630460095FDF701
:103610005EF801220E213046FDF791F8012128467F
:10362000FDF772F918480390681005900420174DB3
:10363000079004940694089403A92846FDF7F2FB2A
:1036400001212846FDF748FC0321012209042846F0
:10365000FDF736FC01220E492846FDF7CEFB01217D
:103660002846FDF7B9FB1B20694608724C720125FC
:103670008D7202A8FDF7DEF80648856004610AB085
:1036800070BD000080841E00A0860100003801404B
:1036900005010500B80100201B4801680122114303
:1036A000016001688907FCD541688908890041608B
:1036B00041680907890FFBD1016801221206914375
:1036C000016001688901FCD441683F231B049943D0
:1036D000416041687B23DB039943416041680723D4
:1036E000DB041943416001681143016001688901ED
:1036F000FCD5416802221143416041680907890FE6
:103700000229FAD1704700000010024010B5752060
:10371000FFF750F8682807D0982805D07D2803D0F7
:10372000722801D0002010BD012010BD10B58021ED
:103730006B20FFF743F81248FEF781FB01216B2055
:10374000FFF73CF87520FFF735F8682801D0012411
:1037500000E000246420FEF772FB18211C20FFF714
:103760002DF8002C03D005211D20FFF727F8182184
:103770001B20FFF723F800211A20FFF71FF810BDC8
:10378000409C0000F0B593B00E2269463B20FFF745
:103790000DF8029803990002401800B2FCF7C6FD2C
:1037A000304C2060009801990002401800B240425D
:1037B000FCF7BCFD6060049805990002401800B257
:1037C000FCF7B4FDA060089809990002401800B207
:1037D000FCF7ACFD11900A980B990002401800B25A
:1037E000FCF7A4FD10900C980D990002401800B24F
:1037F000FCF79CFD1290243421681098FCF707FD1B
:10380000109061681198FCF702FD1190A168129860
:10381000FCF7FDFC12900120109AC007119942405C
:10382000109111464140119112990E4F41400024D0
:1038300010AE0C371291A50070590B49FCF7EFFC44
:103840000A49FCF7ECFC70512146FFF787F97851E3
:103850002146FFF7B3F9641C7851032CEBDB13B05E
:10386000F0BD00003806002000007A3D35FA8E3C9D
:103870007047000070B50C4AC9008C180546606896
:103880000A492060FCF7CBFC064609492846FCF7AC
:10389000C6FC3146FCF76AFC6060226801461046AF
:1038A000FCF764FC70BD00006403002007715D3FFD
:1038B000E23B8A3DF8B5474D044601682868FCF7AD
:1038C00061FD04D161686868FCF75CFD55D0206833
:1038D00028606068404E686031466068FCF79FFC75
:1038E0003E4F3946FCF79BFC054631462068FCF705
:1038F00096FC3946FCF793FC0646FEF7D7FA354CA2
:10390000083420602846FEF7D1FA60602846FEF7AA
:10391000C3FA05463046FEF7BFFA2946FCF77FFC9E
:103920000646A06060680146FCF779FC0546206801
:103930000146FCF774FC2946FCF718FC28490546AB
:1039400088420FDD31460846FCF769FC7F21C90536
:10395000FCF761FC01462846FCF79EFCFCF792FF51
:10396000054600E01F4D20682946FCF758FC206002
:1039700029466068FCF753FC6060164C1A4E083408
:10398000A068009070680099FCF749FCB76805468C
:1039900061683846FCF743FC2946FCF738FC134DB8
:1039A000686030680099FCF73AFC064638462168A2
:1039B000FCF735FC3146FCF72AFC7F24E40528603F
:1039C00021462846FFF756F82146281DFFF752F8F2
:1039D000F8BD0000100200200000824235FA8E3C43
:1039E0006F12833AF4FD343FD800002068060020AF
:1039F000F8B50A4C06466068094905462060FCF7A0
:103A00000EFC074607493046FCF709FC3946FCF72F
:103A1000ADFB29466060FCF7FAFBF8BD880000208A
:103A2000E379673FF2BC733F10B50848064941612E
:103A30000749CA6903231202120A44042243CA61D5
:103A400000218161036110BDFF117A0000E000E0F8
:103A500004ED00E00A48436980690A494A689042D7
:103A600001D2121A01E01B1A9A184860086812184D
:103A7000D008C300D21A0A608A681018886070479C
:103A800000E000E07C000020064A10B580008018AD
:103A9000FCF7D6FD042804D0FCF7CAFD0520FEF78C
:103AA000D9F910BD007C00080C0300040003000CD1
:103AB0000100010001000C0200020002000C0100E4
:103AC000010003000C0200020003000C03000300CD
:103AD00003000C0400040004000C040003000400B4
:103AE0000C0400030003000C0400030002000C049B
:103AF00000030001000000009A99D93F9A99D93F2C
:103B00000000003F9A99D93F9A99D93F0000003FA1
:103B1000343B000800000020340200005404000878
:103B2000D43B00083402002044080000540F000871
:103B300035D4FFFF216320416340405AA008012E85
:103B40005A0104810536CDCCCC3D034E20C103186B
:103B5000803F1C666686EC492049BC09142CA9D814
:103B6000A90C0110137C012A2044600D9ED8893FC6
:103B70002173943E52215A3E1AC05829042F803F87
:103B80009A99993E04412D14AE473E042C33337369
:103B90001839043808CDCC4C3FC3F58804190C2ED5
:103BA0003E7B146E3F042D6666663F601A88043AB9
:103BB0009468E11AFF010144A0097B14524185EB8E
:103BC00041411A80B819F82C0203040405000607C5
:043BD00008090000E0
:04000005080000C926
:00000001FF
